{"contracts/Carpool.sol":{"Carpool":{"abi":[{"inputs":[{"internalType":"uint256","name":"","type":"uint256"}],"name":"Rides","outputs":[{"internalType":"uint256","name":"id","type":"uint256"},{"internalType":"uint256","name":"rideHost","type":"uint256"},{"internalType":"string","name":"depAddress","type":"string"},{"internalType":"string","name":"desAddress","type":"string"},{"internalType":"string","name":"depCity","type":"string"},{"internalType":"string","name":"desCity","type":"string"},{"internalType":"uint8","name":"numberOfSeats","type":"uint8"},{"internalType":"string","name":"depTime","type":"string"},{"internalType":"uint32","name":"fare","type":"uint32"},{"internalType":"string","name":"rideHostName","type":"string"},{"internalType":"uint64","name":"rideHostPhone","type":"uint64"},{"internalType":"string","name":"hostVehicleName","type":"string"},{"internalType":"string","name":"hostVehicleNumber","type":"string"},{"internalType":"string","name":"date","type":"string"}],"stateMutability":"view","type":"function"},{"inputs":[{"internalType":"uint256","name":"","type":"uint256"}],"name":"Users","outputs":[{"internalType":"uint256","name":"pubKey","type":"uint256"},{"internalType":"uint64","name":"phone","type":"uint64"},{"internalType":"string","name":"fname","type":"string"},{"internalType":"string","name":"lname","type":"string"},{"internalType":"uint8","name":"isReg","type":"uint8"},{"internalType":"bool","name":"isTrackingEnabled","type":"bool"},{"internalType":"uint256","name":"tracker","type":"uint256"},{"internalType":"bool","name":"isTrackingUser","type":"bool"},{"internalType":"uint256","name":"tracking","type":"uint256"},{"internalType":"bool","name":"isHost","type":"bool"},{"internalType":"bool","name":"bookedRide","type":"bool"}],"stateMutability":"view","type":"function"},{"inputs":[{"internalType":"uint256","name":"_pubKey","type":"uint256"},{"internalType":"uint256","name":"_id","type":"uint256"}],"name":"bookRide","outputs":[],"stateMutability":"nonpayable","type":"function"},{"inputs":[{"internalType":"uint256","name":"_pubKey","type":"uint256"}],"name":"getBookedRides","outputs":[{"components":[{"internalType":"uint256","name":"id","type":"uint256"},{"internalType":"uint256","name":"rideHost","type":"uint256"},{"internalType":"string","name":"depAddress","type":"string"},{"internalType":"string","name":"desAddress","type":"string"},{"internalType":"string","name":"depCity","type":"string"},{"internalType":"string","name":"desCity","type":"string"},{"internalType":"uint8","name":"numberOfSeats","type":"uint8"},{"internalType":"string","name":"depTime","type":"string"},{"internalType":"uint32","name":"fare","type":"uint32"},{"internalType":"string","name":"rideHostName","type":"string"},{"internalType":"uint64","name":"rideHostPhone","type":"uint64"},{"internalType":"string","name":"hostVehicleName","type":"string"},{"internalType":"string","name":"hostVehicleNumber","type":"string"},{"internalType":"string","name":"date","type":"string"},{"internalType":"uint256[]","name":"passengers","type":"uint256[]"}],"internalType":"struct Carpool.Ride[]","name":"","type":"tuple[]"}],"stateMutability":"view","type":"function"},{"inputs":[{"internalType":"uint256","name":"_pubKey","type":"uint256"}],"name":"getFirstName","outputs":[{"internalType":"string","name":"","type":"string"}],"stateMutability":"view","type":"function"},{"inputs":[{"internalType":"uint256","name":"_pubKey","type":"uint256"}],"name":"getHostedRides","outputs":[{"components":[{"internalType":"uint256","name":"id","type":"uint256"},{"internalType":"uint256","name":"rideHost","type":"uint256"},{"internalType":"string","name":"depAddress","type":"string"},{"internalType":"string","name":"desAddress","type":"string"},{"internalType":"string","name":"depCity","type":"string"},{"internalType":"string","name":"desCity","type":"string"},{"internalType":"uint8","name":"numberOfSeats","type":"uint8"},{"internalType":"string","name":"depTime","type":"string"},{"internalType":"uint32","name":"fare","type":"uint32"},{"internalType":"string","name":"rideHostName","type":"string"},{"internalType":"uint64","name":"rideHostPhone","type":"uint64"},{"internalType":"string","name":"hostVehicleName","type":"string"},{"internalType":"string","name":"hostVehicleNumber","type":"string"},{"internalType":"string","name":"date","type":"string"},{"internalType":"uint256[]","name":"passengers","type":"uint256[]"}],"internalType":"struct Carpool.Ride[]","name":"","type":"tuple[]"}],"stateMutability":"view","type":"function"},{"inputs":[{"internalType":"uint256","name":"_pubKey","type":"uint256"}],"name":"getIsHost","outputs":[{"internalType":"bool","name":"","type":"bool"}],"stateMutability":"view","type":"function"},{"inputs":[{"internalType":"uint256","name":"_pubKey","type":"uint256"}],"name":"getIsPassenger","outputs":[{"internalType":"bool","name":"","type":"bool"}],"stateMutability":"view","type":"function"},{"inputs":[{"internalType":"uint256","name":"_pubKey","type":"uint256"}],"name":"getIsTrackingEnabled","outputs":[{"internalType":"bool","name":"","type":"bool"}],"stateMutability":"view","type":"function"},{"inputs":[{"internalType":"uint256","name":"_pubKey","type":"uint256"}],"name":"getIsTrackingUser","outputs":[{"internalType":"bool","name":"","type":"bool"}],"stateMutability":"view","type":"function"},{"inputs":[{"internalType":"uint256","name":"_pubKey","type":"uint256"}],"name":"getLastName","outputs":[{"internalType":"string","name":"","type":"string"}],"stateMutability":"view","type":"function"},{"inputs":[{"internalType":"uint256","name":"_id","type":"uint256"}],"name":"getPass","outputs":[{"internalType":"uint256[]","name":"","type":"uint256[]"}],"stateMutability":"view","type":"function"},{"inputs":[{"internalType":"uint256","name":"_pubKey","type":"uint256"}],"name":"getPhone","outputs":[{"internalType":"uint64","name":"","type":"uint64"}],"stateMutability":"view","type":"function"},{"inputs":[{"internalType":"uint256","name":"_pubKey","type":"uint256"}],"name":"getTracker","outputs":[{"internalType":"string","name":"","type":"string"},{"internalType":"string","name":"","type":"string"},{"internalType":"uint256","name":"","type":"uint256"}],"stateMutability":"view","type":"function"},{"inputs":[{"internalType":"uint256","name":"_pubKey","type":"uint256"}],"name":"getTracking","outputs":[{"internalType":"string","name":"","type":"string"},{"internalType":"string","name":"","type":"string"},{"internalType":"uint256","name":"","type":"uint256"}],"stateMutability":"view","type":"function"},{"inputs":[{"internalType":"uint256","name":"_pubKey","type":"uint256"}],"name":"isUserRegistered","outputs":[{"internalType":"bool","name":"","type":"bool"}],"stateMutability":"view","type":"function"},{"inputs":[{"internalType":"uint256","name":"_rideHost","type":"uint256"},{"internalType":"string","name":"_depAddress","type":"string"},{"internalType":"string","name":"_desAddress","type":"string"},{"internalType":"string","name":"_depCity","type":"string"},{"internalType":"string","name":"_desCity","type":"string"},{"internalType":"uint8","name":"_numberOfSeats","type":"uint8"},{"internalType":"string","name":"_depTime","type":"string"},{"internalType":"uint32","name":"_fare","type":"uint32"},{"internalType":"string","name":"_rideHostName","type":"string"},{"internalType":"uint64","name":"_rideHostPhone","type":"uint64"},{"internalType":"string","name":"_depDesCity","type":"string"},{"internalType":"string","name":"_hostVehicleName","type":"string"},{"internalType":"string","name":"_hostVehicleNumber","type":"string"},{"internalType":"string","name":"_date","type":"string"}],"name":"publishRide","outputs":[],"stateMutability":"nonpayable","type":"function"},{"inputs":[{"internalType":"uint256","name":"_pubKey","type":"uint256"},{"internalType":"string","name":"_fName","type":"string"},{"internalType":"string","name":"_lname","type":"string"},{"internalType":"uint64","name":"_phone","type":"uint64"},{"internalType":"bool","name":"_isTrackingEnabled","type":"bool"},{"internalType":"uint256","name":"_tracker","type":"uint256"}],"name":"register","outputs":[],"stateMutability":"nonpayable","type":"function"},{"inputs":[{"internalType":"string","name":"_depDesCity","type":"string"}],"name":"searchRide","outputs":[{"components":[{"internalType":"uint256","name":"id","type":"uint256"},{"internalType":"uint256","name":"rideHost","type":"uint256"},{"internalType":"string","name":"depAddress","type":"string"},{"internalType":"string","name":"desAddress","type":"string"},{"internalType":"string","name":"depCity","type":"string"},{"internalType":"string","name":"desCity","type":"string"},{"internalType":"uint8","name":"numberOfSeats","type":"uint8"},{"internalType":"string","name":"depTime","type":"string"},{"internalType":"uint32","name":"fare","type":"uint32"},{"internalType":"string","name":"rideHostName","type":"string"},{"internalType":"uint64","name":"rideHostPhone","type":"uint64"},{"internalType":"string","name":"hostVehicleName","type":"string"},{"internalType":"string","name":"hostVehicleNumber","type":"string"},{"internalType":"string","name":"date","type":"string"},{"internalType":"uint256[]","name":"passengers","type":"uint256[]"}],"internalType":"struct Carpool.Ride[]","name":"","type":"tuple[]"}],"stateMutability":"view","type":"function"}],"evm":{"bytecode":{"linkReferences":{},"object":"6080806040523461001657612302908161001c8239f35b600080fdfe608080604052600436101561001357600080fd5b60003560e01c90816305db4bbc14611ce557508063172a56c114611cb6578063174029f614611c735780631e98fd1c14611b8f5780632d452ed614611add5780632e7d44b514611aa557806340f3855314611a7157806341daef4e14610d9657806355a6f86f14610d535780639cf242fb14610bd2578063a6a37c6c14610a4b578063ac785e3914610a09578063b382c756146108ea578063b41bec5c14610757578063c3a83344146106fd578063c4aa95f01461019d578063d014921f14610151578063e0a58ee1146101295763fa03b7e5146100f057600080fd5b34610124576020366003190112610124576004356000526000602052602060ff600860406000200154166040519015158152f35b600080fd5b346101245760203660031901126101245760206101476004356120e9565b6040519015158152f35b346101245760203660031901126101245760006004356000526000602052600160ff60046040600020015460081c16151514610195575b6020906040519015158152f35b506001610188565b346101245760c0366003190112610124576024356001600160401b038111610124576101cd903690600401611ea9565b6044356001600160401b038111610124576101ec903690600401611ea9565b90606435916001600160401b038316830361012457608435151560843503610124576040519061021b82611dc7565b600082526040519261022c84611dc7565b6000845260405194856101a08101106001600160401b036101a08801111761054f576001600160401b03906101a0870160405260043587521660208601526040850152606084015260016080840152608435151560a0840152600060c0840152600060e08401526000610100840152600061012084015261014083015260006101608301526101808201526004356000526000602052604060002081518155600181016001600160401b036020840151166001600160401b031982541617905560408201519182516001600160401b03811161054f5761030f6002840154611d71565b601f81116106c8575b506020601f821160011461065a578192939460009261064f575b50508160011b916000199060031b1c19161760028301555b60608101519182516001600160401b03811161054f5761036d6003830154611d71565b601f811161060f575b506020601f82116001146105a15781929394600092610596575b50508160011b916000199060031b1c19161760038201555b6004810160ff60808401511681549061ff0060a0860151151560081b169161ffff19161717905560c082015160058201556103f860e08301511515600683019060ff801983541691151516179055565b61010082015160078201556104236101208301511515600883019060ff801983541691151516179055565b6101408201519081516001600160401b03811161054f57600160401b9283821161054f57602060098401918254848455808510610579575b500190600052602060002060005b838110610565578686610180600b886104986101608601511515600a83019060ff801983541691151516179055565b019201518051916001600160401b03831161054f57821161054f576020908354838555808410610532575b50019160005260206000209160005b82811061051e576084356104e257005b600435600052600060205260a43580600560406000200155600052604060002060068101600160ff198254161790556007600435910155600080f35b6001906020835193019281860155016104d2565b610549908560005284846000209182019101612129565b846104c3565b634e487b7160e01b600052604160045260246000fd5b600190602084519401938184015501610469565b610590908460005285846000209182019101612129565b8761045b565b015190508480610390565b6003830160005260206000209060005b601f19841681106105f75750600193949583601f198116106105de575b505050811b0160038201556103a8565b015160001960f88460031b161c191690558480806105ce565b9091602060018192858a0151815501930191016105b1565b61063f90600384016000526020600020601f840160051c81019160208510610645575b601f0160051c0190612129565b84610376565b9091508190610632565b015190508480610332565b6002840160005260206000209060005b601f19841681106106b05750600193949583601f19811610610697575b505050811b01600283015561034a565b015160001960f88460031b161c19169055848080610687565b9091602060018192858a01518155019301910161066a565b6106f790600285016000526020600020601f840160051c8101916020851061064557601f0160051c0190612129565b84610318565b34610124576020366003190112610124576004356000526000602052600560406000200154806000526040600020610753610746600361073f60028501611e03565b9301611e03565b92604051938493846120bb565b0390f35b3461012457602080600319360112610124576004359081600052600081526009806040600020015491610789836121b2565b9360005b8481106107a257604051806107538882611f33565b6108e59082600052600084526107be818660406000200161214f565b9054600391821b1c6000526108c4600e60019283885261080d604060002091604051956107ea87611dab565b835487528301548a87015261080160028401611e03565b60408701528201611e03565b606085015261081e60048201611e03565b608085015261082f60058201611e03565b60a085015260ff60068201541660c085015261084d60078201611e03565b60e085015263ffffffff60088201541661010085015261086e898201611e03565b6101208501526001600160401b03600a82015416610140850152610894600b8201611e03565b6101608501526108a6600c8201611e03565b6101808501526108b8600d8201611e03565b6101a08501520161227d565b6101c08201526108d48289612269565b526108df8188612269565b50612140565b61078d565b346101245760208060031936011261012457600435908160005260008152600b80604060002001549161091c836121b2565b9360005b84811061093557604051806107538882611f33565b610a04908260005260008452610951818660406000200161214f565b9054600391821b1c6000526108c4600e60019283885261097d604060002091604051956107ea87611dab565b606085015261098e60048201611e03565b608085015261099f60058201611e03565b60a085015260ff60068201541660c08501526109bd60078201611e03565b60e085015263ffffffff6008820154166101008501526109df60098201611e03565b6101208501526001600160401b03600a82015416610140850152610894898201611e03565b610920565b34610124576020366003190112610124576004356000526000602052600760406000200154806000526040600020610753610746600361073f60028501611e03565b3461012457602080600319360112610124576001600160401b0360043581811161012457610a7d903690600401611ea9565b916040519083519281850193610a94818587611d29565b8301928281600295868152030190205493610aae856121b2565b9560005b868110610ac757604051806107538a82611f33565b80610aef610bcd9260405188818751610ae181838c611d29565b81018c81520301902061214f565b9054600391821b1c600052610bb2600e600192838a52610b3160406000209160405195610b1b87611dab565b835487528301548c8701526108018d8401611e03565b6060850152610b4260048201611e03565b6080850152610b5360058201611e03565b60a085015260ff60068201541660c0850152610b7160078201611e03565b60e085015263ffffffff600882015416610100850152610b9360098201611e03565b61012085015288600a82015416610140850152610894600b8201611e03565b6101c0820152610bc2828b612269565b526108df818a612269565b610ab2565b346101245760203660031901126101245760043560005260016020526040600020805460018201549160028101610c0890611e03565b90610c1560038201611e03565b610c2160048301611e03565b610c2d60058401611e03565b600684015460ff16610c4160078601611e03565b600886015463ffffffff1691610c5960098801611e03565b93600a8801546001600160401b031695600b8901610c7690611e03565b97610c83600c8b01611e03565b99600d01610c9090611e03565b9a6040519d8e809e8152602001528c6101c06040819201528d01610cb391611d4c565b8c810360608e0152610cc491611d4c565b8b810360808d0152610cd591611d4c565b8a810360a08c0152610ce691611d4c565b9060c08a015288810360e08a0152610cfd91611d4c565b90610100880152868103610120880152610d1691611d4c565b90610140860152848103610160860152610d2f91611d4c565b838103610180850152610d4191611d4c565b8281036101a084015261075391611d4c565b34610124576020366003190112610124576004356000526001602052610753610d82600e60406000200161227d565b604051918291602083526020830190611eff565b34610124576101c0366003190112610124576024356001600160401b03811161012457610dc7903690600401611ea9565b6044356001600160401b03811161012457610de6903690600401611ea9565b6064356001600160401b03811161012457610e05903690600401611ea9565b6084356001600160401b03811161012457610e24903690600401611ea9565b9060a4359160ff831683036101245760c4356001600160401b03811161012457610e52903690600401611ea9565b9260e43563ffffffff8116810361012457610104356001600160401b03811161012457610e83903690600401611ea9565b61012435916001600160401b0383168303610124576001600160401b03610144351161012457610eb93661014435600401611ea9565b96610164356001600160401b03811161012457610eda903690600401611ea9565b94610184356001600160401b03811161012457610efb903690600401611ea9565b966101a4356001600160401b03811161012457610f1c903690600401611ea9565b98600354610f2990612140565b806003556040519b610f3a8d611dc7565b60008d526040518181809351602081930191610f5592611d29565b81016002815203602001902090610f6b9161217d565b6004356000526000602052604060002060ff1960088201541660011760088201556003549060090190610f9d9161217d565b6003549b8c6040519e8f91610fb183611dab565b8252600435602083015260408201526060015260808d015260a08c015260ff1660c08b015260e08a015263ffffffff166101008901526101208801526001600160401b03166101408701526101608601526101808501526101a08401526101c08301526000526001602052604060002090805182556020810151600183015560408101519182516001600160401b03811161054f576110536002830154611d71565b601f8111611a3c575b506020601f82116001146119ce57819293946000926119c3575b50508160011b916000199060031b1c19161760028201555b60608201519182516001600160401b03811161054f576110b16003840154611d71565b601f811161198e575b506020601f82116001146119205781929394600092611915575b50508160011b916000199060031b1c19161760038301555b60808101519182516001600160401b03811161054f5761110f6004830154611d71565b601f81116118e0575b506020601f82116001146118725781929394600092611867575b50508160011b916000199060031b1c19161760048201555b60a08201519182516001600160401b03811161054f5761116d6005840154611d71565b601f8111611832575b506020601f82116001146117c457819293946000926117b9575b50508160011b916000199060031b1c19161760058301555b6006820160ff60c08301511660ff1982541617905560e08101519182516001600160401b03811161054f576111e06007830154611d71565b601f8111611784575b506020601f8211600114611716578192939460009261170b575b50508160011b916000199060031b1c19161760078201555b6008810163ffffffff6101008401511663ffffffff198254161790556101208201519182516001600160401b03811161054f5761125b6009840154611d71565b601f81116116d6575b506020601f8211600114611668578192939460009261165d575b50508160011b916000199060031b1c19161760098301555b600a82016001600160401b03610140830151166001600160401b03198254161790556101608101519182516001600160401b03811161054f576112dc600b830154611d71565b601f8111611628575b506020601f82116001146115ba57819293946000926115af575b50508160011b916000199060031b1c191617600b8201555b6101808201519182516001600160401b03811161054f5761133b600c840154611d71565b601f811161157a575b506020601f821160011461150c5781929394600092611501575b50508160011b916000199060031b1c191617600c8301555b600d8201916101a08201519283516001600160401b03811161054f5761139c8254611d71565b601f81116114cf575b506020601f8211600114611460579080600e9493926101c09697600092611455575b50508160011b916000199060031b1c19161790555b019101518051906001600160401b03821161054f57600160401b821161054f576020908354838555808410611438575b50019160005260206000209160005b82811061142457005b60019060208351930192818601550161141b565b61144f908560005284846000209182019101612129565b8461140c565b0151905087806113c7565b601f198216958360005260206000209660005b8181106114b75750966001928492600e9796956101c0999a1061149e575b505050811b0190556113dc565b015160001960f88460031b161c19169055878080611491565b83830151895560019098019760209384019301611473565b6114fb90836000526020600020601f840160051c8101916020851061064557601f0160051c0190612129565b856113a5565b01519050848061135e565b600c840160005260206000209060005b601f19841681106115625750600193949583601f19811610611549575b505050811b01600c830155611376565b015160001960f88460031b161c19169055848080611539565b9091602060018192858a01518155019301910161151c565b6115a990600c85016000526020600020601f840160051c8101916020851061064557601f0160051c0190612129565b84611344565b0151905084806112ff565b600b830160005260206000209060005b601f19841681106116105750600193949583601f198116106115f7575b505050811b01600b820155611317565b015160001960f88460031b161c191690558480806115e7565b9091602060018192858a0151815501930191016115ca565b61165790600b84016000526020600020601f840160051c8101916020851061064557601f0160051c0190612129565b846112e5565b01519050848061127e565b6009840160005260206000209060005b601f19841681106116be5750600193949583601f198116106116a5575b505050811b016009830155611296565b015160001960f88460031b161c19169055848080611695565b9091602060018192858a015181550193019101611678565b61170590600985016000526020600020601f840160051c8101916020851061064557601f0160051c0190612129565b84611264565b015190508480611203565b6007830160005260206000209060005b601f198416811061176c5750600193949583601f19811610611753575b505050811b01600782015561121b565b015160001960f88460031b161c19169055848080611743565b9091602060018192858a015181550193019101611726565b6117b390600784016000526020600020601f840160051c8101916020851061064557601f0160051c0190612129565b846111e9565b015190508480611190565b6005840160005260206000209060005b601f198416811061181a5750600193949583601f19811610611801575b505050811b0160058301556111a8565b015160001960f88460031b161c191690558480806117f1565b9091602060018192858a0151815501930191016117d4565b61186190600585016000526020600020601f840160051c8101916020851061064557601f0160051c0190612129565b84611176565b015190508480611132565b6004830160005260206000209060005b601f19841681106118c85750600193949583601f198116106118af575b505050811b01600482015561114a565b015160001960f88460031b161c1916905584808061189f565b9091602060018192858a015181550193019101611882565b61190f90600484016000526020600020601f840160051c8101916020851061064557601f0160051c0190612129565b84611118565b0151905084806110d4565b6003840160005260206000209060005b601f19841681106119765750600193949583601f1981161061195d575b505050811b0160038301556110ec565b015160001960f88460031b161c1916905584808061194d565b9091602060018192858a015181550193019101611930565b6119bd90600385016000526020600020601f840160051c8101916020851061064557601f0160051c0190612129565b846110ba565b015190508480611076565b6002830160005260206000209060005b601f1984168110611a245750600193949583601f19811610611a0b575b505050811b01600282015561108e565b015160001960f88460031b161c191690558480806119fb565b9091602060018192858a0151815501930191016119de565b611a6b90600284016000526020600020601f840160051c8101916020851061064557601f0160051c0190612129565b8461105c565b34610124576020366003190112610124576004356000526000602052602060ff600a60406000200154166040519015158152f35b3461012457602036600319011261012457600435600052600060205260206001600160401b0360016040600020015416604051908152f35b3461012457604036600319011261012457600435602435806000526001602052604060002060ff600682015416611b1057005b82600e611b1d920161217d565b80600052600160205260066040600020019182549060ff8216908115611b7957611b7794600b9360ff9384199485916000190116911617905560005260006020526040600020906001600a8301918254161790550161217d565b005b634e487b7160e01b600052601160045260246000fd5b34610124576020366003190112610124576004356000526000602052604060002080546001600160401b0360018301541691611bcd60028201611e03565b611bd960038301611e03565b91600481015492600582015460ff6006840154169060ff611c39600786015494611c2b83600a8160088b01541699015416986040519c8d9c8d5260208d015260408c61016091829101528c0190611d4c565b908a820360608c0152611d4c565b9681811660808a015260081c16151560a088015260c0870152151560e0860152610100850152151561012084015215156101408301520390f35b34610124576020366003190112610124576004356000526000602052610753611ca26003604060002001611e03565b604051918291602083526020830190611d4c565b34610124576020366003190112610124576004356000526000602052610753611ca26002604060002001611e03565b3461012457602036600319011261012457602090600060043560005260008352600160ff60066040600020015416151514611d21575b15158152f35b506001611d1b565b60005b838110611d3c5750506000910152565b8181015183820152602001611d2c565b90602091611d6581518092818552858086019101611d29565b601f01601f1916010190565b90600182811c92168015611da1575b6020831014611d8b57565b634e487b7160e01b600052602260045260246000fd5b91607f1691611d80565b6101e081019081106001600160401b0382111761054f57604052565b602081019081106001600160401b0382111761054f57604052565b90601f801991011681019081106001600160401b0382111761054f57604052565b9060405191826000825492611e1784611d71565b908184526001948581169081600014611e865750600114611e43575b5050611e4192500383611de2565b565b9093915060005260209081600020936000915b818310611e6e575050611e4193508201013880611e33565b85548884018501529485019487945091830191611e56565b915050611e4194506020925060ff191682840152151560051b8201013880611e33565b81601f82011215610124578035906001600160401b03821161054f5760405192611edd601f8401601f191660200185611de2565b8284526020838301011161012457816000926020809301838601378301015290565b90815180825260208080930193019160005b828110611f1f575050505090565b835185529381019392810192600101611f11565b602080820190808352835180925260409283810182858560051b8401019601946000925b858410611f68575050505050505090565b9091929394959685806120aa838661209661208261206e8f612021612001611fee8f611fc88f9560019f92611fdb9361204698603f19910301905251998a518c528d808c0151908d0152808b0151908c6101e091829101528c0190611d4c565b6060808b0151908c8303908d0152611d4c565b6080808a0151908b8303908c0152611d4c565b60a080890151908a8303908b0152611d4c565b60c060ff81890151169089015260e08088015190898303908a0152611d4c565b61010063ffffffff818801511690880152610120808701519088830390890152611d4c565b6101406001600160401b03818701511690870152610160808601519087830390880152611d4c565b610180808501519086830390870152611d4c565b6101a0808401519085830390860152611d4c565b916101c08092015191818403910152611eff565b990194019401929594939190611f57565b9392916120e4906120d6604093606088526060880190611d4c565b908682036020880152611d4c565b930152565b6000526000602052600160ff60046040600020015416141560001461210d57600090565b600190565b6001600160401b03811161054f5760051b60200190565b818110612134575050565b60008155600101612129565b6000198114611b795760010190565b80548210156121675760005260206000200190600090565b634e487b7160e01b600052603260045260246000fd5b8054600160401b81101561054f5761219a9160018201815561214f565b819291549060031b91821b91600019901b1916179055565b906121bc82612112565b6040906121cb82519182611de2565b83815280936121dc601f1991612112565b019160005b8381106121ee5750505050565b60209082516121fc81611dab565b60008152826000818301526060808684015280808401528060808401528060a0840152600060c08401528060e084015260006101008401528061012084015260006101408401528061016084015280610180840152806101a08401526101c08301528286010152016121e1565b80518210156121675760209160051b010190565b9060405191828154918282526020928383019160005283600020936000905b8282106122b257505050611e4192500383611de2565b85548452600195860195889550938101939091019061229c56fea26469706673582212201983dd88406fbbb8fafc8f58ad18696168f3868719915331f17bb4e696fa407664736f6c63430008120033","opcodes":"PUSH1 0x80 DUP1 PUSH1 0x40 MSTORE CALLVALUE PUSH2 0x16 JUMPI PUSH2 0x2302 SWAP1 DUP2 PUSH2 0x1C DUP3 CODECOPY RETURN JUMPDEST PUSH1 0x0 DUP1 REVERT INVALID PUSH1 0x80 DUP1 PUSH1 0x40 MSTORE PUSH1 0x4 CALLDATASIZE LT ISZERO PUSH2 0x13 JUMPI PUSH1 0x0 DUP1 REVERT JUMPDEST PUSH1 0x0 CALLDATALOAD PUSH1 0xE0 SHR SWAP1 DUP2 PUSH4 0x5DB4BBC EQ PUSH2 0x1CE5 JUMPI POP DUP1 PUSH4 0x172A56C1 EQ PUSH2 0x1CB6 JUMPI DUP1 PUSH4 0x174029F6 EQ PUSH2 0x1C73 JUMPI DUP1 PUSH4 0x1E98FD1C EQ PUSH2 0x1B8F JUMPI DUP1 PUSH4 0x2D452ED6 EQ PUSH2 0x1ADD JUMPI DUP1 PUSH4 0x2E7D44B5 EQ PUSH2 0x1AA5 JUMPI DUP1 PUSH4 0x40F38553 EQ PUSH2 0x1A71 JUMPI DUP1 PUSH4 0x41DAEF4E EQ PUSH2 0xD96 JUMPI DUP1 PUSH4 0x55A6F86F EQ PUSH2 0xD53 JUMPI DUP1 PUSH4 0x9CF242FB EQ PUSH2 0xBD2 JUMPI DUP1 PUSH4 0xA6A37C6C EQ PUSH2 0xA4B JUMPI DUP1 PUSH4 0xAC785E39 EQ PUSH2 0xA09 JUMPI DUP1 PUSH4 0xB382C756 EQ PUSH2 0x8EA JUMPI DUP1 PUSH4 0xB41BEC5C EQ PUSH2 0x757 JUMPI DUP1 PUSH4 0xC3A83344 EQ PUSH2 0x6FD JUMPI DUP1 PUSH4 0xC4AA95F0 EQ PUSH2 0x19D JUMPI DUP1 PUSH4 0xD014921F EQ PUSH2 0x151 JUMPI DUP1 PUSH4 0xE0A58EE1 EQ PUSH2 0x129 JUMPI PUSH4 0xFA03B7E5 EQ PUSH2 0xF0 JUMPI PUSH1 0x0 DUP1 REVERT JUMPDEST CALLVALUE PUSH2 0x124 JUMPI PUSH1 0x20 CALLDATASIZE PUSH1 0x3 NOT ADD SLT PUSH2 0x124 JUMPI PUSH1 0x4 CALLDATALOAD PUSH1 0x0 MSTORE PUSH1 0x0 PUSH1 0x20 MSTORE PUSH1 0x20 PUSH1 0xFF PUSH1 0x8 PUSH1 0x40 PUSH1 0x0 KECCAK256 ADD SLOAD AND PUSH1 0x40 MLOAD SWAP1 ISZERO ISZERO DUP2 MSTORE RETURN JUMPDEST PUSH1 0x0 DUP1 REVERT JUMPDEST CALLVALUE PUSH2 0x124 JUMPI PUSH1 0x20 CALLDATASIZE PUSH1 0x3 NOT ADD SLT PUSH2 0x124 JUMPI PUSH1 0x20 PUSH2 0x147 PUSH1 0x4 CALLDATALOAD PUSH2 0x20E9 JUMP JUMPDEST PUSH1 0x40 MLOAD SWAP1 ISZERO ISZERO DUP2 MSTORE RETURN JUMPDEST CALLVALUE PUSH2 0x124 JUMPI PUSH1 0x20 CALLDATASIZE PUSH1 0x3 NOT ADD SLT PUSH2 0x124 JUMPI PUSH1 0x0 PUSH1 0x4 CALLDATALOAD PUSH1 0x0 MSTORE PUSH1 0x0 PUSH1 0x20 MSTORE PUSH1 0x1 PUSH1 0xFF PUSH1 0x4 PUSH1 0x40 PUSH1 0x0 KECCAK256 ADD SLOAD PUSH1 0x8 SHR AND ISZERO ISZERO EQ PUSH2 0x195 JUMPI JUMPDEST PUSH1 0x20 SWAP1 PUSH1 0x40 MLOAD SWAP1 ISZERO ISZERO DUP2 MSTORE RETURN JUMPDEST POP PUSH1 0x1 PUSH2 0x188 JUMP JUMPDEST CALLVALUE PUSH2 0x124 JUMPI PUSH1 0xC0 CALLDATASIZE PUSH1 0x3 NOT ADD SLT PUSH2 0x124 JUMPI PUSH1 0x24 CALLDATALOAD PUSH1 0x1 PUSH1 0x1 PUSH1 0x40 SHL SUB DUP2 GT PUSH2 0x124 JUMPI PUSH2 0x1CD SWAP1 CALLDATASIZE SWAP1 PUSH1 0x4 ADD PUSH2 0x1EA9 JUMP JUMPDEST PUSH1 0x44 CALLDATALOAD PUSH1 0x1 PUSH1 0x1 PUSH1 0x40 SHL SUB DUP2 GT PUSH2 0x124 JUMPI PUSH2 0x1EC SWAP1 CALLDATASIZE SWAP1 PUSH1 0x4 ADD PUSH2 0x1EA9 JUMP JUMPDEST SWAP1 PUSH1 0x64 CALLDATALOAD SWAP2 PUSH1 0x1 PUSH1 0x1 PUSH1 0x40 SHL SUB DUP4 AND DUP4 SUB PUSH2 0x124 JUMPI PUSH1 0x84 CALLDATALOAD ISZERO ISZERO PUSH1 0x84 CALLDATALOAD SUB PUSH2 0x124 JUMPI PUSH1 0x40 MLOAD SWAP1 PUSH2 0x21B DUP3 PUSH2 0x1DC7 JUMP JUMPDEST PUSH1 0x0 DUP3 MSTORE PUSH1 0x40 MLOAD SWAP3 PUSH2 0x22C DUP5 PUSH2 0x1DC7 JUMP JUMPDEST PUSH1 0x0 DUP5 MSTORE PUSH1 0x40 MLOAD SWAP5 DUP6 PUSH2 0x1A0 DUP2 ADD LT PUSH1 0x1 PUSH1 0x1 PUSH1 0x40 SHL SUB PUSH2 0x1A0 DUP9 ADD GT OR PUSH2 0x54F JUMPI PUSH1 0x1 PUSH1 0x1 PUSH1 0x40 SHL SUB SWAP1 PUSH2 0x1A0 DUP8 ADD PUSH1 0x40 MSTORE PUSH1 0x4 CALLDATALOAD DUP8 MSTORE AND PUSH1 0x20 DUP7 ADD MSTORE PUSH1 0x40 DUP6 ADD MSTORE PUSH1 0x60 DUP5 ADD MSTORE PUSH1 0x1 PUSH1 0x80 DUP5 ADD MSTORE PUSH1 0x84 CALLDATALOAD ISZERO ISZERO PUSH1 0xA0 DUP5 ADD MSTORE PUSH1 0x0 PUSH1 0xC0 DUP5 ADD MSTORE PUSH1 0x0 PUSH1 0xE0 DUP5 ADD MSTORE PUSH1 0x0 PUSH2 0x100 DUP5 ADD MSTORE PUSH1 0x0 PUSH2 0x120 DUP5 ADD MSTORE PUSH2 0x140 DUP4 ADD MSTORE PUSH1 0x0 PUSH2 0x160 DUP4 ADD MSTORE PUSH2 0x180 DUP3 ADD MSTORE PUSH1 0x4 CALLDATALOAD PUSH1 0x0 MSTORE PUSH1 0x0 PUSH1 0x20 MSTORE PUSH1 0x40 PUSH1 0x0 KECCAK256 DUP2 MLOAD DUP2 SSTORE PUSH1 0x1 DUP2 ADD PUSH1 0x1 PUSH1 0x1 PUSH1 0x40 SHL SUB PUSH1 0x20 DUP5 ADD MLOAD AND PUSH1 0x1 PUSH1 0x1 PUSH1 0x40 SHL SUB NOT DUP3 SLOAD AND OR SWAP1 SSTORE PUSH1 0x40 DUP3 ADD MLOAD SWAP2 DUP3 MLOAD PUSH1 0x1 PUSH1 0x1 PUSH1 0x40 SHL SUB DUP2 GT PUSH2 0x54F JUMPI PUSH2 0x30F PUSH1 0x2 DUP5 ADD SLOAD PUSH2 0x1D71 JUMP JUMPDEST PUSH1 0x1F DUP2 GT PUSH2 0x6C8 JUMPI JUMPDEST POP PUSH1 0x20 PUSH1 0x1F DUP3 GT PUSH1 0x1 EQ PUSH2 0x65A JUMPI DUP2 SWAP3 SWAP4 SWAP5 PUSH1 0x0 SWAP3 PUSH2 0x64F JUMPI JUMPDEST POP POP DUP2 PUSH1 0x1 SHL SWAP2 PUSH1 0x0 NOT SWAP1 PUSH1 0x3 SHL SHR NOT AND OR PUSH1 0x2 DUP4 ADD SSTORE JUMPDEST PUSH1 0x60 DUP2 ADD MLOAD SWAP2 DUP3 MLOAD PUSH1 0x1 PUSH1 0x1 PUSH1 0x40 SHL SUB DUP2 GT PUSH2 0x54F JUMPI PUSH2 0x36D PUSH1 0x3 DUP4 ADD SLOAD PUSH2 0x1D71 JUMP JUMPDEST PUSH1 0x1F DUP2 GT PUSH2 0x60F JUMPI JUMPDEST POP PUSH1 0x20 PUSH1 0x1F DUP3 GT PUSH1 0x1 EQ PUSH2 0x5A1 JUMPI DUP2 SWAP3 SWAP4 SWAP5 PUSH1 0x0 SWAP3 PUSH2 0x596 JUMPI JUMPDEST POP POP DUP2 PUSH1 0x1 SHL SWAP2 PUSH1 0x0 NOT SWAP1 PUSH1 0x3 SHL SHR NOT AND OR PUSH1 0x3 DUP3 ADD SSTORE JUMPDEST PUSH1 0x4 DUP2 ADD PUSH1 0xFF PUSH1 0x80 DUP5 ADD MLOAD AND DUP2 SLOAD SWAP1 PUSH2 0xFF00 PUSH1 0xA0 DUP7 ADD MLOAD ISZERO ISZERO PUSH1 0x8 SHL AND SWAP2 PUSH2 0xFFFF NOT AND OR OR SWAP1 SSTORE PUSH1 0xC0 DUP3 ADD MLOAD PUSH1 0x5 DUP3 ADD SSTORE PUSH2 0x3F8 PUSH1 0xE0 DUP4 ADD MLOAD ISZERO ISZERO PUSH1 0x6 DUP4 ADD SWAP1 PUSH1 0xFF DUP1 NOT DUP4 SLOAD AND SWAP2 ISZERO ISZERO AND OR SWAP1 SSTORE JUMP JUMPDEST PUSH2 0x100 DUP3 ADD MLOAD PUSH1 0x7 DUP3 ADD SSTORE PUSH2 0x423 PUSH2 0x120 DUP4 ADD MLOAD ISZERO ISZERO PUSH1 0x8 DUP4 ADD SWAP1 PUSH1 0xFF DUP1 NOT DUP4 SLOAD AND SWAP2 ISZERO ISZERO AND OR SWAP1 SSTORE JUMP JUMPDEST PUSH2 0x140 DUP3 ADD MLOAD SWAP1 DUP2 MLOAD PUSH1 0x1 PUSH1 0x1 PUSH1 0x40 SHL SUB DUP2 GT PUSH2 0x54F JUMPI PUSH1 0x1 PUSH1 0x40 SHL SWAP3 DUP4 DUP3 GT PUSH2 0x54F JUMPI PUSH1 0x20 PUSH1 0x9 DUP5 ADD SWAP2 DUP3 SLOAD DUP5 DUP5 SSTORE DUP1 DUP6 LT PUSH2 0x579 JUMPI JUMPDEST POP ADD SWAP1 PUSH1 0x0 MSTORE PUSH1 0x20 PUSH1 0x0 KECCAK256 PUSH1 0x0 JUMPDEST DUP4 DUP2 LT PUSH2 0x565 JUMPI DUP7 DUP7 PUSH2 0x180 PUSH1 0xB DUP9 PUSH2 0x498 PUSH2 0x160 DUP7 ADD MLOAD ISZERO ISZERO PUSH1 0xA DUP4 ADD SWAP1 PUSH1 0xFF DUP1 NOT DUP4 SLOAD AND SWAP2 ISZERO ISZERO AND OR SWAP1 SSTORE JUMP JUMPDEST ADD SWAP3 ADD MLOAD DUP1 MLOAD SWAP2 PUSH1 0x1 PUSH1 0x1 PUSH1 0x40 SHL SUB DUP4 GT PUSH2 0x54F JUMPI DUP3 GT PUSH2 0x54F JUMPI PUSH1 0x20 SWAP1 DUP4 SLOAD DUP4 DUP6 SSTORE DUP1 DUP5 LT PUSH2 0x532 JUMPI JUMPDEST POP ADD SWAP2 PUSH1 0x0 MSTORE PUSH1 0x20 PUSH1 0x0 KECCAK256 SWAP2 PUSH1 0x0 JUMPDEST DUP3 DUP2 LT PUSH2 0x51E JUMPI PUSH1 0x84 CALLDATALOAD PUSH2 0x4E2 JUMPI STOP JUMPDEST PUSH1 0x4 CALLDATALOAD PUSH1 0x0 MSTORE PUSH1 0x0 PUSH1 0x20 MSTORE PUSH1 0xA4 CALLDATALOAD DUP1 PUSH1 0x5 PUSH1 0x40 PUSH1 0x0 KECCAK256 ADD SSTORE PUSH1 0x0 MSTORE PUSH1 0x40 PUSH1 0x0 KECCAK256 PUSH1 0x6 DUP2 ADD PUSH1 0x1 PUSH1 0xFF NOT DUP3 SLOAD AND OR SWAP1 SSTORE PUSH1 0x7 PUSH1 0x4 CALLDATALOAD SWAP2 ADD SSTORE PUSH1 0x0 DUP1 RETURN JUMPDEST PUSH1 0x1 SWAP1 PUSH1 0x20 DUP4 MLOAD SWAP4 ADD SWAP3 DUP2 DUP7 ADD SSTORE ADD PUSH2 0x4D2 JUMP JUMPDEST PUSH2 0x549 SWAP1 DUP6 PUSH1 0x0 MSTORE DUP5 DUP5 PUSH1 0x0 KECCAK256 SWAP2 DUP3 ADD SWAP2 ADD PUSH2 0x2129 JUMP JUMPDEST DUP5 PUSH2 0x4C3 JUMP JUMPDEST PUSH4 0x4E487B71 PUSH1 0xE0 SHL PUSH1 0x0 MSTORE PUSH1 0x41 PUSH1 0x4 MSTORE PUSH1 0x24 PUSH1 0x0 REVERT JUMPDEST PUSH1 0x1 SWAP1 PUSH1 0x20 DUP5 MLOAD SWAP5 ADD SWAP4 DUP2 DUP5 ADD SSTORE ADD PUSH2 0x469 JUMP JUMPDEST PUSH2 0x590 SWAP1 DUP5 PUSH1 0x0 MSTORE DUP6 DUP5 PUSH1 0x0 KECCAK256 SWAP2 DUP3 ADD SWAP2 ADD PUSH2 0x2129 JUMP JUMPDEST DUP8 PUSH2 0x45B JUMP JUMPDEST ADD MLOAD SWAP1 POP DUP5 DUP1 PUSH2 0x390 JUMP JUMPDEST PUSH1 0x3 DUP4 ADD PUSH1 0x0 MSTORE PUSH1 0x20 PUSH1 0x0 KECCAK256 SWAP1 PUSH1 0x0 JUMPDEST PUSH1 0x1F NOT DUP5 AND DUP2 LT PUSH2 0x5F7 JUMPI POP PUSH1 0x1 SWAP4 SWAP5 SWAP6 DUP4 PUSH1 0x1F NOT DUP2 AND LT PUSH2 0x5DE JUMPI JUMPDEST POP POP POP DUP2 SHL ADD PUSH1 0x3 DUP3 ADD SSTORE PUSH2 0x3A8 JUMP JUMPDEST ADD MLOAD PUSH1 0x0 NOT PUSH1 0xF8 DUP5 PUSH1 0x3 SHL AND SHR NOT AND SWAP1 SSTORE DUP5 DUP1 DUP1 PUSH2 0x5CE JUMP JUMPDEST SWAP1 SWAP2 PUSH1 0x20 PUSH1 0x1 DUP2 SWAP3 DUP6 DUP11 ADD MLOAD DUP2 SSTORE ADD SWAP4 ADD SWAP2 ADD PUSH2 0x5B1 JUMP JUMPDEST PUSH2 0x63F SWAP1 PUSH1 0x3 DUP5 ADD PUSH1 0x0 MSTORE PUSH1 0x20 PUSH1 0x0 KECCAK256 PUSH1 0x1F DUP5 ADD PUSH1 0x5 SHR DUP2 ADD SWAP2 PUSH1 0x20 DUP6 LT PUSH2 0x645 JUMPI JUMPDEST PUSH1 0x1F ADD PUSH1 0x5 SHR ADD SWAP1 PUSH2 0x2129 JUMP JUMPDEST DUP5 PUSH2 0x376 JUMP JUMPDEST SWAP1 SWAP2 POP DUP2 SWAP1 PUSH2 0x632 JUMP JUMPDEST ADD MLOAD SWAP1 POP DUP5 DUP1 PUSH2 0x332 JUMP JUMPDEST PUSH1 0x2 DUP5 ADD PUSH1 0x0 MSTORE PUSH1 0x20 PUSH1 0x0 KECCAK256 SWAP1 PUSH1 0x0 JUMPDEST PUSH1 0x1F NOT DUP5 AND DUP2 LT PUSH2 0x6B0 JUMPI POP PUSH1 0x1 SWAP4 SWAP5 SWAP6 DUP4 PUSH1 0x1F NOT DUP2 AND LT PUSH2 0x697 JUMPI JUMPDEST POP POP POP DUP2 SHL ADD PUSH1 0x2 DUP4 ADD SSTORE PUSH2 0x34A JUMP JUMPDEST ADD MLOAD PUSH1 0x0 NOT PUSH1 0xF8 DUP5 PUSH1 0x3 SHL AND SHR NOT AND SWAP1 SSTORE DUP5 DUP1 DUP1 PUSH2 0x687 JUMP JUMPDEST SWAP1 SWAP2 PUSH1 0x20 PUSH1 0x1 DUP2 SWAP3 DUP6 DUP11 ADD MLOAD DUP2 SSTORE ADD SWAP4 ADD SWAP2 ADD PUSH2 0x66A JUMP JUMPDEST PUSH2 0x6F7 SWAP1 PUSH1 0x2 DUP6 ADD PUSH1 0x0 MSTORE PUSH1 0x20 PUSH1 0x0 KECCAK256 PUSH1 0x1F DUP5 ADD PUSH1 0x5 SHR DUP2 ADD SWAP2 PUSH1 0x20 DUP6 LT PUSH2 0x645 JUMPI PUSH1 0x1F ADD PUSH1 0x5 SHR ADD SWAP1 PUSH2 0x2129 JUMP JUMPDEST DUP5 PUSH2 0x318 JUMP JUMPDEST CALLVALUE PUSH2 0x124 JUMPI PUSH1 0x20 CALLDATASIZE PUSH1 0x3 NOT ADD SLT PUSH2 0x124 JUMPI PUSH1 0x4 CALLDATALOAD PUSH1 0x0 MSTORE PUSH1 0x0 PUSH1 0x20 MSTORE PUSH1 0x5 PUSH1 0x40 PUSH1 0x0 KECCAK256 ADD SLOAD DUP1 PUSH1 0x0 MSTORE PUSH1 0x40 PUSH1 0x0 KECCAK256 PUSH2 0x753 PUSH2 0x746 PUSH1 0x3 PUSH2 0x73F PUSH1 0x2 DUP6 ADD PUSH2 0x1E03 JUMP JUMPDEST SWAP4 ADD PUSH2 0x1E03 JUMP JUMPDEST SWAP3 PUSH1 0x40 MLOAD SWAP4 DUP5 SWAP4 DUP5 PUSH2 0x20BB JUMP JUMPDEST SUB SWAP1 RETURN JUMPDEST CALLVALUE PUSH2 0x124 JUMPI PUSH1 0x20 DUP1 PUSH1 0x3 NOT CALLDATASIZE ADD SLT PUSH2 0x124 JUMPI PUSH1 0x4 CALLDATALOAD SWAP1 DUP2 PUSH1 0x0 MSTORE PUSH1 0x0 DUP2 MSTORE PUSH1 0x9 DUP1 PUSH1 0x40 PUSH1 0x0 KECCAK256 ADD SLOAD SWAP2 PUSH2 0x789 DUP4 PUSH2 0x21B2 JUMP JUMPDEST SWAP4 PUSH1 0x0 JUMPDEST DUP5 DUP2 LT PUSH2 0x7A2 JUMPI PUSH1 0x40 MLOAD DUP1 PUSH2 0x753 DUP9 DUP3 PUSH2 0x1F33 JUMP JUMPDEST PUSH2 0x8E5 SWAP1 DUP3 PUSH1 0x0 MSTORE PUSH1 0x0 DUP5 MSTORE PUSH2 0x7BE DUP2 DUP7 PUSH1 0x40 PUSH1 0x0 KECCAK256 ADD PUSH2 0x214F JUMP JUMPDEST SWAP1 SLOAD PUSH1 0x3 SWAP2 DUP3 SHL SHR PUSH1 0x0 MSTORE PUSH2 0x8C4 PUSH1 0xE PUSH1 0x1 SWAP3 DUP4 DUP9 MSTORE PUSH2 0x80D PUSH1 0x40 PUSH1 0x0 KECCAK256 SWAP2 PUSH1 0x40 MLOAD SWAP6 PUSH2 0x7EA DUP8 PUSH2 0x1DAB JUMP JUMPDEST DUP4 SLOAD DUP8 MSTORE DUP4 ADD SLOAD DUP11 DUP8 ADD MSTORE PUSH2 0x801 PUSH1 0x2 DUP5 ADD PUSH2 0x1E03 JUMP JUMPDEST PUSH1 0x40 DUP8 ADD MSTORE DUP3 ADD PUSH2 0x1E03 JUMP JUMPDEST PUSH1 0x60 DUP6 ADD MSTORE PUSH2 0x81E PUSH1 0x4 DUP3 ADD PUSH2 0x1E03 JUMP JUMPDEST PUSH1 0x80 DUP6 ADD MSTORE PUSH2 0x82F PUSH1 0x5 DUP3 ADD PUSH2 0x1E03 JUMP JUMPDEST PUSH1 0xA0 DUP6 ADD MSTORE PUSH1 0xFF PUSH1 0x6 DUP3 ADD SLOAD AND PUSH1 0xC0 DUP6 ADD MSTORE PUSH2 0x84D PUSH1 0x7 DUP3 ADD PUSH2 0x1E03 JUMP JUMPDEST PUSH1 0xE0 DUP6 ADD MSTORE PUSH4 0xFFFFFFFF PUSH1 0x8 DUP3 ADD SLOAD AND PUSH2 0x100 DUP6 ADD MSTORE PUSH2 0x86E DUP10 DUP3 ADD PUSH2 0x1E03 JUMP JUMPDEST PUSH2 0x120 DUP6 ADD MSTORE PUSH1 0x1 PUSH1 0x1 PUSH1 0x40 SHL SUB PUSH1 0xA DUP3 ADD SLOAD AND PUSH2 0x140 DUP6 ADD MSTORE PUSH2 0x894 PUSH1 0xB DUP3 ADD PUSH2 0x1E03 JUMP JUMPDEST PUSH2 0x160 DUP6 ADD MSTORE PUSH2 0x8A6 PUSH1 0xC DUP3 ADD PUSH2 0x1E03 JUMP JUMPDEST PUSH2 0x180 DUP6 ADD MSTORE PUSH2 0x8B8 PUSH1 0xD DUP3 ADD PUSH2 0x1E03 JUMP JUMPDEST PUSH2 0x1A0 DUP6 ADD MSTORE ADD PUSH2 0x227D JUMP JUMPDEST PUSH2 0x1C0 DUP3 ADD MSTORE PUSH2 0x8D4 DUP3 DUP10 PUSH2 0x2269 JUMP JUMPDEST MSTORE PUSH2 0x8DF DUP2 DUP9 PUSH2 0x2269 JUMP JUMPDEST POP PUSH2 0x2140 JUMP JUMPDEST PUSH2 0x78D JUMP JUMPDEST CALLVALUE PUSH2 0x124 JUMPI PUSH1 0x20 DUP1 PUSH1 0x3 NOT CALLDATASIZE ADD SLT PUSH2 0x124 JUMPI PUSH1 0x4 CALLDATALOAD SWAP1 DUP2 PUSH1 0x0 MSTORE PUSH1 0x0 DUP2 MSTORE PUSH1 0xB DUP1 PUSH1 0x40 PUSH1 0x0 KECCAK256 ADD SLOAD SWAP2 PUSH2 0x91C DUP4 PUSH2 0x21B2 JUMP JUMPDEST SWAP4 PUSH1 0x0 JUMPDEST DUP5 DUP2 LT PUSH2 0x935 JUMPI PUSH1 0x40 MLOAD DUP1 PUSH2 0x753 DUP9 DUP3 PUSH2 0x1F33 JUMP JUMPDEST PUSH2 0xA04 SWAP1 DUP3 PUSH1 0x0 MSTORE PUSH1 0x0 DUP5 MSTORE PUSH2 0x951 DUP2 DUP7 PUSH1 0x40 PUSH1 0x0 KECCAK256 ADD PUSH2 0x214F JUMP JUMPDEST SWAP1 SLOAD PUSH1 0x3 SWAP2 DUP3 SHL SHR PUSH1 0x0 MSTORE PUSH2 0x8C4 PUSH1 0xE PUSH1 0x1 SWAP3 DUP4 DUP9 MSTORE PUSH2 0x97D PUSH1 0x40 PUSH1 0x0 KECCAK256 SWAP2 PUSH1 0x40 MLOAD SWAP6 PUSH2 0x7EA DUP8 PUSH2 0x1DAB JUMP JUMPDEST PUSH1 0x60 DUP6 ADD MSTORE PUSH2 0x98E PUSH1 0x4 DUP3 ADD PUSH2 0x1E03 JUMP JUMPDEST PUSH1 0x80 DUP6 ADD MSTORE PUSH2 0x99F PUSH1 0x5 DUP3 ADD PUSH2 0x1E03 JUMP JUMPDEST PUSH1 0xA0 DUP6 ADD MSTORE PUSH1 0xFF PUSH1 0x6 DUP3 ADD SLOAD AND PUSH1 0xC0 DUP6 ADD MSTORE PUSH2 0x9BD PUSH1 0x7 DUP3 ADD PUSH2 0x1E03 JUMP JUMPDEST PUSH1 0xE0 DUP6 ADD MSTORE PUSH4 0xFFFFFFFF PUSH1 0x8 DUP3 ADD SLOAD AND PUSH2 0x100 DUP6 ADD MSTORE PUSH2 0x9DF PUSH1 0x9 DUP3 ADD PUSH2 0x1E03 JUMP JUMPDEST PUSH2 0x120 DUP6 ADD MSTORE PUSH1 0x1 PUSH1 0x1 PUSH1 0x40 SHL SUB PUSH1 0xA DUP3 ADD SLOAD AND PUSH2 0x140 DUP6 ADD MSTORE PUSH2 0x894 DUP10 DUP3 ADD PUSH2 0x1E03 JUMP JUMPDEST PUSH2 0x920 JUMP JUMPDEST CALLVALUE PUSH2 0x124 JUMPI PUSH1 0x20 CALLDATASIZE PUSH1 0x3 NOT ADD SLT PUSH2 0x124 JUMPI PUSH1 0x4 CALLDATALOAD PUSH1 0x0 MSTORE PUSH1 0x0 PUSH1 0x20 MSTORE PUSH1 0x7 PUSH1 0x40 PUSH1 0x0 KECCAK256 ADD SLOAD DUP1 PUSH1 0x0 MSTORE PUSH1 0x40 PUSH1 0x0 KECCAK256 PUSH2 0x753 PUSH2 0x746 PUSH1 0x3 PUSH2 0x73F PUSH1 0x2 DUP6 ADD PUSH2 0x1E03 JUMP JUMPDEST CALLVALUE PUSH2 0x124 JUMPI PUSH1 0x20 DUP1 PUSH1 0x3 NOT CALLDATASIZE ADD SLT PUSH2 0x124 JUMPI PUSH1 0x1 PUSH1 0x1 PUSH1 0x40 SHL SUB PUSH1 0x4 CALLDATALOAD DUP2 DUP2 GT PUSH2 0x124 JUMPI PUSH2 0xA7D SWAP1 CALLDATASIZE SWAP1 PUSH1 0x4 ADD PUSH2 0x1EA9 JUMP JUMPDEST SWAP2 PUSH1 0x40 MLOAD SWAP1 DUP4 MLOAD SWAP3 DUP2 DUP6 ADD SWAP4 PUSH2 0xA94 DUP2 DUP6 DUP8 PUSH2 0x1D29 JUMP JUMPDEST DUP4 ADD SWAP3 DUP3 DUP2 PUSH1 0x2 SWAP6 DUP7 DUP2 MSTORE SUB ADD SWAP1 KECCAK256 SLOAD SWAP4 PUSH2 0xAAE DUP6 PUSH2 0x21B2 JUMP JUMPDEST SWAP6 PUSH1 0x0 JUMPDEST DUP7 DUP2 LT PUSH2 0xAC7 JUMPI PUSH1 0x40 MLOAD DUP1 PUSH2 0x753 DUP11 DUP3 PUSH2 0x1F33 JUMP JUMPDEST DUP1 PUSH2 0xAEF PUSH2 0xBCD SWAP3 PUSH1 0x40 MLOAD DUP9 DUP2 DUP8 MLOAD PUSH2 0xAE1 DUP2 DUP4 DUP13 PUSH2 0x1D29 JUMP JUMPDEST DUP2 ADD DUP13 DUP2 MSTORE SUB ADD SWAP1 KECCAK256 PUSH2 0x214F JUMP JUMPDEST SWAP1 SLOAD PUSH1 0x3 SWAP2 DUP3 SHL SHR PUSH1 0x0 MSTORE PUSH2 0xBB2 PUSH1 0xE PUSH1 0x1 SWAP3 DUP4 DUP11 MSTORE PUSH2 0xB31 PUSH1 0x40 PUSH1 0x0 KECCAK256 SWAP2 PUSH1 0x40 MLOAD SWAP6 PUSH2 0xB1B DUP8 PUSH2 0x1DAB JUMP JUMPDEST DUP4 SLOAD DUP8 MSTORE DUP4 ADD SLOAD DUP13 DUP8 ADD MSTORE PUSH2 0x801 DUP14 DUP5 ADD PUSH2 0x1E03 JUMP JUMPDEST PUSH1 0x60 DUP6 ADD MSTORE PUSH2 0xB42 PUSH1 0x4 DUP3 ADD PUSH2 0x1E03 JUMP JUMPDEST PUSH1 0x80 DUP6 ADD MSTORE PUSH2 0xB53 PUSH1 0x5 DUP3 ADD PUSH2 0x1E03 JUMP JUMPDEST PUSH1 0xA0 DUP6 ADD MSTORE PUSH1 0xFF PUSH1 0x6 DUP3 ADD SLOAD AND PUSH1 0xC0 DUP6 ADD MSTORE PUSH2 0xB71 PUSH1 0x7 DUP3 ADD PUSH2 0x1E03 JUMP JUMPDEST PUSH1 0xE0 DUP6 ADD MSTORE PUSH4 0xFFFFFFFF PUSH1 0x8 DUP3 ADD SLOAD AND PUSH2 0x100 DUP6 ADD MSTORE PUSH2 0xB93 PUSH1 0x9 DUP3 ADD PUSH2 0x1E03 JUMP JUMPDEST PUSH2 0x120 DUP6 ADD MSTORE DUP9 PUSH1 0xA DUP3 ADD SLOAD AND PUSH2 0x140 DUP6 ADD MSTORE PUSH2 0x894 PUSH1 0xB DUP3 ADD PUSH2 0x1E03 JUMP JUMPDEST PUSH2 0x1C0 DUP3 ADD MSTORE PUSH2 0xBC2 DUP3 DUP12 PUSH2 0x2269 JUMP JUMPDEST MSTORE PUSH2 0x8DF DUP2 DUP11 PUSH2 0x2269 JUMP JUMPDEST PUSH2 0xAB2 JUMP JUMPDEST CALLVALUE PUSH2 0x124 JUMPI PUSH1 0x20 CALLDATASIZE PUSH1 0x3 NOT ADD SLT PUSH2 0x124 JUMPI PUSH1 0x4 CALLDATALOAD PUSH1 0x0 MSTORE PUSH1 0x1 PUSH1 0x20 MSTORE PUSH1 0x40 PUSH1 0x0 KECCAK256 DUP1 SLOAD PUSH1 0x1 DUP3 ADD SLOAD SWAP2 PUSH1 0x2 DUP2 ADD PUSH2 0xC08 SWAP1 PUSH2 0x1E03 JUMP JUMPDEST SWAP1 PUSH2 0xC15 PUSH1 0x3 DUP3 ADD PUSH2 0x1E03 JUMP JUMPDEST PUSH2 0xC21 PUSH1 0x4 DUP4 ADD PUSH2 0x1E03 JUMP JUMPDEST PUSH2 0xC2D PUSH1 0x5 DUP5 ADD PUSH2 0x1E03 JUMP JUMPDEST PUSH1 0x6 DUP5 ADD SLOAD PUSH1 0xFF AND PUSH2 0xC41 PUSH1 0x7 DUP7 ADD PUSH2 0x1E03 JUMP JUMPDEST PUSH1 0x8 DUP7 ADD SLOAD PUSH4 0xFFFFFFFF AND SWAP2 PUSH2 0xC59 PUSH1 0x9 DUP9 ADD PUSH2 0x1E03 JUMP JUMPDEST SWAP4 PUSH1 0xA DUP9 ADD SLOAD PUSH1 0x1 PUSH1 0x1 PUSH1 0x40 SHL SUB AND SWAP6 PUSH1 0xB DUP10 ADD PUSH2 0xC76 SWAP1 PUSH2 0x1E03 JUMP JUMPDEST SWAP8 PUSH2 0xC83 PUSH1 0xC DUP12 ADD PUSH2 0x1E03 JUMP JUMPDEST SWAP10 PUSH1 0xD ADD PUSH2 0xC90 SWAP1 PUSH2 0x1E03 JUMP JUMPDEST SWAP11 PUSH1 0x40 MLOAD SWAP14 DUP15 DUP1 SWAP15 DUP2 MSTORE PUSH1 0x20 ADD MSTORE DUP13 PUSH2 0x1C0 PUSH1 0x40 DUP2 SWAP3 ADD MSTORE DUP14 ADD PUSH2 0xCB3 SWAP2 PUSH2 0x1D4C JUMP JUMPDEST DUP13 DUP2 SUB PUSH1 0x60 DUP15 ADD MSTORE PUSH2 0xCC4 SWAP2 PUSH2 0x1D4C JUMP JUMPDEST DUP12 DUP2 SUB PUSH1 0x80 DUP14 ADD MSTORE PUSH2 0xCD5 SWAP2 PUSH2 0x1D4C JUMP JUMPDEST DUP11 DUP2 SUB PUSH1 0xA0 DUP13 ADD MSTORE PUSH2 0xCE6 SWAP2 PUSH2 0x1D4C JUMP JUMPDEST SWAP1 PUSH1 0xC0 DUP11 ADD MSTORE DUP9 DUP2 SUB PUSH1 0xE0 DUP11 ADD MSTORE PUSH2 0xCFD SWAP2 PUSH2 0x1D4C JUMP JUMPDEST SWAP1 PUSH2 0x100 DUP9 ADD MSTORE DUP7 DUP2 SUB PUSH2 0x120 DUP9 ADD MSTORE PUSH2 0xD16 SWAP2 PUSH2 0x1D4C JUMP JUMPDEST SWAP1 PUSH2 0x140 DUP7 ADD MSTORE DUP5 DUP2 SUB PUSH2 0x160 DUP7 ADD MSTORE PUSH2 0xD2F SWAP2 PUSH2 0x1D4C JUMP JUMPDEST DUP4 DUP2 SUB PUSH2 0x180 DUP6 ADD MSTORE PUSH2 0xD41 SWAP2 PUSH2 0x1D4C JUMP JUMPDEST DUP3 DUP2 SUB PUSH2 0x1A0 DUP5 ADD MSTORE PUSH2 0x753 SWAP2 PUSH2 0x1D4C JUMP JUMPDEST CALLVALUE PUSH2 0x124 JUMPI PUSH1 0x20 CALLDATASIZE PUSH1 0x3 NOT ADD SLT PUSH2 0x124 JUMPI PUSH1 0x4 CALLDATALOAD PUSH1 0x0 MSTORE PUSH1 0x1 PUSH1 0x20 MSTORE PUSH2 0x753 PUSH2 0xD82 PUSH1 0xE PUSH1 0x40 PUSH1 0x0 KECCAK256 ADD PUSH2 0x227D JUMP JUMPDEST PUSH1 0x40 MLOAD SWAP2 DUP3 SWAP2 PUSH1 0x20 DUP4 MSTORE PUSH1 0x20 DUP4 ADD SWAP1 PUSH2 0x1EFF JUMP JUMPDEST CALLVALUE PUSH2 0x124 JUMPI PUSH2 0x1C0 CALLDATASIZE PUSH1 0x3 NOT ADD SLT PUSH2 0x124 JUMPI PUSH1 0x24 CALLDATALOAD PUSH1 0x1 PUSH1 0x1 PUSH1 0x40 SHL SUB DUP2 GT PUSH2 0x124 JUMPI PUSH2 0xDC7 SWAP1 CALLDATASIZE SWAP1 PUSH1 0x4 ADD PUSH2 0x1EA9 JUMP JUMPDEST PUSH1 0x44 CALLDATALOAD PUSH1 0x1 PUSH1 0x1 PUSH1 0x40 SHL SUB DUP2 GT PUSH2 0x124 JUMPI PUSH2 0xDE6 SWAP1 CALLDATASIZE SWAP1 PUSH1 0x4 ADD PUSH2 0x1EA9 JUMP JUMPDEST PUSH1 0x64 CALLDATALOAD PUSH1 0x1 PUSH1 0x1 PUSH1 0x40 SHL SUB DUP2 GT PUSH2 0x124 JUMPI PUSH2 0xE05 SWAP1 CALLDATASIZE SWAP1 PUSH1 0x4 ADD PUSH2 0x1EA9 JUMP JUMPDEST PUSH1 0x84 CALLDATALOAD PUSH1 0x1 PUSH1 0x1 PUSH1 0x40 SHL SUB DUP2 GT PUSH2 0x124 JUMPI PUSH2 0xE24 SWAP1 CALLDATASIZE SWAP1 PUSH1 0x4 ADD PUSH2 0x1EA9 JUMP JUMPDEST SWAP1 PUSH1 0xA4 CALLDATALOAD SWAP2 PUSH1 0xFF DUP4 AND DUP4 SUB PUSH2 0x124 JUMPI PUSH1 0xC4 CALLDATALOAD PUSH1 0x1 PUSH1 0x1 PUSH1 0x40 SHL SUB DUP2 GT PUSH2 0x124 JUMPI PUSH2 0xE52 SWAP1 CALLDATASIZE SWAP1 PUSH1 0x4 ADD PUSH2 0x1EA9 JUMP JUMPDEST SWAP3 PUSH1 0xE4 CALLDATALOAD PUSH4 0xFFFFFFFF DUP2 AND DUP2 SUB PUSH2 0x124 JUMPI PUSH2 0x104 CALLDATALOAD PUSH1 0x1 PUSH1 0x1 PUSH1 0x40 SHL SUB DUP2 GT PUSH2 0x124 JUMPI PUSH2 0xE83 SWAP1 CALLDATASIZE SWAP1 PUSH1 0x4 ADD PUSH2 0x1EA9 JUMP JUMPDEST PUSH2 0x124 CALLDATALOAD SWAP2 PUSH1 0x1 PUSH1 0x1 PUSH1 0x40 SHL SUB DUP4 AND DUP4 SUB PUSH2 0x124 JUMPI PUSH1 0x1 PUSH1 0x1 PUSH1 0x40 SHL SUB PUSH2 0x144 CALLDATALOAD GT PUSH2 0x124 JUMPI PUSH2 0xEB9 CALLDATASIZE PUSH2 0x144 CALLDATALOAD PUSH1 0x4 ADD PUSH2 0x1EA9 JUMP JUMPDEST SWAP7 PUSH2 0x164 CALLDATALOAD PUSH1 0x1 PUSH1 0x1 PUSH1 0x40 SHL SUB DUP2 GT PUSH2 0x124 JUMPI PUSH2 0xEDA SWAP1 CALLDATASIZE SWAP1 PUSH1 0x4 ADD PUSH2 0x1EA9 JUMP JUMPDEST SWAP5 PUSH2 0x184 CALLDATALOAD PUSH1 0x1 PUSH1 0x1 PUSH1 0x40 SHL SUB DUP2 GT PUSH2 0x124 JUMPI PUSH2 0xEFB SWAP1 CALLDATASIZE SWAP1 PUSH1 0x4 ADD PUSH2 0x1EA9 JUMP JUMPDEST SWAP7 PUSH2 0x1A4 CALLDATALOAD PUSH1 0x1 PUSH1 0x1 PUSH1 0x40 SHL SUB DUP2 GT PUSH2 0x124 JUMPI PUSH2 0xF1C SWAP1 CALLDATASIZE SWAP1 PUSH1 0x4 ADD PUSH2 0x1EA9 JUMP JUMPDEST SWAP9 PUSH1 0x3 SLOAD PUSH2 0xF29 SWAP1 PUSH2 0x2140 JUMP JUMPDEST DUP1 PUSH1 0x3 SSTORE PUSH1 0x40 MLOAD SWAP12 PUSH2 0xF3A DUP14 PUSH2 0x1DC7 JUMP JUMPDEST PUSH1 0x0 DUP14 MSTORE PUSH1 0x40 MLOAD DUP2 DUP2 DUP1 SWAP4 MLOAD PUSH1 0x20 DUP2 SWAP4 ADD SWAP2 PUSH2 0xF55 SWAP3 PUSH2 0x1D29 JUMP JUMPDEST DUP2 ADD PUSH1 0x2 DUP2 MSTORE SUB PUSH1 0x20 ADD SWAP1 KECCAK256 SWAP1 PUSH2 0xF6B SWAP2 PUSH2 0x217D JUMP JUMPDEST PUSH1 0x4 CALLDATALOAD PUSH1 0x0 MSTORE PUSH1 0x0 PUSH1 0x20 MSTORE PUSH1 0x40 PUSH1 0x0 KECCAK256 PUSH1 0xFF NOT PUSH1 0x8 DUP3 ADD SLOAD AND PUSH1 0x1 OR PUSH1 0x8 DUP3 ADD SSTORE PUSH1 0x3 SLOAD SWAP1 PUSH1 0x9 ADD SWAP1 PUSH2 0xF9D SWAP2 PUSH2 0x217D JUMP JUMPDEST PUSH1 0x3 SLOAD SWAP12 DUP13 PUSH1 0x40 MLOAD SWAP15 DUP16 SWAP2 PUSH2 0xFB1 DUP4 PUSH2 0x1DAB JUMP JUMPDEST DUP3 MSTORE PUSH1 0x4 CALLDATALOAD PUSH1 0x20 DUP4 ADD MSTORE PUSH1 0x40 DUP3 ADD MSTORE PUSH1 0x60 ADD MSTORE PUSH1 0x80 DUP14 ADD MSTORE PUSH1 0xA0 DUP13 ADD MSTORE PUSH1 0xFF AND PUSH1 0xC0 DUP12 ADD MSTORE PUSH1 0xE0 DUP11 ADD MSTORE PUSH4 0xFFFFFFFF AND PUSH2 0x100 DUP10 ADD MSTORE PUSH2 0x120 DUP9 ADD MSTORE PUSH1 0x1 PUSH1 0x1 PUSH1 0x40 SHL SUB AND PUSH2 0x140 DUP8 ADD MSTORE PUSH2 0x160 DUP7 ADD MSTORE PUSH2 0x180 DUP6 ADD MSTORE PUSH2 0x1A0 DUP5 ADD MSTORE PUSH2 0x1C0 DUP4 ADD MSTORE PUSH1 0x0 MSTORE PUSH1 0x1 PUSH1 0x20 MSTORE PUSH1 0x40 PUSH1 0x0 KECCAK256 SWAP1 DUP1 MLOAD DUP3 SSTORE PUSH1 0x20 DUP2 ADD MLOAD PUSH1 0x1 DUP4 ADD SSTORE PUSH1 0x40 DUP2 ADD MLOAD SWAP2 DUP3 MLOAD PUSH1 0x1 PUSH1 0x1 PUSH1 0x40 SHL SUB DUP2 GT PUSH2 0x54F JUMPI PUSH2 0x1053 PUSH1 0x2 DUP4 ADD SLOAD PUSH2 0x1D71 JUMP JUMPDEST PUSH1 0x1F DUP2 GT PUSH2 0x1A3C JUMPI JUMPDEST POP PUSH1 0x20 PUSH1 0x1F DUP3 GT PUSH1 0x1 EQ PUSH2 0x19CE JUMPI DUP2 SWAP3 SWAP4 SWAP5 PUSH1 0x0 SWAP3 PUSH2 0x19C3 JUMPI JUMPDEST POP POP DUP2 PUSH1 0x1 SHL SWAP2 PUSH1 0x0 NOT SWAP1 PUSH1 0x3 SHL SHR NOT AND OR PUSH1 0x2 DUP3 ADD SSTORE JUMPDEST PUSH1 0x60 DUP3 ADD MLOAD SWAP2 DUP3 MLOAD PUSH1 0x1 PUSH1 0x1 PUSH1 0x40 SHL SUB DUP2 GT PUSH2 0x54F JUMPI PUSH2 0x10B1 PUSH1 0x3 DUP5 ADD SLOAD PUSH2 0x1D71 JUMP JUMPDEST PUSH1 0x1F DUP2 GT PUSH2 0x198E JUMPI JUMPDEST POP PUSH1 0x20 PUSH1 0x1F DUP3 GT PUSH1 0x1 EQ PUSH2 0x1920 JUMPI DUP2 SWAP3 SWAP4 SWAP5 PUSH1 0x0 SWAP3 PUSH2 0x1915 JUMPI JUMPDEST POP POP DUP2 PUSH1 0x1 SHL SWAP2 PUSH1 0x0 NOT SWAP1 PUSH1 0x3 SHL SHR NOT AND OR PUSH1 0x3 DUP4 ADD SSTORE JUMPDEST PUSH1 0x80 DUP2 ADD MLOAD SWAP2 DUP3 MLOAD PUSH1 0x1 PUSH1 0x1 PUSH1 0x40 SHL SUB DUP2 GT PUSH2 0x54F JUMPI PUSH2 0x110F PUSH1 0x4 DUP4 ADD SLOAD PUSH2 0x1D71 JUMP JUMPDEST PUSH1 0x1F DUP2 GT PUSH2 0x18E0 JUMPI JUMPDEST POP PUSH1 0x20 PUSH1 0x1F DUP3 GT PUSH1 0x1 EQ PUSH2 0x1872 JUMPI DUP2 SWAP3 SWAP4 SWAP5 PUSH1 0x0 SWAP3 PUSH2 0x1867 JUMPI JUMPDEST POP POP DUP2 PUSH1 0x1 SHL SWAP2 PUSH1 0x0 NOT SWAP1 PUSH1 0x3 SHL SHR NOT AND OR PUSH1 0x4 DUP3 ADD SSTORE JUMPDEST PUSH1 0xA0 DUP3 ADD MLOAD SWAP2 DUP3 MLOAD PUSH1 0x1 PUSH1 0x1 PUSH1 0x40 SHL SUB DUP2 GT PUSH2 0x54F JUMPI PUSH2 0x116D PUSH1 0x5 DUP5 ADD SLOAD PUSH2 0x1D71 JUMP JUMPDEST PUSH1 0x1F DUP2 GT PUSH2 0x1832 JUMPI JUMPDEST POP PUSH1 0x20 PUSH1 0x1F DUP3 GT PUSH1 0x1 EQ PUSH2 0x17C4 JUMPI DUP2 SWAP3 SWAP4 SWAP5 PUSH1 0x0 SWAP3 PUSH2 0x17B9 JUMPI JUMPDEST POP POP DUP2 PUSH1 0x1 SHL SWAP2 PUSH1 0x0 NOT SWAP1 PUSH1 0x3 SHL SHR NOT AND OR PUSH1 0x5 DUP4 ADD SSTORE JUMPDEST PUSH1 0x6 DUP3 ADD PUSH1 0xFF PUSH1 0xC0 DUP4 ADD MLOAD AND PUSH1 0xFF NOT DUP3 SLOAD AND OR SWAP1 SSTORE PUSH1 0xE0 DUP2 ADD MLOAD SWAP2 DUP3 MLOAD PUSH1 0x1 PUSH1 0x1 PUSH1 0x40 SHL SUB DUP2 GT PUSH2 0x54F JUMPI PUSH2 0x11E0 PUSH1 0x7 DUP4 ADD SLOAD PUSH2 0x1D71 JUMP JUMPDEST PUSH1 0x1F DUP2 GT PUSH2 0x1784 JUMPI JUMPDEST POP PUSH1 0x20 PUSH1 0x1F DUP3 GT PUSH1 0x1 EQ PUSH2 0x1716 JUMPI DUP2 SWAP3 SWAP4 SWAP5 PUSH1 0x0 SWAP3 PUSH2 0x170B JUMPI JUMPDEST POP POP DUP2 PUSH1 0x1 SHL SWAP2 PUSH1 0x0 NOT SWAP1 PUSH1 0x3 SHL SHR NOT AND OR PUSH1 0x7 DUP3 ADD SSTORE JUMPDEST PUSH1 0x8 DUP2 ADD PUSH4 0xFFFFFFFF PUSH2 0x100 DUP5 ADD MLOAD AND PUSH4 0xFFFFFFFF NOT DUP3 SLOAD AND OR SWAP1 SSTORE PUSH2 0x120 DUP3 ADD MLOAD SWAP2 DUP3 MLOAD PUSH1 0x1 PUSH1 0x1 PUSH1 0x40 SHL SUB DUP2 GT PUSH2 0x54F JUMPI PUSH2 0x125B PUSH1 0x9 DUP5 ADD SLOAD PUSH2 0x1D71 JUMP JUMPDEST PUSH1 0x1F DUP2 GT PUSH2 0x16D6 JUMPI JUMPDEST POP PUSH1 0x20 PUSH1 0x1F DUP3 GT PUSH1 0x1 EQ PUSH2 0x1668 JUMPI DUP2 SWAP3 SWAP4 SWAP5 PUSH1 0x0 SWAP3 PUSH2 0x165D JUMPI JUMPDEST POP POP DUP2 PUSH1 0x1 SHL SWAP2 PUSH1 0x0 NOT SWAP1 PUSH1 0x3 SHL SHR NOT AND OR PUSH1 0x9 DUP4 ADD SSTORE JUMPDEST PUSH1 0xA DUP3 ADD PUSH1 0x1 PUSH1 0x1 PUSH1 0x40 SHL SUB PUSH2 0x140 DUP4 ADD MLOAD AND PUSH1 0x1 PUSH1 0x1 PUSH1 0x40 SHL SUB NOT DUP3 SLOAD AND OR SWAP1 SSTORE PUSH2 0x160 DUP2 ADD MLOAD SWAP2 DUP3 MLOAD PUSH1 0x1 PUSH1 0x1 PUSH1 0x40 SHL SUB DUP2 GT PUSH2 0x54F JUMPI PUSH2 0x12DC PUSH1 0xB DUP4 ADD SLOAD PUSH2 0x1D71 JUMP JUMPDEST PUSH1 0x1F DUP2 GT PUSH2 0x1628 JUMPI JUMPDEST POP PUSH1 0x20 PUSH1 0x1F DUP3 GT PUSH1 0x1 EQ PUSH2 0x15BA JUMPI DUP2 SWAP3 SWAP4 SWAP5 PUSH1 0x0 SWAP3 PUSH2 0x15AF JUMPI JUMPDEST POP POP DUP2 PUSH1 0x1 SHL SWAP2 PUSH1 0x0 NOT SWAP1 PUSH1 0x3 SHL SHR NOT AND OR PUSH1 0xB DUP3 ADD SSTORE JUMPDEST PUSH2 0x180 DUP3 ADD MLOAD SWAP2 DUP3 MLOAD PUSH1 0x1 PUSH1 0x1 PUSH1 0x40 SHL SUB DUP2 GT PUSH2 0x54F JUMPI PUSH2 0x133B PUSH1 0xC DUP5 ADD SLOAD PUSH2 0x1D71 JUMP JUMPDEST PUSH1 0x1F DUP2 GT PUSH2 0x157A JUMPI JUMPDEST POP PUSH1 0x20 PUSH1 0x1F DUP3 GT PUSH1 0x1 EQ PUSH2 0x150C JUMPI DUP2 SWAP3 SWAP4 SWAP5 PUSH1 0x0 SWAP3 PUSH2 0x1501 JUMPI JUMPDEST POP POP DUP2 PUSH1 0x1 SHL SWAP2 PUSH1 0x0 NOT SWAP1 PUSH1 0x3 SHL SHR NOT AND OR PUSH1 0xC DUP4 ADD SSTORE JUMPDEST PUSH1 0xD DUP3 ADD SWAP2 PUSH2 0x1A0 DUP3 ADD MLOAD SWAP3 DUP4 MLOAD PUSH1 0x1 PUSH1 0x1 PUSH1 0x40 SHL SUB DUP2 GT PUSH2 0x54F JUMPI PUSH2 0x139C DUP3 SLOAD PUSH2 0x1D71 JUMP JUMPDEST PUSH1 0x1F DUP2 GT PUSH2 0x14CF JUMPI JUMPDEST POP PUSH1 0x20 PUSH1 0x1F DUP3 GT PUSH1 0x1 EQ PUSH2 0x1460 JUMPI SWAP1 DUP1 PUSH1 0xE SWAP5 SWAP4 SWAP3 PUSH2 0x1C0 SWAP7 SWAP8 PUSH1 0x0 SWAP3 PUSH2 0x1455 JUMPI JUMPDEST POP POP DUP2 PUSH1 0x1 SHL SWAP2 PUSH1 0x0 NOT SWAP1 PUSH1 0x3 SHL SHR NOT AND OR SWAP1 SSTORE JUMPDEST ADD SWAP2 ADD MLOAD DUP1 MLOAD SWAP1 PUSH1 0x1 PUSH1 0x1 PUSH1 0x40 SHL SUB DUP3 GT PUSH2 0x54F JUMPI PUSH1 0x1 PUSH1 0x40 SHL DUP3 GT PUSH2 0x54F JUMPI PUSH1 0x20 SWAP1 DUP4 SLOAD DUP4 DUP6 SSTORE DUP1 DUP5 LT PUSH2 0x1438 JUMPI JUMPDEST POP ADD SWAP2 PUSH1 0x0 MSTORE PUSH1 0x20 PUSH1 0x0 KECCAK256 SWAP2 PUSH1 0x0 JUMPDEST DUP3 DUP2 LT PUSH2 0x1424 JUMPI STOP JUMPDEST PUSH1 0x1 SWAP1 PUSH1 0x20 DUP4 MLOAD SWAP4 ADD SWAP3 DUP2 DUP7 ADD SSTORE ADD PUSH2 0x141B JUMP JUMPDEST PUSH2 0x144F SWAP1 DUP6 PUSH1 0x0 MSTORE DUP5 DUP5 PUSH1 0x0 KECCAK256 SWAP2 DUP3 ADD SWAP2 ADD PUSH2 0x2129 JUMP JUMPDEST DUP5 PUSH2 0x140C JUMP JUMPDEST ADD MLOAD SWAP1 POP DUP8 DUP1 PUSH2 0x13C7 JUMP JUMPDEST PUSH1 0x1F NOT DUP3 AND SWAP6 DUP4 PUSH1 0x0 MSTORE PUSH1 0x20 PUSH1 0x0 KECCAK256 SWAP7 PUSH1 0x0 JUMPDEST DUP2 DUP2 LT PUSH2 0x14B7 JUMPI POP SWAP7 PUSH1 0x1 SWAP3 DUP5 SWAP3 PUSH1 0xE SWAP8 SWAP7 SWAP6 PUSH2 0x1C0 SWAP10 SWAP11 LT PUSH2 0x149E JUMPI JUMPDEST POP POP POP DUP2 SHL ADD SWAP1 SSTORE PUSH2 0x13DC JUMP JUMPDEST ADD MLOAD PUSH1 0x0 NOT PUSH1 0xF8 DUP5 PUSH1 0x3 SHL AND SHR NOT AND SWAP1 SSTORE DUP8 DUP1 DUP1 PUSH2 0x1491 JUMP JUMPDEST DUP4 DUP4 ADD MLOAD DUP10 SSTORE PUSH1 0x1 SWAP1 SWAP9 ADD SWAP8 PUSH1 0x20 SWAP4 DUP5 ADD SWAP4 ADD PUSH2 0x1473 JUMP JUMPDEST PUSH2 0x14FB SWAP1 DUP4 PUSH1 0x0 MSTORE PUSH1 0x20 PUSH1 0x0 KECCAK256 PUSH1 0x1F DUP5 ADD PUSH1 0x5 SHR DUP2 ADD SWAP2 PUSH1 0x20 DUP6 LT PUSH2 0x645 JUMPI PUSH1 0x1F ADD PUSH1 0x5 SHR ADD SWAP1 PUSH2 0x2129 JUMP JUMPDEST DUP6 PUSH2 0x13A5 JUMP JUMPDEST ADD MLOAD SWAP1 POP DUP5 DUP1 PUSH2 0x135E JUMP JUMPDEST PUSH1 0xC DUP5 ADD PUSH1 0x0 MSTORE PUSH1 0x20 PUSH1 0x0 KECCAK256 SWAP1 PUSH1 0x0 JUMPDEST PUSH1 0x1F NOT DUP5 AND DUP2 LT PUSH2 0x1562 JUMPI POP PUSH1 0x1 SWAP4 SWAP5 SWAP6 DUP4 PUSH1 0x1F NOT DUP2 AND LT PUSH2 0x1549 JUMPI JUMPDEST POP POP POP DUP2 SHL ADD PUSH1 0xC DUP4 ADD SSTORE PUSH2 0x1376 JUMP JUMPDEST ADD MLOAD PUSH1 0x0 NOT PUSH1 0xF8 DUP5 PUSH1 0x3 SHL AND SHR NOT AND SWAP1 SSTORE DUP5 DUP1 DUP1 PUSH2 0x1539 JUMP JUMPDEST SWAP1 SWAP2 PUSH1 0x20 PUSH1 0x1 DUP2 SWAP3 DUP6 DUP11 ADD MLOAD DUP2 SSTORE ADD SWAP4 ADD SWAP2 ADD PUSH2 0x151C JUMP JUMPDEST PUSH2 0x15A9 SWAP1 PUSH1 0xC DUP6 ADD PUSH1 0x0 MSTORE PUSH1 0x20 PUSH1 0x0 KECCAK256 PUSH1 0x1F DUP5 ADD PUSH1 0x5 SHR DUP2 ADD SWAP2 PUSH1 0x20 DUP6 LT PUSH2 0x645 JUMPI PUSH1 0x1F ADD PUSH1 0x5 SHR ADD SWAP1 PUSH2 0x2129 JUMP JUMPDEST DUP5 PUSH2 0x1344 JUMP JUMPDEST ADD MLOAD SWAP1 POP DUP5 DUP1 PUSH2 0x12FF JUMP JUMPDEST PUSH1 0xB DUP4 ADD PUSH1 0x0 MSTORE PUSH1 0x20 PUSH1 0x0 KECCAK256 SWAP1 PUSH1 0x0 JUMPDEST PUSH1 0x1F NOT DUP5 AND DUP2 LT PUSH2 0x1610 JUMPI POP PUSH1 0x1 SWAP4 SWAP5 SWAP6 DUP4 PUSH1 0x1F NOT DUP2 AND LT PUSH2 0x15F7 JUMPI JUMPDEST POP POP POP DUP2 SHL ADD PUSH1 0xB DUP3 ADD SSTORE PUSH2 0x1317 JUMP JUMPDEST ADD MLOAD PUSH1 0x0 NOT PUSH1 0xF8 DUP5 PUSH1 0x3 SHL AND SHR NOT AND SWAP1 SSTORE DUP5 DUP1 DUP1 PUSH2 0x15E7 JUMP JUMPDEST SWAP1 SWAP2 PUSH1 0x20 PUSH1 0x1 DUP2 SWAP3 DUP6 DUP11 ADD MLOAD DUP2 SSTORE ADD SWAP4 ADD SWAP2 ADD PUSH2 0x15CA JUMP JUMPDEST PUSH2 0x1657 SWAP1 PUSH1 0xB DUP5 ADD PUSH1 0x0 MSTORE PUSH1 0x20 PUSH1 0x0 KECCAK256 PUSH1 0x1F DUP5 ADD PUSH1 0x5 SHR DUP2 ADD SWAP2 PUSH1 0x20 DUP6 LT PUSH2 0x645 JUMPI PUSH1 0x1F ADD PUSH1 0x5 SHR ADD SWAP1 PUSH2 0x2129 JUMP JUMPDEST DUP5 PUSH2 0x12E5 JUMP JUMPDEST ADD MLOAD SWAP1 POP DUP5 DUP1 PUSH2 0x127E JUMP JUMPDEST PUSH1 0x9 DUP5 ADD PUSH1 0x0 MSTORE PUSH1 0x20 PUSH1 0x0 KECCAK256 SWAP1 PUSH1 0x0 JUMPDEST PUSH1 0x1F NOT DUP5 AND DUP2 LT PUSH2 0x16BE JUMPI POP PUSH1 0x1 SWAP4 SWAP5 SWAP6 DUP4 PUSH1 0x1F NOT DUP2 AND LT PUSH2 0x16A5 JUMPI JUMPDEST POP POP POP DUP2 SHL ADD PUSH1 0x9 DUP4 ADD SSTORE PUSH2 0x1296 JUMP JUMPDEST ADD MLOAD PUSH1 0x0 NOT PUSH1 0xF8 DUP5 PUSH1 0x3 SHL AND SHR NOT AND SWAP1 SSTORE DUP5 DUP1 DUP1 PUSH2 0x1695 JUMP JUMPDEST SWAP1 SWAP2 PUSH1 0x20 PUSH1 0x1 DUP2 SWAP3 DUP6 DUP11 ADD MLOAD DUP2 SSTORE ADD SWAP4 ADD SWAP2 ADD PUSH2 0x1678 JUMP JUMPDEST PUSH2 0x1705 SWAP1 PUSH1 0x9 DUP6 ADD PUSH1 0x0 MSTORE PUSH1 0x20 PUSH1 0x0 KECCAK256 PUSH1 0x1F DUP5 ADD PUSH1 0x5 SHR DUP2 ADD SWAP2 PUSH1 0x20 DUP6 LT PUSH2 0x645 JUMPI PUSH1 0x1F ADD PUSH1 0x5 SHR ADD SWAP1 PUSH2 0x2129 JUMP JUMPDEST DUP5 PUSH2 0x1264 JUMP JUMPDEST ADD MLOAD SWAP1 POP DUP5 DUP1 PUSH2 0x1203 JUMP JUMPDEST PUSH1 0x7 DUP4 ADD PUSH1 0x0 MSTORE PUSH1 0x20 PUSH1 0x0 KECCAK256 SWAP1 PUSH1 0x0 JUMPDEST PUSH1 0x1F NOT DUP5 AND DUP2 LT PUSH2 0x176C JUMPI POP PUSH1 0x1 SWAP4 SWAP5 SWAP6 DUP4 PUSH1 0x1F NOT DUP2 AND LT PUSH2 0x1753 JUMPI JUMPDEST POP POP POP DUP2 SHL ADD PUSH1 0x7 DUP3 ADD SSTORE PUSH2 0x121B JUMP JUMPDEST ADD MLOAD PUSH1 0x0 NOT PUSH1 0xF8 DUP5 PUSH1 0x3 SHL AND SHR NOT AND SWAP1 SSTORE DUP5 DUP1 DUP1 PUSH2 0x1743 JUMP JUMPDEST SWAP1 SWAP2 PUSH1 0x20 PUSH1 0x1 DUP2 SWAP3 DUP6 DUP11 ADD MLOAD DUP2 SSTORE ADD SWAP4 ADD SWAP2 ADD PUSH2 0x1726 JUMP JUMPDEST PUSH2 0x17B3 SWAP1 PUSH1 0x7 DUP5 ADD PUSH1 0x0 MSTORE PUSH1 0x20 PUSH1 0x0 KECCAK256 PUSH1 0x1F DUP5 ADD PUSH1 0x5 SHR DUP2 ADD SWAP2 PUSH1 0x20 DUP6 LT PUSH2 0x645 JUMPI PUSH1 0x1F ADD PUSH1 0x5 SHR ADD SWAP1 PUSH2 0x2129 JUMP JUMPDEST DUP5 PUSH2 0x11E9 JUMP JUMPDEST ADD MLOAD SWAP1 POP DUP5 DUP1 PUSH2 0x1190 JUMP JUMPDEST PUSH1 0x5 DUP5 ADD PUSH1 0x0 MSTORE PUSH1 0x20 PUSH1 0x0 KECCAK256 SWAP1 PUSH1 0x0 JUMPDEST PUSH1 0x1F NOT DUP5 AND DUP2 LT PUSH2 0x181A JUMPI POP PUSH1 0x1 SWAP4 SWAP5 SWAP6 DUP4 PUSH1 0x1F NOT DUP2 AND LT PUSH2 0x1801 JUMPI JUMPDEST POP POP POP DUP2 SHL ADD PUSH1 0x5 DUP4 ADD SSTORE PUSH2 0x11A8 JUMP JUMPDEST ADD MLOAD PUSH1 0x0 NOT PUSH1 0xF8 DUP5 PUSH1 0x3 SHL AND SHR NOT AND SWAP1 SSTORE DUP5 DUP1 DUP1 PUSH2 0x17F1 JUMP JUMPDEST SWAP1 SWAP2 PUSH1 0x20 PUSH1 0x1 DUP2 SWAP3 DUP6 DUP11 ADD MLOAD DUP2 SSTORE ADD SWAP4 ADD SWAP2 ADD PUSH2 0x17D4 JUMP JUMPDEST PUSH2 0x1861 SWAP1 PUSH1 0x5 DUP6 ADD PUSH1 0x0 MSTORE PUSH1 0x20 PUSH1 0x0 KECCAK256 PUSH1 0x1F DUP5 ADD PUSH1 0x5 SHR DUP2 ADD SWAP2 PUSH1 0x20 DUP6 LT PUSH2 0x645 JUMPI PUSH1 0x1F ADD PUSH1 0x5 SHR ADD SWAP1 PUSH2 0x2129 JUMP JUMPDEST DUP5 PUSH2 0x1176 JUMP JUMPDEST ADD MLOAD SWAP1 POP DUP5 DUP1 PUSH2 0x1132 JUMP JUMPDEST PUSH1 0x4 DUP4 ADD PUSH1 0x0 MSTORE PUSH1 0x20 PUSH1 0x0 KECCAK256 SWAP1 PUSH1 0x0 JUMPDEST PUSH1 0x1F NOT DUP5 AND DUP2 LT PUSH2 0x18C8 JUMPI POP PUSH1 0x1 SWAP4 SWAP5 SWAP6 DUP4 PUSH1 0x1F NOT DUP2 AND LT PUSH2 0x18AF JUMPI JUMPDEST POP POP POP DUP2 SHL ADD PUSH1 0x4 DUP3 ADD SSTORE PUSH2 0x114A JUMP JUMPDEST ADD MLOAD PUSH1 0x0 NOT PUSH1 0xF8 DUP5 PUSH1 0x3 SHL AND SHR NOT AND SWAP1 SSTORE DUP5 DUP1 DUP1 PUSH2 0x189F JUMP JUMPDEST SWAP1 SWAP2 PUSH1 0x20 PUSH1 0x1 DUP2 SWAP3 DUP6 DUP11 ADD MLOAD DUP2 SSTORE ADD SWAP4 ADD SWAP2 ADD PUSH2 0x1882 JUMP JUMPDEST PUSH2 0x190F SWAP1 PUSH1 0x4 DUP5 ADD PUSH1 0x0 MSTORE PUSH1 0x20 PUSH1 0x0 KECCAK256 PUSH1 0x1F DUP5 ADD PUSH1 0x5 SHR DUP2 ADD SWAP2 PUSH1 0x20 DUP6 LT PUSH2 0x645 JUMPI PUSH1 0x1F ADD PUSH1 0x5 SHR ADD SWAP1 PUSH2 0x2129 JUMP JUMPDEST DUP5 PUSH2 0x1118 JUMP JUMPDEST ADD MLOAD SWAP1 POP DUP5 DUP1 PUSH2 0x10D4 JUMP JUMPDEST PUSH1 0x3 DUP5 ADD PUSH1 0x0 MSTORE PUSH1 0x20 PUSH1 0x0 KECCAK256 SWAP1 PUSH1 0x0 JUMPDEST PUSH1 0x1F NOT DUP5 AND DUP2 LT PUSH2 0x1976 JUMPI POP PUSH1 0x1 SWAP4 SWAP5 SWAP6 DUP4 PUSH1 0x1F NOT DUP2 AND LT PUSH2 0x195D JUMPI JUMPDEST POP POP POP DUP2 SHL ADD PUSH1 0x3 DUP4 ADD SSTORE PUSH2 0x10EC JUMP JUMPDEST ADD MLOAD PUSH1 0x0 NOT PUSH1 0xF8 DUP5 PUSH1 0x3 SHL AND SHR NOT AND SWAP1 SSTORE DUP5 DUP1 DUP1 PUSH2 0x194D JUMP JUMPDEST SWAP1 SWAP2 PUSH1 0x20 PUSH1 0x1 DUP2 SWAP3 DUP6 DUP11 ADD MLOAD DUP2 SSTORE ADD SWAP4 ADD SWAP2 ADD PUSH2 0x1930 JUMP JUMPDEST PUSH2 0x19BD SWAP1 PUSH1 0x3 DUP6 ADD PUSH1 0x0 MSTORE PUSH1 0x20 PUSH1 0x0 KECCAK256 PUSH1 0x1F DUP5 ADD PUSH1 0x5 SHR DUP2 ADD SWAP2 PUSH1 0x20 DUP6 LT PUSH2 0x645 JUMPI PUSH1 0x1F ADD PUSH1 0x5 SHR ADD SWAP1 PUSH2 0x2129 JUMP JUMPDEST DUP5 PUSH2 0x10BA JUMP JUMPDEST ADD MLOAD SWAP1 POP DUP5 DUP1 PUSH2 0x1076 JUMP JUMPDEST PUSH1 0x2 DUP4 ADD PUSH1 0x0 MSTORE PUSH1 0x20 PUSH1 0x0 KECCAK256 SWAP1 PUSH1 0x0 JUMPDEST PUSH1 0x1F NOT DUP5 AND DUP2 LT PUSH2 0x1A24 JUMPI POP PUSH1 0x1 SWAP4 SWAP5 SWAP6 DUP4 PUSH1 0x1F NOT DUP2 AND LT PUSH2 0x1A0B JUMPI JUMPDEST POP POP POP DUP2 SHL ADD PUSH1 0x2 DUP3 ADD SSTORE PUSH2 0x108E JUMP JUMPDEST ADD MLOAD PUSH1 0x0 NOT PUSH1 0xF8 DUP5 PUSH1 0x3 SHL AND SHR NOT AND SWAP1 SSTORE DUP5 DUP1 DUP1 PUSH2 0x19FB JUMP JUMPDEST SWAP1 SWAP2 PUSH1 0x20 PUSH1 0x1 DUP2 SWAP3 DUP6 DUP11 ADD MLOAD DUP2 SSTORE ADD SWAP4 ADD SWAP2 ADD PUSH2 0x19DE JUMP JUMPDEST PUSH2 0x1A6B SWAP1 PUSH1 0x2 DUP5 ADD PUSH1 0x0 MSTORE PUSH1 0x20 PUSH1 0x0 KECCAK256 PUSH1 0x1F DUP5 ADD PUSH1 0x5 SHR DUP2 ADD SWAP2 PUSH1 0x20 DUP6 LT PUSH2 0x645 JUMPI PUSH1 0x1F ADD PUSH1 0x5 SHR ADD SWAP1 PUSH2 0x2129 JUMP JUMPDEST DUP5 PUSH2 0x105C JUMP JUMPDEST CALLVALUE PUSH2 0x124 JUMPI PUSH1 0x20 CALLDATASIZE PUSH1 0x3 NOT ADD SLT PUSH2 0x124 JUMPI PUSH1 0x4 CALLDATALOAD PUSH1 0x0 MSTORE PUSH1 0x0 PUSH1 0x20 MSTORE PUSH1 0x20 PUSH1 0xFF PUSH1 0xA PUSH1 0x40 PUSH1 0x0 KECCAK256 ADD SLOAD AND PUSH1 0x40 MLOAD SWAP1 ISZERO ISZERO DUP2 MSTORE RETURN JUMPDEST CALLVALUE PUSH2 0x124 JUMPI PUSH1 0x20 CALLDATASIZE PUSH1 0x3 NOT ADD SLT PUSH2 0x124 JUMPI PUSH1 0x4 CALLDATALOAD PUSH1 0x0 MSTORE PUSH1 0x0 PUSH1 0x20 MSTORE PUSH1 0x20 PUSH1 0x1 PUSH1 0x1 PUSH1 0x40 SHL SUB PUSH1 0x1 PUSH1 0x40 PUSH1 0x0 KECCAK256 ADD SLOAD AND PUSH1 0x40 MLOAD SWAP1 DUP2 MSTORE RETURN JUMPDEST CALLVALUE PUSH2 0x124 JUMPI PUSH1 0x40 CALLDATASIZE PUSH1 0x3 NOT ADD SLT PUSH2 0x124 JUMPI PUSH1 0x4 CALLDATALOAD PUSH1 0x24 CALLDATALOAD DUP1 PUSH1 0x0 MSTORE PUSH1 0x1 PUSH1 0x20 MSTORE PUSH1 0x40 PUSH1 0x0 KECCAK256 PUSH1 0xFF PUSH1 0x6 DUP3 ADD SLOAD AND PUSH2 0x1B10 JUMPI STOP JUMPDEST DUP3 PUSH1 0xE PUSH2 0x1B1D SWAP3 ADD PUSH2 0x217D JUMP JUMPDEST DUP1 PUSH1 0x0 MSTORE PUSH1 0x1 PUSH1 0x20 MSTORE PUSH1 0x6 PUSH1 0x40 PUSH1 0x0 KECCAK256 ADD SWAP2 DUP3 SLOAD SWAP1 PUSH1 0xFF DUP3 AND SWAP1 DUP2 ISZERO PUSH2 0x1B79 JUMPI PUSH2 0x1B77 SWAP5 PUSH1 0xB SWAP4 PUSH1 0xFF SWAP4 DUP5 NOT SWAP5 DUP6 SWAP2 PUSH1 0x0 NOT ADD AND SWAP2 AND OR SWAP1 SSTORE PUSH1 0x0 MSTORE PUSH1 0x0 PUSH1 0x20 MSTORE PUSH1 0x40 PUSH1 0x0 KECCAK256 SWAP1 PUSH1 0x1 PUSH1 0xA DUP4 ADD SWAP2 DUP3 SLOAD AND OR SWAP1 SSTORE ADD PUSH2 0x217D JUMP JUMPDEST STOP JUMPDEST PUSH4 0x4E487B71 PUSH1 0xE0 SHL PUSH1 0x0 MSTORE PUSH1 0x11 PUSH1 0x4 MSTORE PUSH1 0x24 PUSH1 0x0 REVERT JUMPDEST CALLVALUE PUSH2 0x124 JUMPI PUSH1 0x20 CALLDATASIZE PUSH1 0x3 NOT ADD SLT PUSH2 0x124 JUMPI PUSH1 0x4 CALLDATALOAD PUSH1 0x0 MSTORE PUSH1 0x0 PUSH1 0x20 MSTORE PUSH1 0x40 PUSH1 0x0 KECCAK256 DUP1 SLOAD PUSH1 0x1 PUSH1 0x1 PUSH1 0x40 SHL SUB PUSH1 0x1 DUP4 ADD SLOAD AND SWAP2 PUSH2 0x1BCD PUSH1 0x2 DUP3 ADD PUSH2 0x1E03 JUMP JUMPDEST PUSH2 0x1BD9 PUSH1 0x3 DUP4 ADD PUSH2 0x1E03 JUMP JUMPDEST SWAP2 PUSH1 0x4 DUP2 ADD SLOAD SWAP3 PUSH1 0x5 DUP3 ADD SLOAD PUSH1 0xFF PUSH1 0x6 DUP5 ADD SLOAD AND SWAP1 PUSH1 0xFF PUSH2 0x1C39 PUSH1 0x7 DUP7 ADD SLOAD SWAP5 PUSH2 0x1C2B DUP4 PUSH1 0xA DUP2 PUSH1 0x8 DUP12 ADD SLOAD AND SWAP10 ADD SLOAD AND SWAP9 PUSH1 0x40 MLOAD SWAP13 DUP14 SWAP13 DUP14 MSTORE PUSH1 0x20 DUP14 ADD MSTORE PUSH1 0x40 DUP13 PUSH2 0x160 SWAP2 DUP3 SWAP2 ADD MSTORE DUP13 ADD SWAP1 PUSH2 0x1D4C JUMP JUMPDEST SWAP1 DUP11 DUP3 SUB PUSH1 0x60 DUP13 ADD MSTORE PUSH2 0x1D4C JUMP JUMPDEST SWAP7 DUP2 DUP2 AND PUSH1 0x80 DUP11 ADD MSTORE PUSH1 0x8 SHR AND ISZERO ISZERO PUSH1 0xA0 DUP9 ADD MSTORE PUSH1 0xC0 DUP8 ADD MSTORE ISZERO ISZERO PUSH1 0xE0 DUP7 ADD MSTORE PUSH2 0x100 DUP6 ADD MSTORE ISZERO ISZERO PUSH2 0x120 DUP5 ADD MSTORE ISZERO ISZERO PUSH2 0x140 DUP4 ADD MSTORE SUB SWAP1 RETURN JUMPDEST CALLVALUE PUSH2 0x124 JUMPI PUSH1 0x20 CALLDATASIZE PUSH1 0x3 NOT ADD SLT PUSH2 0x124 JUMPI PUSH1 0x4 CALLDATALOAD PUSH1 0x0 MSTORE PUSH1 0x0 PUSH1 0x20 MSTORE PUSH2 0x753 PUSH2 0x1CA2 PUSH1 0x3 PUSH1 0x40 PUSH1 0x0 KECCAK256 ADD PUSH2 0x1E03 JUMP JUMPDEST PUSH1 0x40 MLOAD SWAP2 DUP3 SWAP2 PUSH1 0x20 DUP4 MSTORE PUSH1 0x20 DUP4 ADD SWAP1 PUSH2 0x1D4C JUMP JUMPDEST CALLVALUE PUSH2 0x124 JUMPI PUSH1 0x20 CALLDATASIZE PUSH1 0x3 NOT ADD SLT PUSH2 0x124 JUMPI PUSH1 0x4 CALLDATALOAD PUSH1 0x0 MSTORE PUSH1 0x0 PUSH1 0x20 MSTORE PUSH2 0x753 PUSH2 0x1CA2 PUSH1 0x2 PUSH1 0x40 PUSH1 0x0 KECCAK256 ADD PUSH2 0x1E03 JUMP JUMPDEST CALLVALUE PUSH2 0x124 JUMPI PUSH1 0x20 CALLDATASIZE PUSH1 0x3 NOT ADD SLT PUSH2 0x124 JUMPI PUSH1 0x20 SWAP1 PUSH1 0x0 PUSH1 0x4 CALLDATALOAD PUSH1 0x0 MSTORE PUSH1 0x0 DUP4 MSTORE PUSH1 0x1 PUSH1 0xFF PUSH1 0x6 PUSH1 0x40 PUSH1 0x0 KECCAK256 ADD SLOAD AND ISZERO ISZERO EQ PUSH2 0x1D21 JUMPI JUMPDEST ISZERO ISZERO DUP2 MSTORE RETURN JUMPDEST POP PUSH1 0x1 PUSH2 0x1D1B JUMP JUMPDEST PUSH1 0x0 JUMPDEST DUP4 DUP2 LT PUSH2 0x1D3C JUMPI POP POP PUSH1 0x0 SWAP2 ADD MSTORE JUMP JUMPDEST DUP2 DUP2 ADD MLOAD DUP4 DUP3 ADD MSTORE PUSH1 0x20 ADD PUSH2 0x1D2C JUMP JUMPDEST SWAP1 PUSH1 0x20 SWAP2 PUSH2 0x1D65 DUP2 MLOAD DUP1 SWAP3 DUP2 DUP6 MSTORE DUP6 DUP1 DUP7 ADD SWAP2 ADD PUSH2 0x1D29 JUMP JUMPDEST PUSH1 0x1F ADD PUSH1 0x1F NOT AND ADD ADD SWAP1 JUMP JUMPDEST SWAP1 PUSH1 0x1 DUP3 DUP2 SHR SWAP3 AND DUP1 ISZERO PUSH2 0x1DA1 JUMPI JUMPDEST PUSH1 0x20 DUP4 LT EQ PUSH2 0x1D8B JUMPI JUMP JUMPDEST PUSH4 0x4E487B71 PUSH1 0xE0 SHL PUSH1 0x0 MSTORE PUSH1 0x22 PUSH1 0x4 MSTORE PUSH1 0x24 PUSH1 0x0 REVERT JUMPDEST SWAP2 PUSH1 0x7F AND SWAP2 PUSH2 0x1D80 JUMP JUMPDEST PUSH2 0x1E0 DUP2 ADD SWAP1 DUP2 LT PUSH1 0x1 PUSH1 0x1 PUSH1 0x40 SHL SUB DUP3 GT OR PUSH2 0x54F JUMPI PUSH1 0x40 MSTORE JUMP JUMPDEST PUSH1 0x20 DUP2 ADD SWAP1 DUP2 LT PUSH1 0x1 PUSH1 0x1 PUSH1 0x40 SHL SUB DUP3 GT OR PUSH2 0x54F JUMPI PUSH1 0x40 MSTORE JUMP JUMPDEST SWAP1 PUSH1 0x1F DUP1 NOT SWAP2 ADD AND DUP2 ADD SWAP1 DUP2 LT PUSH1 0x1 PUSH1 0x1 PUSH1 0x40 SHL SUB DUP3 GT OR PUSH2 0x54F JUMPI PUSH1 0x40 MSTORE JUMP JUMPDEST SWAP1 PUSH1 0x40 MLOAD SWAP2 DUP3 PUSH1 0x0 DUP3 SLOAD SWAP3 PUSH2 0x1E17 DUP5 PUSH2 0x1D71 JUMP JUMPDEST SWAP1 DUP2 DUP5 MSTORE PUSH1 0x1 SWAP5 DUP6 DUP2 AND SWAP1 DUP2 PUSH1 0x0 EQ PUSH2 0x1E86 JUMPI POP PUSH1 0x1 EQ PUSH2 0x1E43 JUMPI JUMPDEST POP POP PUSH2 0x1E41 SWAP3 POP SUB DUP4 PUSH2 0x1DE2 JUMP JUMPDEST JUMP JUMPDEST SWAP1 SWAP4 SWAP2 POP PUSH1 0x0 MSTORE PUSH1 0x20 SWAP1 DUP2 PUSH1 0x0 KECCAK256 SWAP4 PUSH1 0x0 SWAP2 JUMPDEST DUP2 DUP4 LT PUSH2 0x1E6E JUMPI POP POP PUSH2 0x1E41 SWAP4 POP DUP3 ADD ADD CODESIZE DUP1 PUSH2 0x1E33 JUMP JUMPDEST DUP6 SLOAD DUP9 DUP5 ADD DUP6 ADD MSTORE SWAP5 DUP6 ADD SWAP5 DUP8 SWAP5 POP SWAP2 DUP4 ADD SWAP2 PUSH2 0x1E56 JUMP JUMPDEST SWAP2 POP POP PUSH2 0x1E41 SWAP5 POP PUSH1 0x20 SWAP3 POP PUSH1 0xFF NOT AND DUP3 DUP5 ADD MSTORE ISZERO ISZERO PUSH1 0x5 SHL DUP3 ADD ADD CODESIZE DUP1 PUSH2 0x1E33 JUMP JUMPDEST DUP2 PUSH1 0x1F DUP3 ADD SLT ISZERO PUSH2 0x124 JUMPI DUP1 CALLDATALOAD SWAP1 PUSH1 0x1 PUSH1 0x1 PUSH1 0x40 SHL SUB DUP3 GT PUSH2 0x54F JUMPI PUSH1 0x40 MLOAD SWAP3 PUSH2 0x1EDD PUSH1 0x1F DUP5 ADD PUSH1 0x1F NOT AND PUSH1 0x20 ADD DUP6 PUSH2 0x1DE2 JUMP JUMPDEST DUP3 DUP5 MSTORE PUSH1 0x20 DUP4 DUP4 ADD ADD GT PUSH2 0x124 JUMPI DUP2 PUSH1 0x0 SWAP3 PUSH1 0x20 DUP1 SWAP4 ADD DUP4 DUP7 ADD CALLDATACOPY DUP4 ADD ADD MSTORE SWAP1 JUMP JUMPDEST SWAP1 DUP2 MLOAD DUP1 DUP3 MSTORE PUSH1 0x20 DUP1 DUP1 SWAP4 ADD SWAP4 ADD SWAP2 PUSH1 0x0 JUMPDEST DUP3 DUP2 LT PUSH2 0x1F1F JUMPI POP POP POP POP SWAP1 JUMP JUMPDEST DUP4 MLOAD DUP6 MSTORE SWAP4 DUP2 ADD SWAP4 SWAP3 DUP2 ADD SWAP3 PUSH1 0x1 ADD PUSH2 0x1F11 JUMP JUMPDEST PUSH1 0x20 DUP1 DUP3 ADD SWAP1 DUP1 DUP4 MSTORE DUP4 MLOAD DUP1 SWAP3 MSTORE PUSH1 0x40 SWAP3 DUP4 DUP2 ADD DUP3 DUP6 DUP6 PUSH1 0x5 SHL DUP5 ADD ADD SWAP7 ADD SWAP5 PUSH1 0x0 SWAP3 JUMPDEST DUP6 DUP5 LT PUSH2 0x1F68 JUMPI POP POP POP POP POP POP POP SWAP1 JUMP JUMPDEST SWAP1 SWAP2 SWAP3 SWAP4 SWAP5 SWAP6 SWAP7 DUP6 DUP1 PUSH2 0x20AA DUP4 DUP7 PUSH2 0x2096 PUSH2 0x2082 PUSH2 0x206E DUP16 PUSH2 0x2021 PUSH2 0x2001 PUSH2 0x1FEE DUP16 PUSH2 0x1FC8 DUP16 SWAP6 PUSH1 0x1 SWAP16 SWAP3 PUSH2 0x1FDB SWAP4 PUSH2 0x2046 SWAP9 PUSH1 0x3F NOT SWAP2 SUB ADD SWAP1 MSTORE MLOAD SWAP10 DUP11 MLOAD DUP13 MSTORE DUP14 DUP1 DUP13 ADD MLOAD SWAP1 DUP14 ADD MSTORE DUP1 DUP12 ADD MLOAD SWAP1 DUP13 PUSH2 0x1E0 SWAP2 DUP3 SWAP2 ADD MSTORE DUP13 ADD SWAP1 PUSH2 0x1D4C JUMP JUMPDEST PUSH1 0x60 DUP1 DUP12 ADD MLOAD SWAP1 DUP13 DUP4 SUB SWAP1 DUP14 ADD MSTORE PUSH2 0x1D4C JUMP JUMPDEST PUSH1 0x80 DUP1 DUP11 ADD MLOAD SWAP1 DUP12 DUP4 SUB SWAP1 DUP13 ADD MSTORE PUSH2 0x1D4C JUMP JUMPDEST PUSH1 0xA0 DUP1 DUP10 ADD MLOAD SWAP1 DUP11 DUP4 SUB SWAP1 DUP12 ADD MSTORE PUSH2 0x1D4C JUMP JUMPDEST PUSH1 0xC0 PUSH1 0xFF DUP2 DUP10 ADD MLOAD AND SWAP1 DUP10 ADD MSTORE PUSH1 0xE0 DUP1 DUP9 ADD MLOAD SWAP1 DUP10 DUP4 SUB SWAP1 DUP11 ADD MSTORE PUSH2 0x1D4C JUMP JUMPDEST PUSH2 0x100 PUSH4 0xFFFFFFFF DUP2 DUP9 ADD MLOAD AND SWAP1 DUP9 ADD MSTORE PUSH2 0x120 DUP1 DUP8 ADD MLOAD SWAP1 DUP9 DUP4 SUB SWAP1 DUP10 ADD MSTORE PUSH2 0x1D4C JUMP JUMPDEST PUSH2 0x140 PUSH1 0x1 PUSH1 0x1 PUSH1 0x40 SHL SUB DUP2 DUP8 ADD MLOAD AND SWAP1 DUP8 ADD MSTORE PUSH2 0x160 DUP1 DUP7 ADD MLOAD SWAP1 DUP8 DUP4 SUB SWAP1 DUP9 ADD MSTORE PUSH2 0x1D4C JUMP JUMPDEST PUSH2 0x180 DUP1 DUP6 ADD MLOAD SWAP1 DUP7 DUP4 SUB SWAP1 DUP8 ADD MSTORE PUSH2 0x1D4C JUMP JUMPDEST PUSH2 0x1A0 DUP1 DUP5 ADD MLOAD SWAP1 DUP6 DUP4 SUB SWAP1 DUP7 ADD MSTORE PUSH2 0x1D4C JUMP JUMPDEST SWAP2 PUSH2 0x1C0 DUP1 SWAP3 ADD MLOAD SWAP2 DUP2 DUP5 SUB SWAP2 ADD MSTORE PUSH2 0x1EFF JUMP JUMPDEST SWAP10 ADD SWAP5 ADD SWAP5 ADD SWAP3 SWAP6 SWAP5 SWAP4 SWAP2 SWAP1 PUSH2 0x1F57 JUMP JUMPDEST SWAP4 SWAP3 SWAP2 PUSH2 0x20E4 SWAP1 PUSH2 0x20D6 PUSH1 0x40 SWAP4 PUSH1 0x60 DUP9 MSTORE PUSH1 0x60 DUP9 ADD SWAP1 PUSH2 0x1D4C JUMP JUMPDEST SWAP1 DUP7 DUP3 SUB PUSH1 0x20 DUP9 ADD MSTORE PUSH2 0x1D4C JUMP JUMPDEST SWAP4 ADD MSTORE JUMP JUMPDEST PUSH1 0x0 MSTORE PUSH1 0x0 PUSH1 0x20 MSTORE PUSH1 0x1 PUSH1 0xFF PUSH1 0x4 PUSH1 0x40 PUSH1 0x0 KECCAK256 ADD SLOAD AND EQ ISZERO PUSH1 0x0 EQ PUSH2 0x210D JUMPI PUSH1 0x0 SWAP1 JUMP JUMPDEST PUSH1 0x1 SWAP1 JUMP JUMPDEST PUSH1 0x1 PUSH1 0x1 PUSH1 0x40 SHL SUB DUP2 GT PUSH2 0x54F JUMPI PUSH1 0x5 SHL PUSH1 0x20 ADD SWAP1 JUMP JUMPDEST DUP2 DUP2 LT PUSH2 0x2134 JUMPI POP POP JUMP JUMPDEST PUSH1 0x0 DUP2 SSTORE PUSH1 0x1 ADD PUSH2 0x2129 JUMP JUMPDEST PUSH1 0x0 NOT DUP2 EQ PUSH2 0x1B79 JUMPI PUSH1 0x1 ADD SWAP1 JUMP JUMPDEST DUP1 SLOAD DUP3 LT ISZERO PUSH2 0x2167 JUMPI PUSH1 0x0 MSTORE PUSH1 0x20 PUSH1 0x0 KECCAK256 ADD SWAP1 PUSH1 0x0 SWAP1 JUMP JUMPDEST PUSH4 0x4E487B71 PUSH1 0xE0 SHL PUSH1 0x0 MSTORE PUSH1 0x32 PUSH1 0x4 MSTORE PUSH1 0x24 PUSH1 0x0 REVERT JUMPDEST DUP1 SLOAD PUSH1 0x1 PUSH1 0x40 SHL DUP2 LT ISZERO PUSH2 0x54F JUMPI PUSH2 0x219A SWAP2 PUSH1 0x1 DUP3 ADD DUP2 SSTORE PUSH2 0x214F JUMP JUMPDEST DUP2 SWAP3 SWAP2 SLOAD SWAP1 PUSH1 0x3 SHL SWAP2 DUP3 SHL SWAP2 PUSH1 0x0 NOT SWAP1 SHL NOT AND OR SWAP1 SSTORE JUMP JUMPDEST SWAP1 PUSH2 0x21BC DUP3 PUSH2 0x2112 JUMP JUMPDEST PUSH1 0x40 SWAP1 PUSH2 0x21CB DUP3 MLOAD SWAP2 DUP3 PUSH2 0x1DE2 JUMP JUMPDEST DUP4 DUP2 MSTORE DUP1 SWAP4 PUSH2 0x21DC PUSH1 0x1F NOT SWAP2 PUSH2 0x2112 JUMP JUMPDEST ADD SWAP2 PUSH1 0x0 JUMPDEST DUP4 DUP2 LT PUSH2 0x21EE JUMPI POP POP POP POP JUMP JUMPDEST PUSH1 0x20 SWAP1 DUP3 MLOAD PUSH2 0x21FC DUP2 PUSH2 0x1DAB JUMP JUMPDEST PUSH1 0x0 DUP2 MSTORE DUP3 PUSH1 0x0 DUP2 DUP4 ADD MSTORE PUSH1 0x60 DUP1 DUP7 DUP5 ADD MSTORE DUP1 DUP1 DUP5 ADD MSTORE DUP1 PUSH1 0x80 DUP5 ADD MSTORE DUP1 PUSH1 0xA0 DUP5 ADD MSTORE PUSH1 0x0 PUSH1 0xC0 DUP5 ADD MSTORE DUP1 PUSH1 0xE0 DUP5 ADD MSTORE PUSH1 0x0 PUSH2 0x100 DUP5 ADD MSTORE DUP1 PUSH2 0x120 DUP5 ADD MSTORE PUSH1 0x0 PUSH2 0x140 DUP5 ADD MSTORE DUP1 PUSH2 0x160 DUP5 ADD MSTORE DUP1 PUSH2 0x180 DUP5 ADD MSTORE DUP1 PUSH2 0x1A0 DUP5 ADD MSTORE PUSH2 0x1C0 DUP4 ADD MSTORE DUP3 DUP7 ADD ADD MSTORE ADD PUSH2 0x21E1 JUMP JUMPDEST DUP1 MLOAD DUP3 LT ISZERO PUSH2 0x2167 JUMPI PUSH1 0x20 SWAP2 PUSH1 0x5 SHL ADD ADD SWAP1 JUMP JUMPDEST SWAP1 PUSH1 0x40 MLOAD SWAP2 DUP3 DUP2 SLOAD SWAP2 DUP3 DUP3 MSTORE PUSH1 0x20 SWAP3 DUP4 DUP4 ADD SWAP2 PUSH1 0x0 MSTORE DUP4 PUSH1 0x0 KECCAK256 SWAP4 PUSH1 0x0 SWAP1 JUMPDEST DUP3 DUP3 LT PUSH2 0x22B2 JUMPI POP POP POP PUSH2 0x1E41 SWAP3 POP SUB DUP4 PUSH2 0x1DE2 JUMP JUMPDEST DUP6 SLOAD DUP5 MSTORE PUSH1 0x1 SWAP6 DUP7 ADD SWAP6 DUP9 SWAP6 POP SWAP4 DUP2 ADD SWAP4 SWAP1 SWAP2 ADD SWAP1 PUSH2 0x229C JUMP INVALID LOG2 PUSH5 0x6970667358 0x22 SLT KECCAK256 NOT DUP4 0xDD DUP9 BLOCKHASH PUSH16 0xBBB8FAFC8F58AD18696168F386871991 MSTORE8 BALANCE CALL PUSH28 0xB4E696FA407664736F6C634300081200330000000000000000000000 "},"methodIdentifiers":{"Rides(uint256)":"9cf242fb","Users(uint256)":"1e98fd1c","bookRide(uint256,uint256)":"2d452ed6","getBookedRides(uint256)":"b382c756","getFirstName(uint256)":"172a56c1","getHostedRides(uint256)":"b41bec5c","getIsHost(uint256)":"fa03b7e5","getIsPassenger(uint256)":"40f38553","getIsTrackingEnabled(uint256)":"d014921f","getIsTrackingUser(uint256)":"05db4bbc","getLastName(uint256)":"174029f6","getPass(uint256)":"55a6f86f","getPhone(uint256)":"2e7d44b5","getTracker(uint256)":"c3a83344","getTracking(uint256)":"ac785e39","isUserRegistered(uint256)":"e0a58ee1","publishRide(uint256,string,string,string,string,uint8,string,uint32,string,uint64,string,string,string,string)":"41daef4e","register(uint256,string,string,uint64,bool,uint256)":"c4aa95f0","searchRide(string)":"a6a37c6c"}}}}}