{"contracts/Carpool.sol":{"Carpool":{"abi":[{"inputs":[{"internalType":"uint256","name":"","type":"uint256"}],"name":"Rides","outputs":[{"internalType":"uint256","name":"id","type":"uint256"},{"internalType":"uint256","name":"rideHost","type":"uint256"},{"internalType":"string","name":"depAddress","type":"string"},{"internalType":"string","name":"desAddress","type":"string"},{"internalType":"string","name":"depCity","type":"string"},{"internalType":"string","name":"desCity","type":"string"},{"internalType":"uint8","name":"numberOfSeats","type":"uint8"},{"internalType":"string","name":"depTime","type":"string"},{"internalType":"uint32","name":"fare","type":"uint32"},{"internalType":"string","name":"rideHostName","type":"string"},{"internalType":"uint64","name":"rideHostPhone","type":"uint64"},{"internalType":"string","name":"hostVehicleName","type":"string"},{"internalType":"string","name":"hostVehicleNumber","type":"string"}],"stateMutability":"view","type":"function"},{"inputs":[{"internalType":"uint256","name":"","type":"uint256"}],"name":"Users","outputs":[{"internalType":"uint256","name":"pubKey","type":"uint256"},{"internalType":"uint64","name":"phone","type":"uint64"},{"internalType":"string","name":"fname","type":"string"},{"internalType":"string","name":"lname","type":"string"},{"internalType":"uint8","name":"isReg","type":"uint8"},{"internalType":"bool","name":"isTrackingEnabled","type":"bool"},{"internalType":"uint256","name":"tracker","type":"uint256"},{"internalType":"bool","name":"isTrackingUser","type":"bool"},{"internalType":"uint256","name":"tracking","type":"uint256"},{"internalType":"bool","name":"isHost","type":"bool"},{"internalType":"bool","name":"bookedRide","type":"bool"}],"stateMutability":"view","type":"function"},{"inputs":[{"internalType":"uint256","name":"_pubKey","type":"uint256"},{"internalType":"uint256","name":"_id","type":"uint256"}],"name":"bookRide","outputs":[],"stateMutability":"nonpayable","type":"function"},{"inputs":[{"internalType":"uint256","name":"_pubKey","type":"uint256"}],"name":"getBookedRides","outputs":[{"components":[{"internalType":"uint256","name":"id","type":"uint256"},{"internalType":"uint256","name":"rideHost","type":"uint256"},{"internalType":"string","name":"depAddress","type":"string"},{"internalType":"string","name":"desAddress","type":"string"},{"internalType":"string","name":"depCity","type":"string"},{"internalType":"string","name":"desCity","type":"string"},{"internalType":"uint8","name":"numberOfSeats","type":"uint8"},{"internalType":"string","name":"depTime","type":"string"},{"internalType":"uint32","name":"fare","type":"uint32"},{"internalType":"string","name":"rideHostName","type":"string"},{"internalType":"uint64","name":"rideHostPhone","type":"uint64"},{"internalType":"string","name":"hostVehicleName","type":"string"},{"internalType":"string","name":"hostVehicleNumber","type":"string"},{"internalType":"uint256[]","name":"passengers","type":"uint256[]"}],"internalType":"struct Carpool.Ride[]","name":"","type":"tuple[]"}],"stateMutability":"view","type":"function"},{"inputs":[{"internalType":"uint256","name":"_pubKey","type":"uint256"}],"name":"getFirstName","outputs":[{"internalType":"string","name":"","type":"string"}],"stateMutability":"view","type":"function"},{"inputs":[{"internalType":"uint256","name":"_pubKey","type":"uint256"}],"name":"getHostedRides","outputs":[{"components":[{"internalType":"uint256","name":"id","type":"uint256"},{"internalType":"uint256","name":"rideHost","type":"uint256"},{"internalType":"string","name":"depAddress","type":"string"},{"internalType":"string","name":"desAddress","type":"string"},{"internalType":"string","name":"depCity","type":"string"},{"internalType":"string","name":"desCity","type":"string"},{"internalType":"uint8","name":"numberOfSeats","type":"uint8"},{"internalType":"string","name":"depTime","type":"string"},{"internalType":"uint32","name":"fare","type":"uint32"},{"internalType":"string","name":"rideHostName","type":"string"},{"internalType":"uint64","name":"rideHostPhone","type":"uint64"},{"internalType":"string","name":"hostVehicleName","type":"string"},{"internalType":"string","name":"hostVehicleNumber","type":"string"},{"internalType":"uint256[]","name":"passengers","type":"uint256[]"}],"internalType":"struct Carpool.Ride[]","name":"","type":"tuple[]"}],"stateMutability":"view","type":"function"},{"inputs":[{"internalType":"uint256","name":"_pubKey","type":"uint256"}],"name":"getIsHost","outputs":[{"internalType":"bool","name":"","type":"bool"}],"stateMutability":"view","type":"function"},{"inputs":[{"internalType":"uint256","name":"_pubKey","type":"uint256"}],"name":"getIsPassenger","outputs":[{"internalType":"bool","name":"","type":"bool"}],"stateMutability":"view","type":"function"},{"inputs":[{"internalType":"uint256","name":"_pubKey","type":"uint256"}],"name":"getIsTrackingEnabled","outputs":[{"internalType":"bool","name":"","type":"bool"}],"stateMutability":"view","type":"function"},{"inputs":[{"internalType":"uint256","name":"_pubKey","type":"uint256"}],"name":"getIsTrackingUser","outputs":[{"internalType":"bool","name":"","type":"bool"}],"stateMutability":"view","type":"function"},{"inputs":[{"internalType":"uint256","name":"_pubKey","type":"uint256"}],"name":"getLastName","outputs":[{"internalType":"string","name":"","type":"string"}],"stateMutability":"view","type":"function"},{"inputs":[{"internalType":"uint256","name":"_id","type":"uint256"}],"name":"getPass","outputs":[{"internalType":"uint256[]","name":"","type":"uint256[]"}],"stateMutability":"view","type":"function"},{"inputs":[{"internalType":"uint256","name":"_pubKey","type":"uint256"}],"name":"getPhone","outputs":[{"internalType":"uint64","name":"","type":"uint64"}],"stateMutability":"view","type":"function"},{"inputs":[{"internalType":"uint256","name":"_pubKey","type":"uint256"}],"name":"getTracker","outputs":[{"internalType":"string","name":"","type":"string"},{"internalType":"string","name":"","type":"string"},{"internalType":"uint256","name":"","type":"uint256"}],"stateMutability":"view","type":"function"},{"inputs":[{"internalType":"uint256","name":"_pubKey","type":"uint256"}],"name":"getTracking","outputs":[{"internalType":"string","name":"","type":"string"},{"internalType":"string","name":"","type":"string"},{"internalType":"uint256","name":"","type":"uint256"}],"stateMutability":"view","type":"function"},{"inputs":[{"internalType":"uint256","name":"_pubKey","type":"uint256"}],"name":"isUserRegistered","outputs":[{"internalType":"bool","name":"","type":"bool"}],"stateMutability":"view","type":"function"},{"inputs":[{"internalType":"uint256","name":"_rideHost","type":"uint256"},{"internalType":"string","name":"_depAddress","type":"string"},{"internalType":"string","name":"_desAddress","type":"string"},{"internalType":"string","name":"_depCity","type":"string"},{"internalType":"string","name":"_desCity","type":"string"},{"internalType":"uint8","name":"_numberOfSeats","type":"uint8"},{"internalType":"string","name":"_depTime","type":"string"},{"internalType":"uint32","name":"_fare","type":"uint32"},{"internalType":"string","name":"_rideHostName","type":"string"},{"internalType":"uint64","name":"_rideHostPhone","type":"uint64"},{"internalType":"string","name":"_depDesCity","type":"string"},{"internalType":"string","name":"_hostVehicleName","type":"string"},{"internalType":"string","name":"_hostVehicleNumber","type":"string"}],"name":"publishRide","outputs":[],"stateMutability":"nonpayable","type":"function"},{"inputs":[{"internalType":"uint256","name":"_pubKey","type":"uint256"},{"internalType":"string","name":"_fName","type":"string"},{"internalType":"string","name":"_lname","type":"string"},{"internalType":"uint64","name":"_phone","type":"uint64"},{"internalType":"bool","name":"_isTrackingEnabled","type":"bool"},{"internalType":"uint256","name":"_tracker","type":"uint256"}],"name":"register","outputs":[],"stateMutability":"nonpayable","type":"function"},{"inputs":[{"internalType":"string","name":"_depDesCity","type":"string"}],"name":"searchRide","outputs":[{"components":[{"internalType":"uint256","name":"id","type":"uint256"},{"internalType":"uint256","name":"rideHost","type":"uint256"},{"internalType":"string","name":"depAddress","type":"string"},{"internalType":"string","name":"desAddress","type":"string"},{"internalType":"string","name":"depCity","type":"string"},{"internalType":"string","name":"desCity","type":"string"},{"internalType":"uint8","name":"numberOfSeats","type":"uint8"},{"internalType":"string","name":"depTime","type":"string"},{"internalType":"uint32","name":"fare","type":"uint32"},{"internalType":"string","name":"rideHostName","type":"string"},{"internalType":"uint64","name":"rideHostPhone","type":"uint64"},{"internalType":"string","name":"hostVehicleName","type":"string"},{"internalType":"string","name":"hostVehicleNumber","type":"string"},{"internalType":"uint256[]","name":"passengers","type":"uint256[]"}],"internalType":"struct Carpool.Ride[]","name":"","type":"tuple[]"}],"stateMutability":"view","type":"function"}],"evm":{"bytecode":{"linkReferences":{},"object":"6080806040523461001657612175908161001c8239f35b600080fdfe608080604052600436101561001357600080fd5b60003560e01c90816305db4bbc14611b7957508063172a56c114611b4a578063174029f614611b075780631e98fd1c14611a235780632d452ed6146119715780632e7d44b51461193957806340f385531461190557806355a6f86f146118c25780639cf242fb1461175e578063a6a37c6c146115d7578063ac785e3914611595578063b382c75614611476578063b41bec5c146112f5578063c3a833441461129b578063c4aa95f014610d65578063d014921f14610d19578063dc7f92c914610151578063e0a58ee1146101295763fa03b7e5146100f057600080fd5b34610124576020366003190112610124576004356000526000602052602060ff600860406000200154166040519015158152f35b600080fd5b34610124576020366003190112610124576020610147600435611f63565b6040519015158152f35b34610124576101a0366003190112610124576024356001600160401b03811161012457610182903690600401611d71565b6044356001600160401b038111610124576101a1903690600401611d71565b906064356001600160401b038111610124576101c1903690600401611d71565b6084356001600160401b038111610124576101e0903690600401611d71565b9060a4359160ff831683036101245760c4356001600160401b0381116101245761020e903690600401611d71565b60e43563ffffffff8116810361012457610104356001600160401b0381116101245761023e903690600401611d71565b9061012435926001600160401b0384168403610124576001600160401b036101443511610124576102753661014435600401611d71565b96610164356001600160401b03811161012457610296903690600401611d71565b95610184356001600160401b038111610124576102b7903690600401611d71565b976003546102c490611fba565b806003556040519a6102d58c611c5b565b60008c5260405181818093516020819301916102f092611bbd565b8101600281520360200190209061030691611ff7565b6004356000526000602052604060002060ff196008820154166001176008820155600354906009019061033891611ff7565b6003549b8c9b6040519d8e61034c81611c3f565b528d60043560208201526040015260608d015260808c015260a08b015260ff1660c08a015260e089015263ffffffff166101008801526101208701526001600160401b03166101408601526101608501526101808401526101a083015260005260016020526040600020815181556020820151600182015560408201519182516001600160401b03811161078a576103e76002840154611c05565b601f8111610ce4575b506020601f8211600114610c765781929394600092610c6b575b50508160011b916000199060031b1c19161760028301555b60608101519182516001600160401b03811161078a576104456003830154611c05565b601f8111610c36575b506020601f8211600114610bc85781929394600092610bbd575b50508160011b916000199060031b1c19161760038201555b60808201519182516001600160401b03811161078a576104a36004840154611c05565b601f8111610b88575b506020601f8211600114610b1a5781929394600092610b0f575b50508160011b916000199060031b1c19161760048301555b60a08101519182516001600160401b03811161078a576105016005830154611c05565b601f8111610ada575b506020601f8211600114610a6c5781929394600092610a61575b50508160011b916000199060031b1c19161760058201555b6006810160ff60c08401511660ff1982541617905560e08201519182516001600160401b03811161078a576105746007840154611c05565b601f8111610a2c575b506020601f82116001146109be57819293946000926109b3575b50508160011b916000199060031b1c19161760078301555b6008820163ffffffff6101008301511663ffffffff198254161790556101208101519182516001600160401b03811161078a576105ef6009830154611c05565b601f811161097e575b506020601f82116001146109105781929394600092610905575b50508160011b916000199060031b1c19161760098201555b600a81016001600160401b03610140840151166001600160401b03198254161790556101608201519182516001600160401b03811161078a57610670600b840154611c05565b601f81116108d0575b506020601f82116001146108625781929394600092610857575b50508160011b916000199060031b1c191617600b8301555b600c8201916101808201519283516001600160401b03811161078a576106d18254611c05565b601f811161081a575b506020601f82116001146107ab579080600d9493926101a096976000926107a0575b50508160011b916000199060031b1c19161790555b019101518051906001600160401b03821161078a57600160401b821161078a57602090835483855580841061076d575b50019160005260206000209160005b82811061075957005b600190602083519301928186015501610750565b610784908560005284846000209182019101611fa3565b84610741565b634e487b7160e01b600052604160045260246000fd5b0151905087806106fc565b601f198216958360005260206000209660005b8181106108025750966001928492600d9796956101a0999a106107e9575b505050811b019055610711565b015160001960f88460031b161c191690558780806107dc565b838301518955600190980197602093840193016107be565b61084790836000526020600020601f840160051c8101916020851061084d575b601f0160051c0190611fa3565b856106da565b909150819061083a565b015190508480610693565b600b840160005260206000209060005b601f19841681106108b85750600193949583601f1981161061089f575b505050811b01600b8301556106ab565b015160001960f88460031b161c1916905584808061088f565b9091602060018192858a015181550193019101610872565b6108ff90600b85016000526020600020601f840160051c8101916020851061084d57601f0160051c0190611fa3565b84610679565b015190508480610612565b6009830160005260206000209060005b601f19841681106109665750600193949583601f1981161061094d575b505050811b01600982015561062a565b015160001960f88460031b161c1916905584808061093d565b9091602060018192858a015181550193019101610920565b6109ad90600984016000526020600020601f840160051c8101916020851061084d57601f0160051c0190611fa3565b846105f8565b015190508480610597565b6007840160005260206000209060005b601f1984168110610a145750600193949583601f198116106109fb575b505050811b0160078301556105af565b015160001960f88460031b161c191690558480806109eb565b9091602060018192858a0151815501930191016109ce565b610a5b90600785016000526020600020601f840160051c8101916020851061084d57601f0160051c0190611fa3565b8461057d565b015190508480610524565b6005830160005260206000209060005b601f1984168110610ac25750600193949583601f19811610610aa9575b505050811b01600582015561053c565b015160001960f88460031b161c19169055848080610a99565b9091602060018192858a015181550193019101610a7c565b610b0990600584016000526020600020601f840160051c8101916020851061084d57601f0160051c0190611fa3565b8461050a565b0151905084806104c6565b6004840160005260206000209060005b601f1984168110610b705750600193949583601f19811610610b57575b505050811b0160048301556104de565b015160001960f88460031b161c19169055848080610b47565b9091602060018192858a015181550193019101610b2a565b610bb790600485016000526020600020601f840160051c8101916020851061084d57601f0160051c0190611fa3565b846104ac565b015190508480610468565b6003830160005260206000209060005b601f1984168110610c1e5750600193949583601f19811610610c05575b505050811b016003820155610480565b015160001960f88460031b161c19169055848080610bf5565b9091602060018192858a015181550193019101610bd8565b610c6590600384016000526020600020601f840160051c8101916020851061084d57601f0160051c0190611fa3565b8461044e565b01519050848061040a565b6002840160005260206000209060005b601f1984168110610ccc5750600193949583601f19811610610cb3575b505050811b016002830155610422565b015160001960f88460031b161c19169055848080610ca3565b9091602060018192858a015181550193019101610c86565b610d1390600285016000526020600020601f840160051c8101916020851061084d57601f0160051c0190611fa3565b846103f0565b346101245760203660031901126101245760006004356000526000602052600160ff60046040600020015460081c16151514610d5d575b6020906040519015158152f35b506001610d50565b346101245760c0366003190112610124576024356001600160401b03811161012457610d95903690600401611d71565b6044356001600160401b03811161012457610db4903690600401611d71565b90606435916001600160401b038316809303610124576084351515608435036101245760405190610de482611c5b565b6000825260405192610df584611c5b565b6000845260405194856101a08101106001600160401b036101a08801111761078a576101a08601604052600435865260208601526040850152606084015260016080840152608435151560a0840152600060c0840152600060e08401526000610100840152600061012084015261014083015260006101608301526101808201526004356000526000602052604060002081518155600181016001600160401b036020840151166001600160401b031982541617905560408201519182516001600160401b03811161078a57610ece6002840154611c05565b601f8111611266575b506020601f82116001146111f857819293946000926111ed575b50508160011b916000199060031b1c19161760028301555b60608101519182516001600160401b03811161078a57610f2c6003830154611c05565b601f81116111b8575b506020601f821160011461114a578192939460009261113f575b50508160011b916000199060031b1c19161760038201555b6004810160ff60808401511681549061ff0060a0860151151560081b169161ffff19161717905560c08201516005820155610fb760e08301511515600683019060ff801983541691151516179055565b6101008201516007820155610fe26101208301511515600883019060ff801983541691151516179055565b6101408201519081516001600160401b03811161078a57600160401b9283821161078a57602060098401918254848455808510611122575b500190600052602060002060005b83811061110e578686610180600b886110576101608601511515600a83019060ff801983541691151516179055565b019201518051916001600160401b03831161078a57821161078a5760209083548385558084106110f1575b50019160005260206000209160005b8281106110dd576084356110a157005b600435600052600060205260a43580600560406000200155600052604060002060068101600160ff198254161790556007600435910155600080f35b600190602083519301928186015501611091565b611108908560005284846000209182019101611fa3565b84611082565b600190602084519401938184015501611028565b611139908460005285846000209182019101611fa3565b8761101a565b015190508480610f4f565b6003830160005260206000209060005b601f19841681106111a05750600193949583601f19811610611187575b505050811b016003820155610f67565b015160001960f88460031b161c19169055848080611177565b9091602060018192858a01518155019301910161115a565b6111e790600384016000526020600020601f840160051c8101916020851061084d57601f0160051c0190611fa3565b84610f35565b015190508480610ef1565b6002840160005260206000209060005b601f198416811061124e5750600193949583601f19811610611235575b505050811b016002830155610f09565b015160001960f88460031b161c19169055848080611225565b9091602060018192858a015181550193019101611208565b61129590600285016000526020600020601f840160051c8101916020851061084d57601f0160051c0190611fa3565b84610ed7565b346101245760203660031901126101245760043560005260006020526005604060002001548060005260406000206112f16112e460036112dd60028501611c97565b9301611c97565b9260405193849384611f35565b0390f35b34610124576020806003193601126101245760043590816000526000815260098060406000200154916113278361202c565b9360005b84811061134057604051806112f18882611dc7565b61147190826000526000845261135c8186604060002001611fc9565b9054600391821b1c600052611450600d6001928388526113ab6040600020916040519561138887611c3f565b835487528301548a87015261139f60028401611c97565b60408701528201611c97565b60608501526113bc60048201611c97565b60808501526113cd60058201611c97565b60a085015260ff60068201541660c08501526113eb60078201611c97565b60e085015263ffffffff60088201541661010085015261140c898201611c97565b6101208501526001600160401b03600a82015416610140850152611432600b8201611c97565b610160850152611444600c8201611c97565b610180850152016120f0565b6101a082015261146082896120dc565b5261146b81886120dc565b50611fba565b61132b565b346101245760208060031936011261012457600435908160005260008152600b8060406000200154916114a88361202c565b9360005b8481106114c157604051806112f18882611dc7565b6115909082600052600084526114dd8186604060002001611fc9565b9054600391821b1c600052611450600d6001928388526115096040600020916040519561138887611c3f565b606085015261151a60048201611c97565b608085015261152b60058201611c97565b60a085015260ff60068201541660c085015261154960078201611c97565b60e085015263ffffffff60088201541661010085015261156b60098201611c97565b6101208501526001600160401b03600a82015416610140850152611432898201611c97565b6114ac565b346101245760203660031901126101245760043560005260006020526007604060002001548060005260406000206112f16112e460036112dd60028501611c97565b3461012457602080600319360112610124576001600160401b0360043581811161012457611609903690600401611d71565b916040519083519281850193611620818587611bbd565b830192828160029586815203019020549361163a8561202c565b9560005b86811061165357604051806112f18a82611dc7565b8061167b611759926040518881875161166d81838c611bbd565b81018c815203019020611fc9565b9054600391821b1c60005261173e600d600192838a526116bd604060002091604051956116a787611c3f565b835487528301548c87015261139f8d8401611c97565b60608501526116ce60048201611c97565b60808501526116df60058201611c97565b60a085015260ff60068201541660c08501526116fd60078201611c97565b60e085015263ffffffff60088201541661010085015261171f60098201611c97565b61012085015288600a82015416610140850152611432600b8201611c97565b6101a082015261174e828b6120dc565b5261146b818a6120dc565b61163e565b34610124576020366003190112610124576004356000526001602052604060002080546001820154916002810161179490611c97565b906117a160038201611c97565b6117ad60048301611c97565b6117b960058401611c97565b600684015460ff166117cd60078601611c97565b90600886015463ffffffff1692600987016117e790611c97565b94600a8801546001600160401b031696600b890161180490611c97565b98600c0161181190611c97565b996040519c8d9c8d5260208d01528b6101a06040819201528c0161183491611be0565b8b810360608d015261184591611be0565b8a810360808c015261185691611be0565b89810360a08b015261186791611be0565b9060c089015287810360e089015261187e91611be0565b9061010087015285810361012087015261189791611be0565b906101408501528381036101608501526118b091611be0565b8281036101808401526112f191611be0565b346101245760203660031901126101245760043560005260016020526112f16118f1600d6040600020016120f0565b604051918291602083526020830190611d3d565b34610124576020366003190112610124576004356000526000602052602060ff600a60406000200154166040519015158152f35b3461012457602036600319011261012457600435600052600060205260206001600160401b0360016040600020015416604051908152f35b3461012457604036600319011261012457600435602435806000526001602052604060002060ff6006820154166119a457005b82600d6119b19201611ff7565b80600052600160205260066040600020019182549060ff8216908115611a0d57611a0b94600b9360ff9384199485916000190116911617905560005260006020526040600020906001600a83019182541617905501611ff7565b005b634e487b7160e01b600052601160045260246000fd5b34610124576020366003190112610124576004356000526000602052604060002080546001600160401b0360018301541691611a6160028201611c97565b611a6d60038301611c97565b91600481015492600582015460ff6006840154169060ff611acd600786015494611abf83600a8160088b01541699015416986040519c8d9c8d5260208d015260408c61016091829101528c0190611be0565b908a820360608c0152611be0565b9681811660808a015260081c16151560a088015260c0870152151560e0860152610100850152151561012084015215156101408301520390f35b346101245760203660031901126101245760043560005260006020526112f1611b366003604060002001611c97565b604051918291602083526020830190611be0565b346101245760203660031901126101245760043560005260006020526112f1611b366002604060002001611c97565b3461012457602036600319011261012457602090600060043560005260008352600160ff60066040600020015416151514611bb5575b15158152f35b506001611baf565b60005b838110611bd05750506000910152565b8181015183820152602001611bc0565b90602091611bf981518092818552858086019101611bbd565b601f01601f1916010190565b90600182811c92168015611c35575b6020831014611c1f57565b634e487b7160e01b600052602260045260246000fd5b91607f1691611c14565b6101c081019081106001600160401b0382111761078a57604052565b602081019081106001600160401b0382111761078a57604052565b90601f801991011681019081106001600160401b0382111761078a57604052565b9060405191826000825492611cab84611c05565b908184526001948581169081600014611d1a5750600114611cd7575b5050611cd592500383611c76565b565b9093915060005260209081600020936000915b818310611d02575050611cd593508201013880611cc7565b85548884018501529485019487945091830191611cea565b915050611cd594506020925060ff191682840152151560051b8201013880611cc7565b90815180825260208080930193019160005b828110611d5d575050505090565b835185529381019392810192600101611d4f565b81601f82011215610124578035906001600160401b03821161078a5760405192611da5601f8401601f191660200185611c76565b8284526020838301011161012457816000926020809301838601378301015290565b602080820190808352835180925260409283810182858560051b8401019601946000925b858410611dfc575050505050505090565b909192939495968580611f2460019386611f10611efc611ed48f611e8f611e7c611e698f611eaf948f91611e5692603f19908d03019052519889518b528c8a01518d8c0152808a0151906101c080918d01528b0190611be0565b6060808a0151908b8303908c0152611be0565b608080890151908a8303908b0152611be0565b60a08088015190898303908a0152611be0565b60c060ff81880151169088015260e0808701519088830390890152611be0565b61010063ffffffff818701511690870152610120808601519087830390880152611be0565b6101406001600160401b03818601511690860152610160808501519086830390870152611be0565b610180808401519085830390860152611be0565b916101a08092015191818403910152611d3d565b990194019401929594939190611deb565b939291611f5e90611f50604093606088526060880190611be0565b908682036020880152611be0565b930152565b6000526000602052600160ff600460406000200154161415600014611f8757600090565b600190565b6001600160401b03811161078a5760051b60200190565b818110611fae575050565b60008155600101611fa3565b6000198114611a0d5760010190565b8054821015611fe15760005260206000200190600090565b634e487b7160e01b600052603260045260246000fd5b8054600160401b81101561078a5761201491600182018155611fc9565b819291549060031b91821b91600019901b1916179055565b9061203682611f8c565b60409061204582519182611c76565b8381528093612056601f1991611f8c565b019160005b8381106120685750505050565b602090825161207681611c3f565b60008152826000818301526060808684015280808401528060808401528060a0840152600060c08401528060e0840152600061010084015280610120840152600061014084015280610160840152806101808401526101a083015282860101520161205b565b8051821015611fe15760209160051b010190565b9060405191828154918282526020928383019160005283600020936000905b82821061212557505050611cd592500383611c76565b85548452600195860195889550938101939091019061210f56fea2646970667358221220023f6caaf2062ffe06ee7d91754d30be0515b4722509efee82c51796b6de820c64736f6c63430008120033","opcodes":"PUSH1 0x80 DUP1 PUSH1 0x40 MSTORE CALLVALUE PUSH2 0x16 JUMPI PUSH2 0x2175 SWAP1 DUP2 PUSH2 0x1C DUP3 CODECOPY RETURN JUMPDEST PUSH1 0x0 DUP1 REVERT INVALID PUSH1 0x80 DUP1 PUSH1 0x40 MSTORE PUSH1 0x4 CALLDATASIZE LT ISZERO PUSH2 0x13 JUMPI PUSH1 0x0 DUP1 REVERT JUMPDEST PUSH1 0x0 CALLDATALOAD PUSH1 0xE0 SHR SWAP1 DUP2 PUSH4 0x5DB4BBC EQ PUSH2 0x1B79 JUMPI POP DUP1 PUSH4 0x172A56C1 EQ PUSH2 0x1B4A JUMPI DUP1 PUSH4 0x174029F6 EQ PUSH2 0x1B07 JUMPI DUP1 PUSH4 0x1E98FD1C EQ PUSH2 0x1A23 JUMPI DUP1 PUSH4 0x2D452ED6 EQ PUSH2 0x1971 JUMPI DUP1 PUSH4 0x2E7D44B5 EQ PUSH2 0x1939 JUMPI DUP1 PUSH4 0x40F38553 EQ PUSH2 0x1905 JUMPI DUP1 PUSH4 0x55A6F86F EQ PUSH2 0x18C2 JUMPI DUP1 PUSH4 0x9CF242FB EQ PUSH2 0x175E JUMPI DUP1 PUSH4 0xA6A37C6C EQ PUSH2 0x15D7 JUMPI DUP1 PUSH4 0xAC785E39 EQ PUSH2 0x1595 JUMPI DUP1 PUSH4 0xB382C756 EQ PUSH2 0x1476 JUMPI DUP1 PUSH4 0xB41BEC5C EQ PUSH2 0x12F5 JUMPI DUP1 PUSH4 0xC3A83344 EQ PUSH2 0x129B JUMPI DUP1 PUSH4 0xC4AA95F0 EQ PUSH2 0xD65 JUMPI DUP1 PUSH4 0xD014921F EQ PUSH2 0xD19 JUMPI DUP1 PUSH4 0xDC7F92C9 EQ PUSH2 0x151 JUMPI DUP1 PUSH4 0xE0A58EE1 EQ PUSH2 0x129 JUMPI PUSH4 0xFA03B7E5 EQ PUSH2 0xF0 JUMPI PUSH1 0x0 DUP1 REVERT JUMPDEST CALLVALUE PUSH2 0x124 JUMPI PUSH1 0x20 CALLDATASIZE PUSH1 0x3 NOT ADD SLT PUSH2 0x124 JUMPI PUSH1 0x4 CALLDATALOAD PUSH1 0x0 MSTORE PUSH1 0x0 PUSH1 0x20 MSTORE PUSH1 0x20 PUSH1 0xFF PUSH1 0x8 PUSH1 0x40 PUSH1 0x0 KECCAK256 ADD SLOAD AND PUSH1 0x40 MLOAD SWAP1 ISZERO ISZERO DUP2 MSTORE RETURN JUMPDEST PUSH1 0x0 DUP1 REVERT JUMPDEST CALLVALUE PUSH2 0x124 JUMPI PUSH1 0x20 CALLDATASIZE PUSH1 0x3 NOT ADD SLT PUSH2 0x124 JUMPI PUSH1 0x20 PUSH2 0x147 PUSH1 0x4 CALLDATALOAD PUSH2 0x1F63 JUMP JUMPDEST PUSH1 0x40 MLOAD SWAP1 ISZERO ISZERO DUP2 MSTORE RETURN JUMPDEST CALLVALUE PUSH2 0x124 JUMPI PUSH2 0x1A0 CALLDATASIZE PUSH1 0x3 NOT ADD SLT PUSH2 0x124 JUMPI PUSH1 0x24 CALLDATALOAD PUSH1 0x1 PUSH1 0x1 PUSH1 0x40 SHL SUB DUP2 GT PUSH2 0x124 JUMPI PUSH2 0x182 SWAP1 CALLDATASIZE SWAP1 PUSH1 0x4 ADD PUSH2 0x1D71 JUMP JUMPDEST PUSH1 0x44 CALLDATALOAD PUSH1 0x1 PUSH1 0x1 PUSH1 0x40 SHL SUB DUP2 GT PUSH2 0x124 JUMPI PUSH2 0x1A1 SWAP1 CALLDATASIZE SWAP1 PUSH1 0x4 ADD PUSH2 0x1D71 JUMP JUMPDEST SWAP1 PUSH1 0x64 CALLDATALOAD PUSH1 0x1 PUSH1 0x1 PUSH1 0x40 SHL SUB DUP2 GT PUSH2 0x124 JUMPI PUSH2 0x1C1 SWAP1 CALLDATASIZE SWAP1 PUSH1 0x4 ADD PUSH2 0x1D71 JUMP JUMPDEST PUSH1 0x84 CALLDATALOAD PUSH1 0x1 PUSH1 0x1 PUSH1 0x40 SHL SUB DUP2 GT PUSH2 0x124 JUMPI PUSH2 0x1E0 SWAP1 CALLDATASIZE SWAP1 PUSH1 0x4 ADD PUSH2 0x1D71 JUMP JUMPDEST SWAP1 PUSH1 0xA4 CALLDATALOAD SWAP2 PUSH1 0xFF DUP4 AND DUP4 SUB PUSH2 0x124 JUMPI PUSH1 0xC4 CALLDATALOAD PUSH1 0x1 PUSH1 0x1 PUSH1 0x40 SHL SUB DUP2 GT PUSH2 0x124 JUMPI PUSH2 0x20E SWAP1 CALLDATASIZE SWAP1 PUSH1 0x4 ADD PUSH2 0x1D71 JUMP JUMPDEST PUSH1 0xE4 CALLDATALOAD PUSH4 0xFFFFFFFF DUP2 AND DUP2 SUB PUSH2 0x124 JUMPI PUSH2 0x104 CALLDATALOAD PUSH1 0x1 PUSH1 0x1 PUSH1 0x40 SHL SUB DUP2 GT PUSH2 0x124 JUMPI PUSH2 0x23E SWAP1 CALLDATASIZE SWAP1 PUSH1 0x4 ADD PUSH2 0x1D71 JUMP JUMPDEST SWAP1 PUSH2 0x124 CALLDATALOAD SWAP3 PUSH1 0x1 PUSH1 0x1 PUSH1 0x40 SHL SUB DUP5 AND DUP5 SUB PUSH2 0x124 JUMPI PUSH1 0x1 PUSH1 0x1 PUSH1 0x40 SHL SUB PUSH2 0x144 CALLDATALOAD GT PUSH2 0x124 JUMPI PUSH2 0x275 CALLDATASIZE PUSH2 0x144 CALLDATALOAD PUSH1 0x4 ADD PUSH2 0x1D71 JUMP JUMPDEST SWAP7 PUSH2 0x164 CALLDATALOAD PUSH1 0x1 PUSH1 0x1 PUSH1 0x40 SHL SUB DUP2 GT PUSH2 0x124 JUMPI PUSH2 0x296 SWAP1 CALLDATASIZE SWAP1 PUSH1 0x4 ADD PUSH2 0x1D71 JUMP JUMPDEST SWAP6 PUSH2 0x184 CALLDATALOAD PUSH1 0x1 PUSH1 0x1 PUSH1 0x40 SHL SUB DUP2 GT PUSH2 0x124 JUMPI PUSH2 0x2B7 SWAP1 CALLDATASIZE SWAP1 PUSH1 0x4 ADD PUSH2 0x1D71 JUMP JUMPDEST SWAP8 PUSH1 0x3 SLOAD PUSH2 0x2C4 SWAP1 PUSH2 0x1FBA JUMP JUMPDEST DUP1 PUSH1 0x3 SSTORE PUSH1 0x40 MLOAD SWAP11 PUSH2 0x2D5 DUP13 PUSH2 0x1C5B JUMP JUMPDEST PUSH1 0x0 DUP13 MSTORE PUSH1 0x40 MLOAD DUP2 DUP2 DUP1 SWAP4 MLOAD PUSH1 0x20 DUP2 SWAP4 ADD SWAP2 PUSH2 0x2F0 SWAP3 PUSH2 0x1BBD JUMP JUMPDEST DUP2 ADD PUSH1 0x2 DUP2 MSTORE SUB PUSH1 0x20 ADD SWAP1 KECCAK256 SWAP1 PUSH2 0x306 SWAP2 PUSH2 0x1FF7 JUMP JUMPDEST PUSH1 0x4 CALLDATALOAD PUSH1 0x0 MSTORE PUSH1 0x0 PUSH1 0x20 MSTORE PUSH1 0x40 PUSH1 0x0 KECCAK256 PUSH1 0xFF NOT PUSH1 0x8 DUP3 ADD SLOAD AND PUSH1 0x1 OR PUSH1 0x8 DUP3 ADD SSTORE PUSH1 0x3 SLOAD SWAP1 PUSH1 0x9 ADD SWAP1 PUSH2 0x338 SWAP2 PUSH2 0x1FF7 JUMP JUMPDEST PUSH1 0x3 SLOAD SWAP12 DUP13 SWAP12 PUSH1 0x40 MLOAD SWAP14 DUP15 PUSH2 0x34C DUP2 PUSH2 0x1C3F JUMP JUMPDEST MSTORE DUP14 PUSH1 0x4 CALLDATALOAD PUSH1 0x20 DUP3 ADD MSTORE PUSH1 0x40 ADD MSTORE PUSH1 0x60 DUP14 ADD MSTORE PUSH1 0x80 DUP13 ADD MSTORE PUSH1 0xA0 DUP12 ADD MSTORE PUSH1 0xFF AND PUSH1 0xC0 DUP11 ADD MSTORE PUSH1 0xE0 DUP10 ADD MSTORE PUSH4 0xFFFFFFFF AND PUSH2 0x100 DUP9 ADD MSTORE PUSH2 0x120 DUP8 ADD MSTORE PUSH1 0x1 PUSH1 0x1 PUSH1 0x40 SHL SUB AND PUSH2 0x140 DUP7 ADD MSTORE PUSH2 0x160 DUP6 ADD MSTORE PUSH2 0x180 DUP5 ADD MSTORE PUSH2 0x1A0 DUP4 ADD MSTORE PUSH1 0x0 MSTORE PUSH1 0x1 PUSH1 0x20 MSTORE PUSH1 0x40 PUSH1 0x0 KECCAK256 DUP2 MLOAD DUP2 SSTORE PUSH1 0x20 DUP3 ADD MLOAD PUSH1 0x1 DUP3 ADD SSTORE PUSH1 0x40 DUP3 ADD MLOAD SWAP2 DUP3 MLOAD PUSH1 0x1 PUSH1 0x1 PUSH1 0x40 SHL SUB DUP2 GT PUSH2 0x78A JUMPI PUSH2 0x3E7 PUSH1 0x2 DUP5 ADD SLOAD PUSH2 0x1C05 JUMP JUMPDEST PUSH1 0x1F DUP2 GT PUSH2 0xCE4 JUMPI JUMPDEST POP PUSH1 0x20 PUSH1 0x1F DUP3 GT PUSH1 0x1 EQ PUSH2 0xC76 JUMPI DUP2 SWAP3 SWAP4 SWAP5 PUSH1 0x0 SWAP3 PUSH2 0xC6B JUMPI JUMPDEST POP POP DUP2 PUSH1 0x1 SHL SWAP2 PUSH1 0x0 NOT SWAP1 PUSH1 0x3 SHL SHR NOT AND OR PUSH1 0x2 DUP4 ADD SSTORE JUMPDEST PUSH1 0x60 DUP2 ADD MLOAD SWAP2 DUP3 MLOAD PUSH1 0x1 PUSH1 0x1 PUSH1 0x40 SHL SUB DUP2 GT PUSH2 0x78A JUMPI PUSH2 0x445 PUSH1 0x3 DUP4 ADD SLOAD PUSH2 0x1C05 JUMP JUMPDEST PUSH1 0x1F DUP2 GT PUSH2 0xC36 JUMPI JUMPDEST POP PUSH1 0x20 PUSH1 0x1F DUP3 GT PUSH1 0x1 EQ PUSH2 0xBC8 JUMPI DUP2 SWAP3 SWAP4 SWAP5 PUSH1 0x0 SWAP3 PUSH2 0xBBD JUMPI JUMPDEST POP POP DUP2 PUSH1 0x1 SHL SWAP2 PUSH1 0x0 NOT SWAP1 PUSH1 0x3 SHL SHR NOT AND OR PUSH1 0x3 DUP3 ADD SSTORE JUMPDEST PUSH1 0x80 DUP3 ADD MLOAD SWAP2 DUP3 MLOAD PUSH1 0x1 PUSH1 0x1 PUSH1 0x40 SHL SUB DUP2 GT PUSH2 0x78A JUMPI PUSH2 0x4A3 PUSH1 0x4 DUP5 ADD SLOAD PUSH2 0x1C05 JUMP JUMPDEST PUSH1 0x1F DUP2 GT PUSH2 0xB88 JUMPI JUMPDEST POP PUSH1 0x20 PUSH1 0x1F DUP3 GT PUSH1 0x1 EQ PUSH2 0xB1A JUMPI DUP2 SWAP3 SWAP4 SWAP5 PUSH1 0x0 SWAP3 PUSH2 0xB0F JUMPI JUMPDEST POP POP DUP2 PUSH1 0x1 SHL SWAP2 PUSH1 0x0 NOT SWAP1 PUSH1 0x3 SHL SHR NOT AND OR PUSH1 0x4 DUP4 ADD SSTORE JUMPDEST PUSH1 0xA0 DUP2 ADD MLOAD SWAP2 DUP3 MLOAD PUSH1 0x1 PUSH1 0x1 PUSH1 0x40 SHL SUB DUP2 GT PUSH2 0x78A JUMPI PUSH2 0x501 PUSH1 0x5 DUP4 ADD SLOAD PUSH2 0x1C05 JUMP JUMPDEST PUSH1 0x1F DUP2 GT PUSH2 0xADA JUMPI JUMPDEST POP PUSH1 0x20 PUSH1 0x1F DUP3 GT PUSH1 0x1 EQ PUSH2 0xA6C JUMPI DUP2 SWAP3 SWAP4 SWAP5 PUSH1 0x0 SWAP3 PUSH2 0xA61 JUMPI JUMPDEST POP POP DUP2 PUSH1 0x1 SHL SWAP2 PUSH1 0x0 NOT SWAP1 PUSH1 0x3 SHL SHR NOT AND OR PUSH1 0x5 DUP3 ADD SSTORE JUMPDEST PUSH1 0x6 DUP2 ADD PUSH1 0xFF PUSH1 0xC0 DUP5 ADD MLOAD AND PUSH1 0xFF NOT DUP3 SLOAD AND OR SWAP1 SSTORE PUSH1 0xE0 DUP3 ADD MLOAD SWAP2 DUP3 MLOAD PUSH1 0x1 PUSH1 0x1 PUSH1 0x40 SHL SUB DUP2 GT PUSH2 0x78A JUMPI PUSH2 0x574 PUSH1 0x7 DUP5 ADD SLOAD PUSH2 0x1C05 JUMP JUMPDEST PUSH1 0x1F DUP2 GT PUSH2 0xA2C JUMPI JUMPDEST POP PUSH1 0x20 PUSH1 0x1F DUP3 GT PUSH1 0x1 EQ PUSH2 0x9BE JUMPI DUP2 SWAP3 SWAP4 SWAP5 PUSH1 0x0 SWAP3 PUSH2 0x9B3 JUMPI JUMPDEST POP POP DUP2 PUSH1 0x1 SHL SWAP2 PUSH1 0x0 NOT SWAP1 PUSH1 0x3 SHL SHR NOT AND OR PUSH1 0x7 DUP4 ADD SSTORE JUMPDEST PUSH1 0x8 DUP3 ADD PUSH4 0xFFFFFFFF PUSH2 0x100 DUP4 ADD MLOAD AND PUSH4 0xFFFFFFFF NOT DUP3 SLOAD AND OR SWAP1 SSTORE PUSH2 0x120 DUP2 ADD MLOAD SWAP2 DUP3 MLOAD PUSH1 0x1 PUSH1 0x1 PUSH1 0x40 SHL SUB DUP2 GT PUSH2 0x78A JUMPI PUSH2 0x5EF PUSH1 0x9 DUP4 ADD SLOAD PUSH2 0x1C05 JUMP JUMPDEST PUSH1 0x1F DUP2 GT PUSH2 0x97E JUMPI JUMPDEST POP PUSH1 0x20 PUSH1 0x1F DUP3 GT PUSH1 0x1 EQ PUSH2 0x910 JUMPI DUP2 SWAP3 SWAP4 SWAP5 PUSH1 0x0 SWAP3 PUSH2 0x905 JUMPI JUMPDEST POP POP DUP2 PUSH1 0x1 SHL SWAP2 PUSH1 0x0 NOT SWAP1 PUSH1 0x3 SHL SHR NOT AND OR PUSH1 0x9 DUP3 ADD SSTORE JUMPDEST PUSH1 0xA DUP2 ADD PUSH1 0x1 PUSH1 0x1 PUSH1 0x40 SHL SUB PUSH2 0x140 DUP5 ADD MLOAD AND PUSH1 0x1 PUSH1 0x1 PUSH1 0x40 SHL SUB NOT DUP3 SLOAD AND OR SWAP1 SSTORE PUSH2 0x160 DUP3 ADD MLOAD SWAP2 DUP3 MLOAD PUSH1 0x1 PUSH1 0x1 PUSH1 0x40 SHL SUB DUP2 GT PUSH2 0x78A JUMPI PUSH2 0x670 PUSH1 0xB DUP5 ADD SLOAD PUSH2 0x1C05 JUMP JUMPDEST PUSH1 0x1F DUP2 GT PUSH2 0x8D0 JUMPI JUMPDEST POP PUSH1 0x20 PUSH1 0x1F DUP3 GT PUSH1 0x1 EQ PUSH2 0x862 JUMPI DUP2 SWAP3 SWAP4 SWAP5 PUSH1 0x0 SWAP3 PUSH2 0x857 JUMPI JUMPDEST POP POP DUP2 PUSH1 0x1 SHL SWAP2 PUSH1 0x0 NOT SWAP1 PUSH1 0x3 SHL SHR NOT AND OR PUSH1 0xB DUP4 ADD SSTORE JUMPDEST PUSH1 0xC DUP3 ADD SWAP2 PUSH2 0x180 DUP3 ADD MLOAD SWAP3 DUP4 MLOAD PUSH1 0x1 PUSH1 0x1 PUSH1 0x40 SHL SUB DUP2 GT PUSH2 0x78A JUMPI PUSH2 0x6D1 DUP3 SLOAD PUSH2 0x1C05 JUMP JUMPDEST PUSH1 0x1F DUP2 GT PUSH2 0x81A JUMPI JUMPDEST POP PUSH1 0x20 PUSH1 0x1F DUP3 GT PUSH1 0x1 EQ PUSH2 0x7AB JUMPI SWAP1 DUP1 PUSH1 0xD SWAP5 SWAP4 SWAP3 PUSH2 0x1A0 SWAP7 SWAP8 PUSH1 0x0 SWAP3 PUSH2 0x7A0 JUMPI JUMPDEST POP POP DUP2 PUSH1 0x1 SHL SWAP2 PUSH1 0x0 NOT SWAP1 PUSH1 0x3 SHL SHR NOT AND OR SWAP1 SSTORE JUMPDEST ADD SWAP2 ADD MLOAD DUP1 MLOAD SWAP1 PUSH1 0x1 PUSH1 0x1 PUSH1 0x40 SHL SUB DUP3 GT PUSH2 0x78A JUMPI PUSH1 0x1 PUSH1 0x40 SHL DUP3 GT PUSH2 0x78A JUMPI PUSH1 0x20 SWAP1 DUP4 SLOAD DUP4 DUP6 SSTORE DUP1 DUP5 LT PUSH2 0x76D JUMPI JUMPDEST POP ADD SWAP2 PUSH1 0x0 MSTORE PUSH1 0x20 PUSH1 0x0 KECCAK256 SWAP2 PUSH1 0x0 JUMPDEST DUP3 DUP2 LT PUSH2 0x759 JUMPI STOP JUMPDEST PUSH1 0x1 SWAP1 PUSH1 0x20 DUP4 MLOAD SWAP4 ADD SWAP3 DUP2 DUP7 ADD SSTORE ADD PUSH2 0x750 JUMP JUMPDEST PUSH2 0x784 SWAP1 DUP6 PUSH1 0x0 MSTORE DUP5 DUP5 PUSH1 0x0 KECCAK256 SWAP2 DUP3 ADD SWAP2 ADD PUSH2 0x1FA3 JUMP JUMPDEST DUP5 PUSH2 0x741 JUMP JUMPDEST PUSH4 0x4E487B71 PUSH1 0xE0 SHL PUSH1 0x0 MSTORE PUSH1 0x41 PUSH1 0x4 MSTORE PUSH1 0x24 PUSH1 0x0 REVERT JUMPDEST ADD MLOAD SWAP1 POP DUP8 DUP1 PUSH2 0x6FC JUMP JUMPDEST PUSH1 0x1F NOT DUP3 AND SWAP6 DUP4 PUSH1 0x0 MSTORE PUSH1 0x20 PUSH1 0x0 KECCAK256 SWAP7 PUSH1 0x0 JUMPDEST DUP2 DUP2 LT PUSH2 0x802 JUMPI POP SWAP7 PUSH1 0x1 SWAP3 DUP5 SWAP3 PUSH1 0xD SWAP8 SWAP7 SWAP6 PUSH2 0x1A0 SWAP10 SWAP11 LT PUSH2 0x7E9 JUMPI JUMPDEST POP POP POP DUP2 SHL ADD SWAP1 SSTORE PUSH2 0x711 JUMP JUMPDEST ADD MLOAD PUSH1 0x0 NOT PUSH1 0xF8 DUP5 PUSH1 0x3 SHL AND SHR NOT AND SWAP1 SSTORE DUP8 DUP1 DUP1 PUSH2 0x7DC JUMP JUMPDEST DUP4 DUP4 ADD MLOAD DUP10 SSTORE PUSH1 0x1 SWAP1 SWAP9 ADD SWAP8 PUSH1 0x20 SWAP4 DUP5 ADD SWAP4 ADD PUSH2 0x7BE JUMP JUMPDEST PUSH2 0x847 SWAP1 DUP4 PUSH1 0x0 MSTORE PUSH1 0x20 PUSH1 0x0 KECCAK256 PUSH1 0x1F DUP5 ADD PUSH1 0x5 SHR DUP2 ADD SWAP2 PUSH1 0x20 DUP6 LT PUSH2 0x84D JUMPI JUMPDEST PUSH1 0x1F ADD PUSH1 0x5 SHR ADD SWAP1 PUSH2 0x1FA3 JUMP JUMPDEST DUP6 PUSH2 0x6DA JUMP JUMPDEST SWAP1 SWAP2 POP DUP2 SWAP1 PUSH2 0x83A JUMP JUMPDEST ADD MLOAD SWAP1 POP DUP5 DUP1 PUSH2 0x693 JUMP JUMPDEST PUSH1 0xB DUP5 ADD PUSH1 0x0 MSTORE PUSH1 0x20 PUSH1 0x0 KECCAK256 SWAP1 PUSH1 0x0 JUMPDEST PUSH1 0x1F NOT DUP5 AND DUP2 LT PUSH2 0x8B8 JUMPI POP PUSH1 0x1 SWAP4 SWAP5 SWAP6 DUP4 PUSH1 0x1F NOT DUP2 AND LT PUSH2 0x89F JUMPI JUMPDEST POP POP POP DUP2 SHL ADD PUSH1 0xB DUP4 ADD SSTORE PUSH2 0x6AB JUMP JUMPDEST ADD MLOAD PUSH1 0x0 NOT PUSH1 0xF8 DUP5 PUSH1 0x3 SHL AND SHR NOT AND SWAP1 SSTORE DUP5 DUP1 DUP1 PUSH2 0x88F JUMP JUMPDEST SWAP1 SWAP2 PUSH1 0x20 PUSH1 0x1 DUP2 SWAP3 DUP6 DUP11 ADD MLOAD DUP2 SSTORE ADD SWAP4 ADD SWAP2 ADD PUSH2 0x872 JUMP JUMPDEST PUSH2 0x8FF SWAP1 PUSH1 0xB DUP6 ADD PUSH1 0x0 MSTORE PUSH1 0x20 PUSH1 0x0 KECCAK256 PUSH1 0x1F DUP5 ADD PUSH1 0x5 SHR DUP2 ADD SWAP2 PUSH1 0x20 DUP6 LT PUSH2 0x84D JUMPI PUSH1 0x1F ADD PUSH1 0x5 SHR ADD SWAP1 PUSH2 0x1FA3 JUMP JUMPDEST DUP5 PUSH2 0x679 JUMP JUMPDEST ADD MLOAD SWAP1 POP DUP5 DUP1 PUSH2 0x612 JUMP JUMPDEST PUSH1 0x9 DUP4 ADD PUSH1 0x0 MSTORE PUSH1 0x20 PUSH1 0x0 KECCAK256 SWAP1 PUSH1 0x0 JUMPDEST PUSH1 0x1F NOT DUP5 AND DUP2 LT PUSH2 0x966 JUMPI POP PUSH1 0x1 SWAP4 SWAP5 SWAP6 DUP4 PUSH1 0x1F NOT DUP2 AND LT PUSH2 0x94D JUMPI JUMPDEST POP POP POP DUP2 SHL ADD PUSH1 0x9 DUP3 ADD SSTORE PUSH2 0x62A JUMP JUMPDEST ADD MLOAD PUSH1 0x0 NOT PUSH1 0xF8 DUP5 PUSH1 0x3 SHL AND SHR NOT AND SWAP1 SSTORE DUP5 DUP1 DUP1 PUSH2 0x93D JUMP JUMPDEST SWAP1 SWAP2 PUSH1 0x20 PUSH1 0x1 DUP2 SWAP3 DUP6 DUP11 ADD MLOAD DUP2 SSTORE ADD SWAP4 ADD SWAP2 ADD PUSH2 0x920 JUMP JUMPDEST PUSH2 0x9AD SWAP1 PUSH1 0x9 DUP5 ADD PUSH1 0x0 MSTORE PUSH1 0x20 PUSH1 0x0 KECCAK256 PUSH1 0x1F DUP5 ADD PUSH1 0x5 SHR DUP2 ADD SWAP2 PUSH1 0x20 DUP6 LT PUSH2 0x84D JUMPI PUSH1 0x1F ADD PUSH1 0x5 SHR ADD SWAP1 PUSH2 0x1FA3 JUMP JUMPDEST DUP5 PUSH2 0x5F8 JUMP JUMPDEST ADD MLOAD SWAP1 POP DUP5 DUP1 PUSH2 0x597 JUMP JUMPDEST PUSH1 0x7 DUP5 ADD PUSH1 0x0 MSTORE PUSH1 0x20 PUSH1 0x0 KECCAK256 SWAP1 PUSH1 0x0 JUMPDEST PUSH1 0x1F NOT DUP5 AND DUP2 LT PUSH2 0xA14 JUMPI POP PUSH1 0x1 SWAP4 SWAP5 SWAP6 DUP4 PUSH1 0x1F NOT DUP2 AND LT PUSH2 0x9FB JUMPI JUMPDEST POP POP POP DUP2 SHL ADD PUSH1 0x7 DUP4 ADD SSTORE PUSH2 0x5AF JUMP JUMPDEST ADD MLOAD PUSH1 0x0 NOT PUSH1 0xF8 DUP5 PUSH1 0x3 SHL AND SHR NOT AND SWAP1 SSTORE DUP5 DUP1 DUP1 PUSH2 0x9EB JUMP JUMPDEST SWAP1 SWAP2 PUSH1 0x20 PUSH1 0x1 DUP2 SWAP3 DUP6 DUP11 ADD MLOAD DUP2 SSTORE ADD SWAP4 ADD SWAP2 ADD PUSH2 0x9CE JUMP JUMPDEST PUSH2 0xA5B SWAP1 PUSH1 0x7 DUP6 ADD PUSH1 0x0 MSTORE PUSH1 0x20 PUSH1 0x0 KECCAK256 PUSH1 0x1F DUP5 ADD PUSH1 0x5 SHR DUP2 ADD SWAP2 PUSH1 0x20 DUP6 LT PUSH2 0x84D JUMPI PUSH1 0x1F ADD PUSH1 0x5 SHR ADD SWAP1 PUSH2 0x1FA3 JUMP JUMPDEST DUP5 PUSH2 0x57D JUMP JUMPDEST ADD MLOAD SWAP1 POP DUP5 DUP1 PUSH2 0x524 JUMP JUMPDEST PUSH1 0x5 DUP4 ADD PUSH1 0x0 MSTORE PUSH1 0x20 PUSH1 0x0 KECCAK256 SWAP1 PUSH1 0x0 JUMPDEST PUSH1 0x1F NOT DUP5 AND DUP2 LT PUSH2 0xAC2 JUMPI POP PUSH1 0x1 SWAP4 SWAP5 SWAP6 DUP4 PUSH1 0x1F NOT DUP2 AND LT PUSH2 0xAA9 JUMPI JUMPDEST POP POP POP DUP2 SHL ADD PUSH1 0x5 DUP3 ADD SSTORE PUSH2 0x53C JUMP JUMPDEST ADD MLOAD PUSH1 0x0 NOT PUSH1 0xF8 DUP5 PUSH1 0x3 SHL AND SHR NOT AND SWAP1 SSTORE DUP5 DUP1 DUP1 PUSH2 0xA99 JUMP JUMPDEST SWAP1 SWAP2 PUSH1 0x20 PUSH1 0x1 DUP2 SWAP3 DUP6 DUP11 ADD MLOAD DUP2 SSTORE ADD SWAP4 ADD SWAP2 ADD PUSH2 0xA7C JUMP JUMPDEST PUSH2 0xB09 SWAP1 PUSH1 0x5 DUP5 ADD PUSH1 0x0 MSTORE PUSH1 0x20 PUSH1 0x0 KECCAK256 PUSH1 0x1F DUP5 ADD PUSH1 0x5 SHR DUP2 ADD SWAP2 PUSH1 0x20 DUP6 LT PUSH2 0x84D JUMPI PUSH1 0x1F ADD PUSH1 0x5 SHR ADD SWAP1 PUSH2 0x1FA3 JUMP JUMPDEST DUP5 PUSH2 0x50A JUMP JUMPDEST ADD MLOAD SWAP1 POP DUP5 DUP1 PUSH2 0x4C6 JUMP JUMPDEST PUSH1 0x4 DUP5 ADD PUSH1 0x0 MSTORE PUSH1 0x20 PUSH1 0x0 KECCAK256 SWAP1 PUSH1 0x0 JUMPDEST PUSH1 0x1F NOT DUP5 AND DUP2 LT PUSH2 0xB70 JUMPI POP PUSH1 0x1 SWAP4 SWAP5 SWAP6 DUP4 PUSH1 0x1F NOT DUP2 AND LT PUSH2 0xB57 JUMPI JUMPDEST POP POP POP DUP2 SHL ADD PUSH1 0x4 DUP4 ADD SSTORE PUSH2 0x4DE JUMP JUMPDEST ADD MLOAD PUSH1 0x0 NOT PUSH1 0xF8 DUP5 PUSH1 0x3 SHL AND SHR NOT AND SWAP1 SSTORE DUP5 DUP1 DUP1 PUSH2 0xB47 JUMP JUMPDEST SWAP1 SWAP2 PUSH1 0x20 PUSH1 0x1 DUP2 SWAP3 DUP6 DUP11 ADD MLOAD DUP2 SSTORE ADD SWAP4 ADD SWAP2 ADD PUSH2 0xB2A JUMP JUMPDEST PUSH2 0xBB7 SWAP1 PUSH1 0x4 DUP6 ADD PUSH1 0x0 MSTORE PUSH1 0x20 PUSH1 0x0 KECCAK256 PUSH1 0x1F DUP5 ADD PUSH1 0x5 SHR DUP2 ADD SWAP2 PUSH1 0x20 DUP6 LT PUSH2 0x84D JUMPI PUSH1 0x1F ADD PUSH1 0x5 SHR ADD SWAP1 PUSH2 0x1FA3 JUMP JUMPDEST DUP5 PUSH2 0x4AC JUMP JUMPDEST ADD MLOAD SWAP1 POP DUP5 DUP1 PUSH2 0x468 JUMP JUMPDEST PUSH1 0x3 DUP4 ADD PUSH1 0x0 MSTORE PUSH1 0x20 PUSH1 0x0 KECCAK256 SWAP1 PUSH1 0x0 JUMPDEST PUSH1 0x1F NOT DUP5 AND DUP2 LT PUSH2 0xC1E JUMPI POP PUSH1 0x1 SWAP4 SWAP5 SWAP6 DUP4 PUSH1 0x1F NOT DUP2 AND LT PUSH2 0xC05 JUMPI JUMPDEST POP POP POP DUP2 SHL ADD PUSH1 0x3 DUP3 ADD SSTORE PUSH2 0x480 JUMP JUMPDEST ADD MLOAD PUSH1 0x0 NOT PUSH1 0xF8 DUP5 PUSH1 0x3 SHL AND SHR NOT AND SWAP1 SSTORE DUP5 DUP1 DUP1 PUSH2 0xBF5 JUMP JUMPDEST SWAP1 SWAP2 PUSH1 0x20 PUSH1 0x1 DUP2 SWAP3 DUP6 DUP11 ADD MLOAD DUP2 SSTORE ADD SWAP4 ADD SWAP2 ADD PUSH2 0xBD8 JUMP JUMPDEST PUSH2 0xC65 SWAP1 PUSH1 0x3 DUP5 ADD PUSH1 0x0 MSTORE PUSH1 0x20 PUSH1 0x0 KECCAK256 PUSH1 0x1F DUP5 ADD PUSH1 0x5 SHR DUP2 ADD SWAP2 PUSH1 0x20 DUP6 LT PUSH2 0x84D JUMPI PUSH1 0x1F ADD PUSH1 0x5 SHR ADD SWAP1 PUSH2 0x1FA3 JUMP JUMPDEST DUP5 PUSH2 0x44E JUMP JUMPDEST ADD MLOAD SWAP1 POP DUP5 DUP1 PUSH2 0x40A JUMP JUMPDEST PUSH1 0x2 DUP5 ADD PUSH1 0x0 MSTORE PUSH1 0x20 PUSH1 0x0 KECCAK256 SWAP1 PUSH1 0x0 JUMPDEST PUSH1 0x1F NOT DUP5 AND DUP2 LT PUSH2 0xCCC JUMPI POP PUSH1 0x1 SWAP4 SWAP5 SWAP6 DUP4 PUSH1 0x1F NOT DUP2 AND LT PUSH2 0xCB3 JUMPI JUMPDEST POP POP POP DUP2 SHL ADD PUSH1 0x2 DUP4 ADD SSTORE PUSH2 0x422 JUMP JUMPDEST ADD MLOAD PUSH1 0x0 NOT PUSH1 0xF8 DUP5 PUSH1 0x3 SHL AND SHR NOT AND SWAP1 SSTORE DUP5 DUP1 DUP1 PUSH2 0xCA3 JUMP JUMPDEST SWAP1 SWAP2 PUSH1 0x20 PUSH1 0x1 DUP2 SWAP3 DUP6 DUP11 ADD MLOAD DUP2 SSTORE ADD SWAP4 ADD SWAP2 ADD PUSH2 0xC86 JUMP JUMPDEST PUSH2 0xD13 SWAP1 PUSH1 0x2 DUP6 ADD PUSH1 0x0 MSTORE PUSH1 0x20 PUSH1 0x0 KECCAK256 PUSH1 0x1F DUP5 ADD PUSH1 0x5 SHR DUP2 ADD SWAP2 PUSH1 0x20 DUP6 LT PUSH2 0x84D JUMPI PUSH1 0x1F ADD PUSH1 0x5 SHR ADD SWAP1 PUSH2 0x1FA3 JUMP JUMPDEST DUP5 PUSH2 0x3F0 JUMP JUMPDEST CALLVALUE PUSH2 0x124 JUMPI PUSH1 0x20 CALLDATASIZE PUSH1 0x3 NOT ADD SLT PUSH2 0x124 JUMPI PUSH1 0x0 PUSH1 0x4 CALLDATALOAD PUSH1 0x0 MSTORE PUSH1 0x0 PUSH1 0x20 MSTORE PUSH1 0x1 PUSH1 0xFF PUSH1 0x4 PUSH1 0x40 PUSH1 0x0 KECCAK256 ADD SLOAD PUSH1 0x8 SHR AND ISZERO ISZERO EQ PUSH2 0xD5D JUMPI JUMPDEST PUSH1 0x20 SWAP1 PUSH1 0x40 MLOAD SWAP1 ISZERO ISZERO DUP2 MSTORE RETURN JUMPDEST POP PUSH1 0x1 PUSH2 0xD50 JUMP JUMPDEST CALLVALUE PUSH2 0x124 JUMPI PUSH1 0xC0 CALLDATASIZE PUSH1 0x3 NOT ADD SLT PUSH2 0x124 JUMPI PUSH1 0x24 CALLDATALOAD PUSH1 0x1 PUSH1 0x1 PUSH1 0x40 SHL SUB DUP2 GT PUSH2 0x124 JUMPI PUSH2 0xD95 SWAP1 CALLDATASIZE SWAP1 PUSH1 0x4 ADD PUSH2 0x1D71 JUMP JUMPDEST PUSH1 0x44 CALLDATALOAD PUSH1 0x1 PUSH1 0x1 PUSH1 0x40 SHL SUB DUP2 GT PUSH2 0x124 JUMPI PUSH2 0xDB4 SWAP1 CALLDATASIZE SWAP1 PUSH1 0x4 ADD PUSH2 0x1D71 JUMP JUMPDEST SWAP1 PUSH1 0x64 CALLDATALOAD SWAP2 PUSH1 0x1 PUSH1 0x1 PUSH1 0x40 SHL SUB DUP4 AND DUP1 SWAP4 SUB PUSH2 0x124 JUMPI PUSH1 0x84 CALLDATALOAD ISZERO ISZERO PUSH1 0x84 CALLDATALOAD SUB PUSH2 0x124 JUMPI PUSH1 0x40 MLOAD SWAP1 PUSH2 0xDE4 DUP3 PUSH2 0x1C5B JUMP JUMPDEST PUSH1 0x0 DUP3 MSTORE PUSH1 0x40 MLOAD SWAP3 PUSH2 0xDF5 DUP5 PUSH2 0x1C5B JUMP JUMPDEST PUSH1 0x0 DUP5 MSTORE PUSH1 0x40 MLOAD SWAP5 DUP6 PUSH2 0x1A0 DUP2 ADD LT PUSH1 0x1 PUSH1 0x1 PUSH1 0x40 SHL SUB PUSH2 0x1A0 DUP9 ADD GT OR PUSH2 0x78A JUMPI PUSH2 0x1A0 DUP7 ADD PUSH1 0x40 MSTORE PUSH1 0x4 CALLDATALOAD DUP7 MSTORE PUSH1 0x20 DUP7 ADD MSTORE PUSH1 0x40 DUP6 ADD MSTORE PUSH1 0x60 DUP5 ADD MSTORE PUSH1 0x1 PUSH1 0x80 DUP5 ADD MSTORE PUSH1 0x84 CALLDATALOAD ISZERO ISZERO PUSH1 0xA0 DUP5 ADD MSTORE PUSH1 0x0 PUSH1 0xC0 DUP5 ADD MSTORE PUSH1 0x0 PUSH1 0xE0 DUP5 ADD MSTORE PUSH1 0x0 PUSH2 0x100 DUP5 ADD MSTORE PUSH1 0x0 PUSH2 0x120 DUP5 ADD MSTORE PUSH2 0x140 DUP4 ADD MSTORE PUSH1 0x0 PUSH2 0x160 DUP4 ADD MSTORE PUSH2 0x180 DUP3 ADD MSTORE PUSH1 0x4 CALLDATALOAD PUSH1 0x0 MSTORE PUSH1 0x0 PUSH1 0x20 MSTORE PUSH1 0x40 PUSH1 0x0 KECCAK256 DUP2 MLOAD DUP2 SSTORE PUSH1 0x1 DUP2 ADD PUSH1 0x1 PUSH1 0x1 PUSH1 0x40 SHL SUB PUSH1 0x20 DUP5 ADD MLOAD AND PUSH1 0x1 PUSH1 0x1 PUSH1 0x40 SHL SUB NOT DUP3 SLOAD AND OR SWAP1 SSTORE PUSH1 0x40 DUP3 ADD MLOAD SWAP2 DUP3 MLOAD PUSH1 0x1 PUSH1 0x1 PUSH1 0x40 SHL SUB DUP2 GT PUSH2 0x78A JUMPI PUSH2 0xECE PUSH1 0x2 DUP5 ADD SLOAD PUSH2 0x1C05 JUMP JUMPDEST PUSH1 0x1F DUP2 GT PUSH2 0x1266 JUMPI JUMPDEST POP PUSH1 0x20 PUSH1 0x1F DUP3 GT PUSH1 0x1 EQ PUSH2 0x11F8 JUMPI DUP2 SWAP3 SWAP4 SWAP5 PUSH1 0x0 SWAP3 PUSH2 0x11ED JUMPI JUMPDEST POP POP DUP2 PUSH1 0x1 SHL SWAP2 PUSH1 0x0 NOT SWAP1 PUSH1 0x3 SHL SHR NOT AND OR PUSH1 0x2 DUP4 ADD SSTORE JUMPDEST PUSH1 0x60 DUP2 ADD MLOAD SWAP2 DUP3 MLOAD PUSH1 0x1 PUSH1 0x1 PUSH1 0x40 SHL SUB DUP2 GT PUSH2 0x78A JUMPI PUSH2 0xF2C PUSH1 0x3 DUP4 ADD SLOAD PUSH2 0x1C05 JUMP JUMPDEST PUSH1 0x1F DUP2 GT PUSH2 0x11B8 JUMPI JUMPDEST POP PUSH1 0x20 PUSH1 0x1F DUP3 GT PUSH1 0x1 EQ PUSH2 0x114A JUMPI DUP2 SWAP3 SWAP4 SWAP5 PUSH1 0x0 SWAP3 PUSH2 0x113F JUMPI JUMPDEST POP POP DUP2 PUSH1 0x1 SHL SWAP2 PUSH1 0x0 NOT SWAP1 PUSH1 0x3 SHL SHR NOT AND OR PUSH1 0x3 DUP3 ADD SSTORE JUMPDEST PUSH1 0x4 DUP2 ADD PUSH1 0xFF PUSH1 0x80 DUP5 ADD MLOAD AND DUP2 SLOAD SWAP1 PUSH2 0xFF00 PUSH1 0xA0 DUP7 ADD MLOAD ISZERO ISZERO PUSH1 0x8 SHL AND SWAP2 PUSH2 0xFFFF NOT AND OR OR SWAP1 SSTORE PUSH1 0xC0 DUP3 ADD MLOAD PUSH1 0x5 DUP3 ADD SSTORE PUSH2 0xFB7 PUSH1 0xE0 DUP4 ADD MLOAD ISZERO ISZERO PUSH1 0x6 DUP4 ADD SWAP1 PUSH1 0xFF DUP1 NOT DUP4 SLOAD AND SWAP2 ISZERO ISZERO AND OR SWAP1 SSTORE JUMP JUMPDEST PUSH2 0x100 DUP3 ADD MLOAD PUSH1 0x7 DUP3 ADD SSTORE PUSH2 0xFE2 PUSH2 0x120 DUP4 ADD MLOAD ISZERO ISZERO PUSH1 0x8 DUP4 ADD SWAP1 PUSH1 0xFF DUP1 NOT DUP4 SLOAD AND SWAP2 ISZERO ISZERO AND OR SWAP1 SSTORE JUMP JUMPDEST PUSH2 0x140 DUP3 ADD MLOAD SWAP1 DUP2 MLOAD PUSH1 0x1 PUSH1 0x1 PUSH1 0x40 SHL SUB DUP2 GT PUSH2 0x78A JUMPI PUSH1 0x1 PUSH1 0x40 SHL SWAP3 DUP4 DUP3 GT PUSH2 0x78A JUMPI PUSH1 0x20 PUSH1 0x9 DUP5 ADD SWAP2 DUP3 SLOAD DUP5 DUP5 SSTORE DUP1 DUP6 LT PUSH2 0x1122 JUMPI JUMPDEST POP ADD SWAP1 PUSH1 0x0 MSTORE PUSH1 0x20 PUSH1 0x0 KECCAK256 PUSH1 0x0 JUMPDEST DUP4 DUP2 LT PUSH2 0x110E JUMPI DUP7 DUP7 PUSH2 0x180 PUSH1 0xB DUP9 PUSH2 0x1057 PUSH2 0x160 DUP7 ADD MLOAD ISZERO ISZERO PUSH1 0xA DUP4 ADD SWAP1 PUSH1 0xFF DUP1 NOT DUP4 SLOAD AND SWAP2 ISZERO ISZERO AND OR SWAP1 SSTORE JUMP JUMPDEST ADD SWAP3 ADD MLOAD DUP1 MLOAD SWAP2 PUSH1 0x1 PUSH1 0x1 PUSH1 0x40 SHL SUB DUP4 GT PUSH2 0x78A JUMPI DUP3 GT PUSH2 0x78A JUMPI PUSH1 0x20 SWAP1 DUP4 SLOAD DUP4 DUP6 SSTORE DUP1 DUP5 LT PUSH2 0x10F1 JUMPI JUMPDEST POP ADD SWAP2 PUSH1 0x0 MSTORE PUSH1 0x20 PUSH1 0x0 KECCAK256 SWAP2 PUSH1 0x0 JUMPDEST DUP3 DUP2 LT PUSH2 0x10DD JUMPI PUSH1 0x84 CALLDATALOAD PUSH2 0x10A1 JUMPI STOP JUMPDEST PUSH1 0x4 CALLDATALOAD PUSH1 0x0 MSTORE PUSH1 0x0 PUSH1 0x20 MSTORE PUSH1 0xA4 CALLDATALOAD DUP1 PUSH1 0x5 PUSH1 0x40 PUSH1 0x0 KECCAK256 ADD SSTORE PUSH1 0x0 MSTORE PUSH1 0x40 PUSH1 0x0 KECCAK256 PUSH1 0x6 DUP2 ADD PUSH1 0x1 PUSH1 0xFF NOT DUP3 SLOAD AND OR SWAP1 SSTORE PUSH1 0x7 PUSH1 0x4 CALLDATALOAD SWAP2 ADD SSTORE PUSH1 0x0 DUP1 RETURN JUMPDEST PUSH1 0x1 SWAP1 PUSH1 0x20 DUP4 MLOAD SWAP4 ADD SWAP3 DUP2 DUP7 ADD SSTORE ADD PUSH2 0x1091 JUMP JUMPDEST PUSH2 0x1108 SWAP1 DUP6 PUSH1 0x0 MSTORE DUP5 DUP5 PUSH1 0x0 KECCAK256 SWAP2 DUP3 ADD SWAP2 ADD PUSH2 0x1FA3 JUMP JUMPDEST DUP5 PUSH2 0x1082 JUMP JUMPDEST PUSH1 0x1 SWAP1 PUSH1 0x20 DUP5 MLOAD SWAP5 ADD SWAP4 DUP2 DUP5 ADD SSTORE ADD PUSH2 0x1028 JUMP JUMPDEST PUSH2 0x1139 SWAP1 DUP5 PUSH1 0x0 MSTORE DUP6 DUP5 PUSH1 0x0 KECCAK256 SWAP2 DUP3 ADD SWAP2 ADD PUSH2 0x1FA3 JUMP JUMPDEST DUP8 PUSH2 0x101A JUMP JUMPDEST ADD MLOAD SWAP1 POP DUP5 DUP1 PUSH2 0xF4F JUMP JUMPDEST PUSH1 0x3 DUP4 ADD PUSH1 0x0 MSTORE PUSH1 0x20 PUSH1 0x0 KECCAK256 SWAP1 PUSH1 0x0 JUMPDEST PUSH1 0x1F NOT DUP5 AND DUP2 LT PUSH2 0x11A0 JUMPI POP PUSH1 0x1 SWAP4 SWAP5 SWAP6 DUP4 PUSH1 0x1F NOT DUP2 AND LT PUSH2 0x1187 JUMPI JUMPDEST POP POP POP DUP2 SHL ADD PUSH1 0x3 DUP3 ADD SSTORE PUSH2 0xF67 JUMP JUMPDEST ADD MLOAD PUSH1 0x0 NOT PUSH1 0xF8 DUP5 PUSH1 0x3 SHL AND SHR NOT AND SWAP1 SSTORE DUP5 DUP1 DUP1 PUSH2 0x1177 JUMP JUMPDEST SWAP1 SWAP2 PUSH1 0x20 PUSH1 0x1 DUP2 SWAP3 DUP6 DUP11 ADD MLOAD DUP2 SSTORE ADD SWAP4 ADD SWAP2 ADD PUSH2 0x115A JUMP JUMPDEST PUSH2 0x11E7 SWAP1 PUSH1 0x3 DUP5 ADD PUSH1 0x0 MSTORE PUSH1 0x20 PUSH1 0x0 KECCAK256 PUSH1 0x1F DUP5 ADD PUSH1 0x5 SHR DUP2 ADD SWAP2 PUSH1 0x20 DUP6 LT PUSH2 0x84D JUMPI PUSH1 0x1F ADD PUSH1 0x5 SHR ADD SWAP1 PUSH2 0x1FA3 JUMP JUMPDEST DUP5 PUSH2 0xF35 JUMP JUMPDEST ADD MLOAD SWAP1 POP DUP5 DUP1 PUSH2 0xEF1 JUMP JUMPDEST PUSH1 0x2 DUP5 ADD PUSH1 0x0 MSTORE PUSH1 0x20 PUSH1 0x0 KECCAK256 SWAP1 PUSH1 0x0 JUMPDEST PUSH1 0x1F NOT DUP5 AND DUP2 LT PUSH2 0x124E JUMPI POP PUSH1 0x1 SWAP4 SWAP5 SWAP6 DUP4 PUSH1 0x1F NOT DUP2 AND LT PUSH2 0x1235 JUMPI JUMPDEST POP POP POP DUP2 SHL ADD PUSH1 0x2 DUP4 ADD SSTORE PUSH2 0xF09 JUMP JUMPDEST ADD MLOAD PUSH1 0x0 NOT PUSH1 0xF8 DUP5 PUSH1 0x3 SHL AND SHR NOT AND SWAP1 SSTORE DUP5 DUP1 DUP1 PUSH2 0x1225 JUMP JUMPDEST SWAP1 SWAP2 PUSH1 0x20 PUSH1 0x1 DUP2 SWAP3 DUP6 DUP11 ADD MLOAD DUP2 SSTORE ADD SWAP4 ADD SWAP2 ADD PUSH2 0x1208 JUMP JUMPDEST PUSH2 0x1295 SWAP1 PUSH1 0x2 DUP6 ADD PUSH1 0x0 MSTORE PUSH1 0x20 PUSH1 0x0 KECCAK256 PUSH1 0x1F DUP5 ADD PUSH1 0x5 SHR DUP2 ADD SWAP2 PUSH1 0x20 DUP6 LT PUSH2 0x84D JUMPI PUSH1 0x1F ADD PUSH1 0x5 SHR ADD SWAP1 PUSH2 0x1FA3 JUMP JUMPDEST DUP5 PUSH2 0xED7 JUMP JUMPDEST CALLVALUE PUSH2 0x124 JUMPI PUSH1 0x20 CALLDATASIZE PUSH1 0x3 NOT ADD SLT PUSH2 0x124 JUMPI PUSH1 0x4 CALLDATALOAD PUSH1 0x0 MSTORE PUSH1 0x0 PUSH1 0x20 MSTORE PUSH1 0x5 PUSH1 0x40 PUSH1 0x0 KECCAK256 ADD SLOAD DUP1 PUSH1 0x0 MSTORE PUSH1 0x40 PUSH1 0x0 KECCAK256 PUSH2 0x12F1 PUSH2 0x12E4 PUSH1 0x3 PUSH2 0x12DD PUSH1 0x2 DUP6 ADD PUSH2 0x1C97 JUMP JUMPDEST SWAP4 ADD PUSH2 0x1C97 JUMP JUMPDEST SWAP3 PUSH1 0x40 MLOAD SWAP4 DUP5 SWAP4 DUP5 PUSH2 0x1F35 JUMP JUMPDEST SUB SWAP1 RETURN JUMPDEST CALLVALUE PUSH2 0x124 JUMPI PUSH1 0x20 DUP1 PUSH1 0x3 NOT CALLDATASIZE ADD SLT PUSH2 0x124 JUMPI PUSH1 0x4 CALLDATALOAD SWAP1 DUP2 PUSH1 0x0 MSTORE PUSH1 0x0 DUP2 MSTORE PUSH1 0x9 DUP1 PUSH1 0x40 PUSH1 0x0 KECCAK256 ADD SLOAD SWAP2 PUSH2 0x1327 DUP4 PUSH2 0x202C JUMP JUMPDEST SWAP4 PUSH1 0x0 JUMPDEST DUP5 DUP2 LT PUSH2 0x1340 JUMPI PUSH1 0x40 MLOAD DUP1 PUSH2 0x12F1 DUP9 DUP3 PUSH2 0x1DC7 JUMP JUMPDEST PUSH2 0x1471 SWAP1 DUP3 PUSH1 0x0 MSTORE PUSH1 0x0 DUP5 MSTORE PUSH2 0x135C DUP2 DUP7 PUSH1 0x40 PUSH1 0x0 KECCAK256 ADD PUSH2 0x1FC9 JUMP JUMPDEST SWAP1 SLOAD PUSH1 0x3 SWAP2 DUP3 SHL SHR PUSH1 0x0 MSTORE PUSH2 0x1450 PUSH1 0xD PUSH1 0x1 SWAP3 DUP4 DUP9 MSTORE PUSH2 0x13AB PUSH1 0x40 PUSH1 0x0 KECCAK256 SWAP2 PUSH1 0x40 MLOAD SWAP6 PUSH2 0x1388 DUP8 PUSH2 0x1C3F JUMP JUMPDEST DUP4 SLOAD DUP8 MSTORE DUP4 ADD SLOAD DUP11 DUP8 ADD MSTORE PUSH2 0x139F PUSH1 0x2 DUP5 ADD PUSH2 0x1C97 JUMP JUMPDEST PUSH1 0x40 DUP8 ADD MSTORE DUP3 ADD PUSH2 0x1C97 JUMP JUMPDEST PUSH1 0x60 DUP6 ADD MSTORE PUSH2 0x13BC PUSH1 0x4 DUP3 ADD PUSH2 0x1C97 JUMP JUMPDEST PUSH1 0x80 DUP6 ADD MSTORE PUSH2 0x13CD PUSH1 0x5 DUP3 ADD PUSH2 0x1C97 JUMP JUMPDEST PUSH1 0xA0 DUP6 ADD MSTORE PUSH1 0xFF PUSH1 0x6 DUP3 ADD SLOAD AND PUSH1 0xC0 DUP6 ADD MSTORE PUSH2 0x13EB PUSH1 0x7 DUP3 ADD PUSH2 0x1C97 JUMP JUMPDEST PUSH1 0xE0 DUP6 ADD MSTORE PUSH4 0xFFFFFFFF PUSH1 0x8 DUP3 ADD SLOAD AND PUSH2 0x100 DUP6 ADD MSTORE PUSH2 0x140C DUP10 DUP3 ADD PUSH2 0x1C97 JUMP JUMPDEST PUSH2 0x120 DUP6 ADD MSTORE PUSH1 0x1 PUSH1 0x1 PUSH1 0x40 SHL SUB PUSH1 0xA DUP3 ADD SLOAD AND PUSH2 0x140 DUP6 ADD MSTORE PUSH2 0x1432 PUSH1 0xB DUP3 ADD PUSH2 0x1C97 JUMP JUMPDEST PUSH2 0x160 DUP6 ADD MSTORE PUSH2 0x1444 PUSH1 0xC DUP3 ADD PUSH2 0x1C97 JUMP JUMPDEST PUSH2 0x180 DUP6 ADD MSTORE ADD PUSH2 0x20F0 JUMP JUMPDEST PUSH2 0x1A0 DUP3 ADD MSTORE PUSH2 0x1460 DUP3 DUP10 PUSH2 0x20DC JUMP JUMPDEST MSTORE PUSH2 0x146B DUP2 DUP9 PUSH2 0x20DC JUMP JUMPDEST POP PUSH2 0x1FBA JUMP JUMPDEST PUSH2 0x132B JUMP JUMPDEST CALLVALUE PUSH2 0x124 JUMPI PUSH1 0x20 DUP1 PUSH1 0x3 NOT CALLDATASIZE ADD SLT PUSH2 0x124 JUMPI PUSH1 0x4 CALLDATALOAD SWAP1 DUP2 PUSH1 0x0 MSTORE PUSH1 0x0 DUP2 MSTORE PUSH1 0xB DUP1 PUSH1 0x40 PUSH1 0x0 KECCAK256 ADD SLOAD SWAP2 PUSH2 0x14A8 DUP4 PUSH2 0x202C JUMP JUMPDEST SWAP4 PUSH1 0x0 JUMPDEST DUP5 DUP2 LT PUSH2 0x14C1 JUMPI PUSH1 0x40 MLOAD DUP1 PUSH2 0x12F1 DUP9 DUP3 PUSH2 0x1DC7 JUMP JUMPDEST PUSH2 0x1590 SWAP1 DUP3 PUSH1 0x0 MSTORE PUSH1 0x0 DUP5 MSTORE PUSH2 0x14DD DUP2 DUP7 PUSH1 0x40 PUSH1 0x0 KECCAK256 ADD PUSH2 0x1FC9 JUMP JUMPDEST SWAP1 SLOAD PUSH1 0x3 SWAP2 DUP3 SHL SHR PUSH1 0x0 MSTORE PUSH2 0x1450 PUSH1 0xD PUSH1 0x1 SWAP3 DUP4 DUP9 MSTORE PUSH2 0x1509 PUSH1 0x40 PUSH1 0x0 KECCAK256 SWAP2 PUSH1 0x40 MLOAD SWAP6 PUSH2 0x1388 DUP8 PUSH2 0x1C3F JUMP JUMPDEST PUSH1 0x60 DUP6 ADD MSTORE PUSH2 0x151A PUSH1 0x4 DUP3 ADD PUSH2 0x1C97 JUMP JUMPDEST PUSH1 0x80 DUP6 ADD MSTORE PUSH2 0x152B PUSH1 0x5 DUP3 ADD PUSH2 0x1C97 JUMP JUMPDEST PUSH1 0xA0 DUP6 ADD MSTORE PUSH1 0xFF PUSH1 0x6 DUP3 ADD SLOAD AND PUSH1 0xC0 DUP6 ADD MSTORE PUSH2 0x1549 PUSH1 0x7 DUP3 ADD PUSH2 0x1C97 JUMP JUMPDEST PUSH1 0xE0 DUP6 ADD MSTORE PUSH4 0xFFFFFFFF PUSH1 0x8 DUP3 ADD SLOAD AND PUSH2 0x100 DUP6 ADD MSTORE PUSH2 0x156B PUSH1 0x9 DUP3 ADD PUSH2 0x1C97 JUMP JUMPDEST PUSH2 0x120 DUP6 ADD MSTORE PUSH1 0x1 PUSH1 0x1 PUSH1 0x40 SHL SUB PUSH1 0xA DUP3 ADD SLOAD AND PUSH2 0x140 DUP6 ADD MSTORE PUSH2 0x1432 DUP10 DUP3 ADD PUSH2 0x1C97 JUMP JUMPDEST PUSH2 0x14AC JUMP JUMPDEST CALLVALUE PUSH2 0x124 JUMPI PUSH1 0x20 CALLDATASIZE PUSH1 0x3 NOT ADD SLT PUSH2 0x124 JUMPI PUSH1 0x4 CALLDATALOAD PUSH1 0x0 MSTORE PUSH1 0x0 PUSH1 0x20 MSTORE PUSH1 0x7 PUSH1 0x40 PUSH1 0x0 KECCAK256 ADD SLOAD DUP1 PUSH1 0x0 MSTORE PUSH1 0x40 PUSH1 0x0 KECCAK256 PUSH2 0x12F1 PUSH2 0x12E4 PUSH1 0x3 PUSH2 0x12DD PUSH1 0x2 DUP6 ADD PUSH2 0x1C97 JUMP JUMPDEST CALLVALUE PUSH2 0x124 JUMPI PUSH1 0x20 DUP1 PUSH1 0x3 NOT CALLDATASIZE ADD SLT PUSH2 0x124 JUMPI PUSH1 0x1 PUSH1 0x1 PUSH1 0x40 SHL SUB PUSH1 0x4 CALLDATALOAD DUP2 DUP2 GT PUSH2 0x124 JUMPI PUSH2 0x1609 SWAP1 CALLDATASIZE SWAP1 PUSH1 0x4 ADD PUSH2 0x1D71 JUMP JUMPDEST SWAP2 PUSH1 0x40 MLOAD SWAP1 DUP4 MLOAD SWAP3 DUP2 DUP6 ADD SWAP4 PUSH2 0x1620 DUP2 DUP6 DUP8 PUSH2 0x1BBD JUMP JUMPDEST DUP4 ADD SWAP3 DUP3 DUP2 PUSH1 0x2 SWAP6 DUP7 DUP2 MSTORE SUB ADD SWAP1 KECCAK256 SLOAD SWAP4 PUSH2 0x163A DUP6 PUSH2 0x202C JUMP JUMPDEST SWAP6 PUSH1 0x0 JUMPDEST DUP7 DUP2 LT PUSH2 0x1653 JUMPI PUSH1 0x40 MLOAD DUP1 PUSH2 0x12F1 DUP11 DUP3 PUSH2 0x1DC7 JUMP JUMPDEST DUP1 PUSH2 0x167B PUSH2 0x1759 SWAP3 PUSH1 0x40 MLOAD DUP9 DUP2 DUP8 MLOAD PUSH2 0x166D DUP2 DUP4 DUP13 PUSH2 0x1BBD JUMP JUMPDEST DUP2 ADD DUP13 DUP2 MSTORE SUB ADD SWAP1 KECCAK256 PUSH2 0x1FC9 JUMP JUMPDEST SWAP1 SLOAD PUSH1 0x3 SWAP2 DUP3 SHL SHR PUSH1 0x0 MSTORE PUSH2 0x173E PUSH1 0xD PUSH1 0x1 SWAP3 DUP4 DUP11 MSTORE PUSH2 0x16BD PUSH1 0x40 PUSH1 0x0 KECCAK256 SWAP2 PUSH1 0x40 MLOAD SWAP6 PUSH2 0x16A7 DUP8 PUSH2 0x1C3F JUMP JUMPDEST DUP4 SLOAD DUP8 MSTORE DUP4 ADD SLOAD DUP13 DUP8 ADD MSTORE PUSH2 0x139F DUP14 DUP5 ADD PUSH2 0x1C97 JUMP JUMPDEST PUSH1 0x60 DUP6 ADD MSTORE PUSH2 0x16CE PUSH1 0x4 DUP3 ADD PUSH2 0x1C97 JUMP JUMPDEST PUSH1 0x80 DUP6 ADD MSTORE PUSH2 0x16DF PUSH1 0x5 DUP3 ADD PUSH2 0x1C97 JUMP JUMPDEST PUSH1 0xA0 DUP6 ADD MSTORE PUSH1 0xFF PUSH1 0x6 DUP3 ADD SLOAD AND PUSH1 0xC0 DUP6 ADD MSTORE PUSH2 0x16FD PUSH1 0x7 DUP3 ADD PUSH2 0x1C97 JUMP JUMPDEST PUSH1 0xE0 DUP6 ADD MSTORE PUSH4 0xFFFFFFFF PUSH1 0x8 DUP3 ADD SLOAD AND PUSH2 0x100 DUP6 ADD MSTORE PUSH2 0x171F PUSH1 0x9 DUP3 ADD PUSH2 0x1C97 JUMP JUMPDEST PUSH2 0x120 DUP6 ADD MSTORE DUP9 PUSH1 0xA DUP3 ADD SLOAD AND PUSH2 0x140 DUP6 ADD MSTORE PUSH2 0x1432 PUSH1 0xB DUP3 ADD PUSH2 0x1C97 JUMP JUMPDEST PUSH2 0x1A0 DUP3 ADD MSTORE PUSH2 0x174E DUP3 DUP12 PUSH2 0x20DC JUMP JUMPDEST MSTORE PUSH2 0x146B DUP2 DUP11 PUSH2 0x20DC JUMP JUMPDEST PUSH2 0x163E JUMP JUMPDEST CALLVALUE PUSH2 0x124 JUMPI PUSH1 0x20 CALLDATASIZE PUSH1 0x3 NOT ADD SLT PUSH2 0x124 JUMPI PUSH1 0x4 CALLDATALOAD PUSH1 0x0 MSTORE PUSH1 0x1 PUSH1 0x20 MSTORE PUSH1 0x40 PUSH1 0x0 KECCAK256 DUP1 SLOAD PUSH1 0x1 DUP3 ADD SLOAD SWAP2 PUSH1 0x2 DUP2 ADD PUSH2 0x1794 SWAP1 PUSH2 0x1C97 JUMP JUMPDEST SWAP1 PUSH2 0x17A1 PUSH1 0x3 DUP3 ADD PUSH2 0x1C97 JUMP JUMPDEST PUSH2 0x17AD PUSH1 0x4 DUP4 ADD PUSH2 0x1C97 JUMP JUMPDEST PUSH2 0x17B9 PUSH1 0x5 DUP5 ADD PUSH2 0x1C97 JUMP JUMPDEST PUSH1 0x6 DUP5 ADD SLOAD PUSH1 0xFF AND PUSH2 0x17CD PUSH1 0x7 DUP7 ADD PUSH2 0x1C97 JUMP JUMPDEST SWAP1 PUSH1 0x8 DUP7 ADD SLOAD PUSH4 0xFFFFFFFF AND SWAP3 PUSH1 0x9 DUP8 ADD PUSH2 0x17E7 SWAP1 PUSH2 0x1C97 JUMP JUMPDEST SWAP5 PUSH1 0xA DUP9 ADD SLOAD PUSH1 0x1 PUSH1 0x1 PUSH1 0x40 SHL SUB AND SWAP7 PUSH1 0xB DUP10 ADD PUSH2 0x1804 SWAP1 PUSH2 0x1C97 JUMP JUMPDEST SWAP9 PUSH1 0xC ADD PUSH2 0x1811 SWAP1 PUSH2 0x1C97 JUMP JUMPDEST SWAP10 PUSH1 0x40 MLOAD SWAP13 DUP14 SWAP13 DUP14 MSTORE PUSH1 0x20 DUP14 ADD MSTORE DUP12 PUSH2 0x1A0 PUSH1 0x40 DUP2 SWAP3 ADD MSTORE DUP13 ADD PUSH2 0x1834 SWAP2 PUSH2 0x1BE0 JUMP JUMPDEST DUP12 DUP2 SUB PUSH1 0x60 DUP14 ADD MSTORE PUSH2 0x1845 SWAP2 PUSH2 0x1BE0 JUMP JUMPDEST DUP11 DUP2 SUB PUSH1 0x80 DUP13 ADD MSTORE PUSH2 0x1856 SWAP2 PUSH2 0x1BE0 JUMP JUMPDEST DUP10 DUP2 SUB PUSH1 0xA0 DUP12 ADD MSTORE PUSH2 0x1867 SWAP2 PUSH2 0x1BE0 JUMP JUMPDEST SWAP1 PUSH1 0xC0 DUP10 ADD MSTORE DUP8 DUP2 SUB PUSH1 0xE0 DUP10 ADD MSTORE PUSH2 0x187E SWAP2 PUSH2 0x1BE0 JUMP JUMPDEST SWAP1 PUSH2 0x100 DUP8 ADD MSTORE DUP6 DUP2 SUB PUSH2 0x120 DUP8 ADD MSTORE PUSH2 0x1897 SWAP2 PUSH2 0x1BE0 JUMP JUMPDEST SWAP1 PUSH2 0x140 DUP6 ADD MSTORE DUP4 DUP2 SUB PUSH2 0x160 DUP6 ADD MSTORE PUSH2 0x18B0 SWAP2 PUSH2 0x1BE0 JUMP JUMPDEST DUP3 DUP2 SUB PUSH2 0x180 DUP5 ADD MSTORE PUSH2 0x12F1 SWAP2 PUSH2 0x1BE0 JUMP JUMPDEST CALLVALUE PUSH2 0x124 JUMPI PUSH1 0x20 CALLDATASIZE PUSH1 0x3 NOT ADD SLT PUSH2 0x124 JUMPI PUSH1 0x4 CALLDATALOAD PUSH1 0x0 MSTORE PUSH1 0x1 PUSH1 0x20 MSTORE PUSH2 0x12F1 PUSH2 0x18F1 PUSH1 0xD PUSH1 0x40 PUSH1 0x0 KECCAK256 ADD PUSH2 0x20F0 JUMP JUMPDEST PUSH1 0x40 MLOAD SWAP2 DUP3 SWAP2 PUSH1 0x20 DUP4 MSTORE PUSH1 0x20 DUP4 ADD SWAP1 PUSH2 0x1D3D JUMP JUMPDEST CALLVALUE PUSH2 0x124 JUMPI PUSH1 0x20 CALLDATASIZE PUSH1 0x3 NOT ADD SLT PUSH2 0x124 JUMPI PUSH1 0x4 CALLDATALOAD PUSH1 0x0 MSTORE PUSH1 0x0 PUSH1 0x20 MSTORE PUSH1 0x20 PUSH1 0xFF PUSH1 0xA PUSH1 0x40 PUSH1 0x0 KECCAK256 ADD SLOAD AND PUSH1 0x40 MLOAD SWAP1 ISZERO ISZERO DUP2 MSTORE RETURN JUMPDEST CALLVALUE PUSH2 0x124 JUMPI PUSH1 0x20 CALLDATASIZE PUSH1 0x3 NOT ADD SLT PUSH2 0x124 JUMPI PUSH1 0x4 CALLDATALOAD PUSH1 0x0 MSTORE PUSH1 0x0 PUSH1 0x20 MSTORE PUSH1 0x20 PUSH1 0x1 PUSH1 0x1 PUSH1 0x40 SHL SUB PUSH1 0x1 PUSH1 0x40 PUSH1 0x0 KECCAK256 ADD SLOAD AND PUSH1 0x40 MLOAD SWAP1 DUP2 MSTORE RETURN JUMPDEST CALLVALUE PUSH2 0x124 JUMPI PUSH1 0x40 CALLDATASIZE PUSH1 0x3 NOT ADD SLT PUSH2 0x124 JUMPI PUSH1 0x4 CALLDATALOAD PUSH1 0x24 CALLDATALOAD DUP1 PUSH1 0x0 MSTORE PUSH1 0x1 PUSH1 0x20 MSTORE PUSH1 0x40 PUSH1 0x0 KECCAK256 PUSH1 0xFF PUSH1 0x6 DUP3 ADD SLOAD AND PUSH2 0x19A4 JUMPI STOP JUMPDEST DUP3 PUSH1 0xD PUSH2 0x19B1 SWAP3 ADD PUSH2 0x1FF7 JUMP JUMPDEST DUP1 PUSH1 0x0 MSTORE PUSH1 0x1 PUSH1 0x20 MSTORE PUSH1 0x6 PUSH1 0x40 PUSH1 0x0 KECCAK256 ADD SWAP2 DUP3 SLOAD SWAP1 PUSH1 0xFF DUP3 AND SWAP1 DUP2 ISZERO PUSH2 0x1A0D JUMPI PUSH2 0x1A0B SWAP5 PUSH1 0xB SWAP4 PUSH1 0xFF SWAP4 DUP5 NOT SWAP5 DUP6 SWAP2 PUSH1 0x0 NOT ADD AND SWAP2 AND OR SWAP1 SSTORE PUSH1 0x0 MSTORE PUSH1 0x0 PUSH1 0x20 MSTORE PUSH1 0x40 PUSH1 0x0 KECCAK256 SWAP1 PUSH1 0x1 PUSH1 0xA DUP4 ADD SWAP2 DUP3 SLOAD AND OR SWAP1 SSTORE ADD PUSH2 0x1FF7 JUMP JUMPDEST STOP JUMPDEST PUSH4 0x4E487B71 PUSH1 0xE0 SHL PUSH1 0x0 MSTORE PUSH1 0x11 PUSH1 0x4 MSTORE PUSH1 0x24 PUSH1 0x0 REVERT JUMPDEST CALLVALUE PUSH2 0x124 JUMPI PUSH1 0x20 CALLDATASIZE PUSH1 0x3 NOT ADD SLT PUSH2 0x124 JUMPI PUSH1 0x4 CALLDATALOAD PUSH1 0x0 MSTORE PUSH1 0x0 PUSH1 0x20 MSTORE PUSH1 0x40 PUSH1 0x0 KECCAK256 DUP1 SLOAD PUSH1 0x1 PUSH1 0x1 PUSH1 0x40 SHL SUB PUSH1 0x1 DUP4 ADD SLOAD AND SWAP2 PUSH2 0x1A61 PUSH1 0x2 DUP3 ADD PUSH2 0x1C97 JUMP JUMPDEST PUSH2 0x1A6D PUSH1 0x3 DUP4 ADD PUSH2 0x1C97 JUMP JUMPDEST SWAP2 PUSH1 0x4 DUP2 ADD SLOAD SWAP3 PUSH1 0x5 DUP3 ADD SLOAD PUSH1 0xFF PUSH1 0x6 DUP5 ADD SLOAD AND SWAP1 PUSH1 0xFF PUSH2 0x1ACD PUSH1 0x7 DUP7 ADD SLOAD SWAP5 PUSH2 0x1ABF DUP4 PUSH1 0xA DUP2 PUSH1 0x8 DUP12 ADD SLOAD AND SWAP10 ADD SLOAD AND SWAP9 PUSH1 0x40 MLOAD SWAP13 DUP14 SWAP13 DUP14 MSTORE PUSH1 0x20 DUP14 ADD MSTORE PUSH1 0x40 DUP13 PUSH2 0x160 SWAP2 DUP3 SWAP2 ADD MSTORE DUP13 ADD SWAP1 PUSH2 0x1BE0 JUMP JUMPDEST SWAP1 DUP11 DUP3 SUB PUSH1 0x60 DUP13 ADD MSTORE PUSH2 0x1BE0 JUMP JUMPDEST SWAP7 DUP2 DUP2 AND PUSH1 0x80 DUP11 ADD MSTORE PUSH1 0x8 SHR AND ISZERO ISZERO PUSH1 0xA0 DUP9 ADD MSTORE PUSH1 0xC0 DUP8 ADD MSTORE ISZERO ISZERO PUSH1 0xE0 DUP7 ADD MSTORE PUSH2 0x100 DUP6 ADD MSTORE ISZERO ISZERO PUSH2 0x120 DUP5 ADD MSTORE ISZERO ISZERO PUSH2 0x140 DUP4 ADD MSTORE SUB SWAP1 RETURN JUMPDEST CALLVALUE PUSH2 0x124 JUMPI PUSH1 0x20 CALLDATASIZE PUSH1 0x3 NOT ADD SLT PUSH2 0x124 JUMPI PUSH1 0x4 CALLDATALOAD PUSH1 0x0 MSTORE PUSH1 0x0 PUSH1 0x20 MSTORE PUSH2 0x12F1 PUSH2 0x1B36 PUSH1 0x3 PUSH1 0x40 PUSH1 0x0 KECCAK256 ADD PUSH2 0x1C97 JUMP JUMPDEST PUSH1 0x40 MLOAD SWAP2 DUP3 SWAP2 PUSH1 0x20 DUP4 MSTORE PUSH1 0x20 DUP4 ADD SWAP1 PUSH2 0x1BE0 JUMP JUMPDEST CALLVALUE PUSH2 0x124 JUMPI PUSH1 0x20 CALLDATASIZE PUSH1 0x3 NOT ADD SLT PUSH2 0x124 JUMPI PUSH1 0x4 CALLDATALOAD PUSH1 0x0 MSTORE PUSH1 0x0 PUSH1 0x20 MSTORE PUSH2 0x12F1 PUSH2 0x1B36 PUSH1 0x2 PUSH1 0x40 PUSH1 0x0 KECCAK256 ADD PUSH2 0x1C97 JUMP JUMPDEST CALLVALUE PUSH2 0x124 JUMPI PUSH1 0x20 CALLDATASIZE PUSH1 0x3 NOT ADD SLT PUSH2 0x124 JUMPI PUSH1 0x20 SWAP1 PUSH1 0x0 PUSH1 0x4 CALLDATALOAD PUSH1 0x0 MSTORE PUSH1 0x0 DUP4 MSTORE PUSH1 0x1 PUSH1 0xFF PUSH1 0x6 PUSH1 0x40 PUSH1 0x0 KECCAK256 ADD SLOAD AND ISZERO ISZERO EQ PUSH2 0x1BB5 JUMPI JUMPDEST ISZERO ISZERO DUP2 MSTORE RETURN JUMPDEST POP PUSH1 0x1 PUSH2 0x1BAF JUMP JUMPDEST PUSH1 0x0 JUMPDEST DUP4 DUP2 LT PUSH2 0x1BD0 JUMPI POP POP PUSH1 0x0 SWAP2 ADD MSTORE JUMP JUMPDEST DUP2 DUP2 ADD MLOAD DUP4 DUP3 ADD MSTORE PUSH1 0x20 ADD PUSH2 0x1BC0 JUMP JUMPDEST SWAP1 PUSH1 0x20 SWAP2 PUSH2 0x1BF9 DUP2 MLOAD DUP1 SWAP3 DUP2 DUP6 MSTORE DUP6 DUP1 DUP7 ADD SWAP2 ADD PUSH2 0x1BBD JUMP JUMPDEST PUSH1 0x1F ADD PUSH1 0x1F NOT AND ADD ADD SWAP1 JUMP JUMPDEST SWAP1 PUSH1 0x1 DUP3 DUP2 SHR SWAP3 AND DUP1 ISZERO PUSH2 0x1C35 JUMPI JUMPDEST PUSH1 0x20 DUP4 LT EQ PUSH2 0x1C1F JUMPI JUMP JUMPDEST PUSH4 0x4E487B71 PUSH1 0xE0 SHL PUSH1 0x0 MSTORE PUSH1 0x22 PUSH1 0x4 MSTORE PUSH1 0x24 PUSH1 0x0 REVERT JUMPDEST SWAP2 PUSH1 0x7F AND SWAP2 PUSH2 0x1C14 JUMP JUMPDEST PUSH2 0x1C0 DUP2 ADD SWAP1 DUP2 LT PUSH1 0x1 PUSH1 0x1 PUSH1 0x40 SHL SUB DUP3 GT OR PUSH2 0x78A JUMPI PUSH1 0x40 MSTORE JUMP JUMPDEST PUSH1 0x20 DUP2 ADD SWAP1 DUP2 LT PUSH1 0x1 PUSH1 0x1 PUSH1 0x40 SHL SUB DUP3 GT OR PUSH2 0x78A JUMPI PUSH1 0x40 MSTORE JUMP JUMPDEST SWAP1 PUSH1 0x1F DUP1 NOT SWAP2 ADD AND DUP2 ADD SWAP1 DUP2 LT PUSH1 0x1 PUSH1 0x1 PUSH1 0x40 SHL SUB DUP3 GT OR PUSH2 0x78A JUMPI PUSH1 0x40 MSTORE JUMP JUMPDEST SWAP1 PUSH1 0x40 MLOAD SWAP2 DUP3 PUSH1 0x0 DUP3 SLOAD SWAP3 PUSH2 0x1CAB DUP5 PUSH2 0x1C05 JUMP JUMPDEST SWAP1 DUP2 DUP5 MSTORE PUSH1 0x1 SWAP5 DUP6 DUP2 AND SWAP1 DUP2 PUSH1 0x0 EQ PUSH2 0x1D1A JUMPI POP PUSH1 0x1 EQ PUSH2 0x1CD7 JUMPI JUMPDEST POP POP PUSH2 0x1CD5 SWAP3 POP SUB DUP4 PUSH2 0x1C76 JUMP JUMPDEST JUMP JUMPDEST SWAP1 SWAP4 SWAP2 POP PUSH1 0x0 MSTORE PUSH1 0x20 SWAP1 DUP2 PUSH1 0x0 KECCAK256 SWAP4 PUSH1 0x0 SWAP2 JUMPDEST DUP2 DUP4 LT PUSH2 0x1D02 JUMPI POP POP PUSH2 0x1CD5 SWAP4 POP DUP3 ADD ADD CODESIZE DUP1 PUSH2 0x1CC7 JUMP JUMPDEST DUP6 SLOAD DUP9 DUP5 ADD DUP6 ADD MSTORE SWAP5 DUP6 ADD SWAP5 DUP8 SWAP5 POP SWAP2 DUP4 ADD SWAP2 PUSH2 0x1CEA JUMP JUMPDEST SWAP2 POP POP PUSH2 0x1CD5 SWAP5 POP PUSH1 0x20 SWAP3 POP PUSH1 0xFF NOT AND DUP3 DUP5 ADD MSTORE ISZERO ISZERO PUSH1 0x5 SHL DUP3 ADD ADD CODESIZE DUP1 PUSH2 0x1CC7 JUMP JUMPDEST SWAP1 DUP2 MLOAD DUP1 DUP3 MSTORE PUSH1 0x20 DUP1 DUP1 SWAP4 ADD SWAP4 ADD SWAP2 PUSH1 0x0 JUMPDEST DUP3 DUP2 LT PUSH2 0x1D5D JUMPI POP POP POP POP SWAP1 JUMP JUMPDEST DUP4 MLOAD DUP6 MSTORE SWAP4 DUP2 ADD SWAP4 SWAP3 DUP2 ADD SWAP3 PUSH1 0x1 ADD PUSH2 0x1D4F JUMP JUMPDEST DUP2 PUSH1 0x1F DUP3 ADD SLT ISZERO PUSH2 0x124 JUMPI DUP1 CALLDATALOAD SWAP1 PUSH1 0x1 PUSH1 0x1 PUSH1 0x40 SHL SUB DUP3 GT PUSH2 0x78A JUMPI PUSH1 0x40 MLOAD SWAP3 PUSH2 0x1DA5 PUSH1 0x1F DUP5 ADD PUSH1 0x1F NOT AND PUSH1 0x20 ADD DUP6 PUSH2 0x1C76 JUMP JUMPDEST DUP3 DUP5 MSTORE PUSH1 0x20 DUP4 DUP4 ADD ADD GT PUSH2 0x124 JUMPI DUP2 PUSH1 0x0 SWAP3 PUSH1 0x20 DUP1 SWAP4 ADD DUP4 DUP7 ADD CALLDATACOPY DUP4 ADD ADD MSTORE SWAP1 JUMP JUMPDEST PUSH1 0x20 DUP1 DUP3 ADD SWAP1 DUP1 DUP4 MSTORE DUP4 MLOAD DUP1 SWAP3 MSTORE PUSH1 0x40 SWAP3 DUP4 DUP2 ADD DUP3 DUP6 DUP6 PUSH1 0x5 SHL DUP5 ADD ADD SWAP7 ADD SWAP5 PUSH1 0x0 SWAP3 JUMPDEST DUP6 DUP5 LT PUSH2 0x1DFC JUMPI POP POP POP POP POP POP POP SWAP1 JUMP JUMPDEST SWAP1 SWAP2 SWAP3 SWAP4 SWAP5 SWAP6 SWAP7 DUP6 DUP1 PUSH2 0x1F24 PUSH1 0x1 SWAP4 DUP7 PUSH2 0x1F10 PUSH2 0x1EFC PUSH2 0x1ED4 DUP16 PUSH2 0x1E8F PUSH2 0x1E7C PUSH2 0x1E69 DUP16 PUSH2 0x1EAF SWAP5 DUP16 SWAP2 PUSH2 0x1E56 SWAP3 PUSH1 0x3F NOT SWAP1 DUP14 SUB ADD SWAP1 MSTORE MLOAD SWAP9 DUP10 MLOAD DUP12 MSTORE DUP13 DUP11 ADD MLOAD DUP14 DUP13 ADD MSTORE DUP1 DUP11 ADD MLOAD SWAP1 PUSH2 0x1C0 DUP1 SWAP2 DUP14 ADD MSTORE DUP12 ADD SWAP1 PUSH2 0x1BE0 JUMP JUMPDEST PUSH1 0x60 DUP1 DUP11 ADD MLOAD SWAP1 DUP12 DUP4 SUB SWAP1 DUP13 ADD MSTORE PUSH2 0x1BE0 JUMP JUMPDEST PUSH1 0x80 DUP1 DUP10 ADD MLOAD SWAP1 DUP11 DUP4 SUB SWAP1 DUP12 ADD MSTORE PUSH2 0x1BE0 JUMP JUMPDEST PUSH1 0xA0 DUP1 DUP9 ADD MLOAD SWAP1 DUP10 DUP4 SUB SWAP1 DUP11 ADD MSTORE PUSH2 0x1BE0 JUMP JUMPDEST PUSH1 0xC0 PUSH1 0xFF DUP2 DUP9 ADD MLOAD AND SWAP1 DUP9 ADD MSTORE PUSH1 0xE0 DUP1 DUP8 ADD MLOAD SWAP1 DUP9 DUP4 SUB SWAP1 DUP10 ADD MSTORE PUSH2 0x1BE0 JUMP JUMPDEST PUSH2 0x100 PUSH4 0xFFFFFFFF DUP2 DUP8 ADD MLOAD AND SWAP1 DUP8 ADD MSTORE PUSH2 0x120 DUP1 DUP7 ADD MLOAD SWAP1 DUP8 DUP4 SUB SWAP1 DUP9 ADD MSTORE PUSH2 0x1BE0 JUMP JUMPDEST PUSH2 0x140 PUSH1 0x1 PUSH1 0x1 PUSH1 0x40 SHL SUB DUP2 DUP7 ADD MLOAD AND SWAP1 DUP7 ADD MSTORE PUSH2 0x160 DUP1 DUP6 ADD MLOAD SWAP1 DUP7 DUP4 SUB SWAP1 DUP8 ADD MSTORE PUSH2 0x1BE0 JUMP JUMPDEST PUSH2 0x180 DUP1 DUP5 ADD MLOAD SWAP1 DUP6 DUP4 SUB SWAP1 DUP7 ADD MSTORE PUSH2 0x1BE0 JUMP JUMPDEST SWAP2 PUSH2 0x1A0 DUP1 SWAP3 ADD MLOAD SWAP2 DUP2 DUP5 SUB SWAP2 ADD MSTORE PUSH2 0x1D3D JUMP JUMPDEST SWAP10 ADD SWAP5 ADD SWAP5 ADD SWAP3 SWAP6 SWAP5 SWAP4 SWAP2 SWAP1 PUSH2 0x1DEB JUMP JUMPDEST SWAP4 SWAP3 SWAP2 PUSH2 0x1F5E SWAP1 PUSH2 0x1F50 PUSH1 0x40 SWAP4 PUSH1 0x60 DUP9 MSTORE PUSH1 0x60 DUP9 ADD SWAP1 PUSH2 0x1BE0 JUMP JUMPDEST SWAP1 DUP7 DUP3 SUB PUSH1 0x20 DUP9 ADD MSTORE PUSH2 0x1BE0 JUMP JUMPDEST SWAP4 ADD MSTORE JUMP JUMPDEST PUSH1 0x0 MSTORE PUSH1 0x0 PUSH1 0x20 MSTORE PUSH1 0x1 PUSH1 0xFF PUSH1 0x4 PUSH1 0x40 PUSH1 0x0 KECCAK256 ADD SLOAD AND EQ ISZERO PUSH1 0x0 EQ PUSH2 0x1F87 JUMPI PUSH1 0x0 SWAP1 JUMP JUMPDEST PUSH1 0x1 SWAP1 JUMP JUMPDEST PUSH1 0x1 PUSH1 0x1 PUSH1 0x40 SHL SUB DUP2 GT PUSH2 0x78A JUMPI PUSH1 0x5 SHL PUSH1 0x20 ADD SWAP1 JUMP JUMPDEST DUP2 DUP2 LT PUSH2 0x1FAE JUMPI POP POP JUMP JUMPDEST PUSH1 0x0 DUP2 SSTORE PUSH1 0x1 ADD PUSH2 0x1FA3 JUMP JUMPDEST PUSH1 0x0 NOT DUP2 EQ PUSH2 0x1A0D JUMPI PUSH1 0x1 ADD SWAP1 JUMP JUMPDEST DUP1 SLOAD DUP3 LT ISZERO PUSH2 0x1FE1 JUMPI PUSH1 0x0 MSTORE PUSH1 0x20 PUSH1 0x0 KECCAK256 ADD SWAP1 PUSH1 0x0 SWAP1 JUMP JUMPDEST PUSH4 0x4E487B71 PUSH1 0xE0 SHL PUSH1 0x0 MSTORE PUSH1 0x32 PUSH1 0x4 MSTORE PUSH1 0x24 PUSH1 0x0 REVERT JUMPDEST DUP1 SLOAD PUSH1 0x1 PUSH1 0x40 SHL DUP2 LT ISZERO PUSH2 0x78A JUMPI PUSH2 0x2014 SWAP2 PUSH1 0x1 DUP3 ADD DUP2 SSTORE PUSH2 0x1FC9 JUMP JUMPDEST DUP2 SWAP3 SWAP2 SLOAD SWAP1 PUSH1 0x3 SHL SWAP2 DUP3 SHL SWAP2 PUSH1 0x0 NOT SWAP1 SHL NOT AND OR SWAP1 SSTORE JUMP JUMPDEST SWAP1 PUSH2 0x2036 DUP3 PUSH2 0x1F8C JUMP JUMPDEST PUSH1 0x40 SWAP1 PUSH2 0x2045 DUP3 MLOAD SWAP2 DUP3 PUSH2 0x1C76 JUMP JUMPDEST DUP4 DUP2 MSTORE DUP1 SWAP4 PUSH2 0x2056 PUSH1 0x1F NOT SWAP2 PUSH2 0x1F8C JUMP JUMPDEST ADD SWAP2 PUSH1 0x0 JUMPDEST DUP4 DUP2 LT PUSH2 0x2068 JUMPI POP POP POP POP JUMP JUMPDEST PUSH1 0x20 SWAP1 DUP3 MLOAD PUSH2 0x2076 DUP2 PUSH2 0x1C3F JUMP JUMPDEST PUSH1 0x0 DUP2 MSTORE DUP3 PUSH1 0x0 DUP2 DUP4 ADD MSTORE PUSH1 0x60 DUP1 DUP7 DUP5 ADD MSTORE DUP1 DUP1 DUP5 ADD MSTORE DUP1 PUSH1 0x80 DUP5 ADD MSTORE DUP1 PUSH1 0xA0 DUP5 ADD MSTORE PUSH1 0x0 PUSH1 0xC0 DUP5 ADD MSTORE DUP1 PUSH1 0xE0 DUP5 ADD MSTORE PUSH1 0x0 PUSH2 0x100 DUP5 ADD MSTORE DUP1 PUSH2 0x120 DUP5 ADD MSTORE PUSH1 0x0 PUSH2 0x140 DUP5 ADD MSTORE DUP1 PUSH2 0x160 DUP5 ADD MSTORE DUP1 PUSH2 0x180 DUP5 ADD MSTORE PUSH2 0x1A0 DUP4 ADD MSTORE DUP3 DUP7 ADD ADD MSTORE ADD PUSH2 0x205B JUMP JUMPDEST DUP1 MLOAD DUP3 LT ISZERO PUSH2 0x1FE1 JUMPI PUSH1 0x20 SWAP2 PUSH1 0x5 SHL ADD ADD SWAP1 JUMP JUMPDEST SWAP1 PUSH1 0x40 MLOAD SWAP2 DUP3 DUP2 SLOAD SWAP2 DUP3 DUP3 MSTORE PUSH1 0x20 SWAP3 DUP4 DUP4 ADD SWAP2 PUSH1 0x0 MSTORE DUP4 PUSH1 0x0 KECCAK256 SWAP4 PUSH1 0x0 SWAP1 JUMPDEST DUP3 DUP3 LT PUSH2 0x2125 JUMPI POP POP POP PUSH2 0x1CD5 SWAP3 POP SUB DUP4 PUSH2 0x1C76 JUMP JUMPDEST DUP6 SLOAD DUP5 MSTORE PUSH1 0x1 SWAP6 DUP7 ADD SWAP6 DUP9 SWAP6 POP SWAP4 DUP2 ADD SWAP4 SWAP1 SWAP2 ADD SWAP1 PUSH2 0x210F JUMP INVALID LOG2 PUSH5 0x6970667358 0x22 SLT KECCAK256 MUL EXTCODEHASH PUSH13 0xAAF2062FFE06EE7D91754D30BE SDIV ISZERO 0xB4 PUSH19 0x2509EFEE82C51796B6DE820C64736F6C634300 ADDMOD SLT STOP CALLER "},"methodIdentifiers":{"Rides(uint256)":"9cf242fb","Users(uint256)":"1e98fd1c","bookRide(uint256,uint256)":"2d452ed6","getBookedRides(uint256)":"b382c756","getFirstName(uint256)":"172a56c1","getHostedRides(uint256)":"b41bec5c","getIsHost(uint256)":"fa03b7e5","getIsPassenger(uint256)":"40f38553","getIsTrackingEnabled(uint256)":"d014921f","getIsTrackingUser(uint256)":"05db4bbc","getLastName(uint256)":"174029f6","getPass(uint256)":"55a6f86f","getPhone(uint256)":"2e7d44b5","getTracker(uint256)":"c3a83344","getTracking(uint256)":"ac785e39","isUserRegistered(uint256)":"e0a58ee1","publishRide(uint256,string,string,string,string,uint8,string,uint32,string,uint64,string,string,string)":"dc7f92c9","register(uint256,string,string,uint64,bool,uint256)":"c4aa95f0","searchRide(string)":"a6a37c6c"}}}}}