{
  "_format": "hh-sol-artifact-1",
  "contractName": "Carpool",
  "sourceName": "contracts/Carpool.sol",
  "abi": [
    {
      "inputs": [
        {
          "internalType": "uint256",
          "name": "",
          "type": "uint256"
        }
      ],
      "name": "Rides",
      "outputs": [
        {
          "internalType": "uint256",
          "name": "id",
          "type": "uint256"
        },
        {
          "internalType": "uint256",
          "name": "rideHost",
          "type": "uint256"
        },
        {
          "internalType": "string",
          "name": "depAddress",
          "type": "string"
        },
        {
          "internalType": "string",
          "name": "desAddress",
          "type": "string"
        },
        {
          "internalType": "string",
          "name": "depCity",
          "type": "string"
        },
        {
          "internalType": "string",
          "name": "desCity",
          "type": "string"
        },
        {
          "internalType": "uint8",
          "name": "numberOfSeats",
          "type": "uint8"
        },
        {
          "internalType": "string",
          "name": "depTime",
          "type": "string"
        },
        {
          "internalType": "uint32",
          "name": "fare",
          "type": "uint32"
        },
        {
          "internalType": "string",
          "name": "rideHostName",
          "type": "string"
        },
        {
          "internalType": "uint64",
          "name": "rideHostPhone",
          "type": "uint64"
        },
        {
          "internalType": "string",
          "name": "hostVehicleName",
          "type": "string"
        },
        {
          "internalType": "string",
          "name": "hostVehicleNumber",
          "type": "string"
        },
        {
          "internalType": "string",
          "name": "date",
          "type": "string"
        }
      ],
      "stateMutability": "view",
      "type": "function"
    },
    {
      "inputs": [
        {
          "internalType": "uint256",
          "name": "",
          "type": "uint256"
        }
      ],
      "name": "Users",
      "outputs": [
        {
          "internalType": "uint256",
          "name": "pubKey",
          "type": "uint256"
        },
        {
          "internalType": "uint64",
          "name": "phone",
          "type": "uint64"
        },
        {
          "internalType": "string",
          "name": "fname",
          "type": "string"
        },
        {
          "internalType": "string",
          "name": "lname",
          "type": "string"
        },
        {
          "internalType": "uint8",
          "name": "isReg",
          "type": "uint8"
        },
        {
          "internalType": "bool",
          "name": "isTrackingEnabled",
          "type": "bool"
        },
        {
          "internalType": "uint256",
          "name": "tracker",
          "type": "uint256"
        },
        {
          "internalType": "bool",
          "name": "isTrackingUser",
          "type": "bool"
        },
        {
          "internalType": "uint256",
          "name": "tracking",
          "type": "uint256"
        },
        {
          "internalType": "bool",
          "name": "isHost",
          "type": "bool"
        },
        {
          "internalType": "bool",
          "name": "bookedRide",
          "type": "bool"
        }
      ],
      "stateMutability": "view",
      "type": "function"
    },
    {
      "inputs": [
        {
          "internalType": "uint256",
          "name": "_pubKey",
          "type": "uint256"
        },
        {
          "internalType": "uint256",
          "name": "_id",
          "type": "uint256"
        }
      ],
      "name": "bookRide",
      "outputs": [],
      "stateMutability": "nonpayable",
      "type": "function"
    },
    {
      "inputs": [
        {
          "internalType": "uint256",
          "name": "_pubKey",
          "type": "uint256"
        }
      ],
      "name": "getBookedRides",
      "outputs": [
        {
          "components": [
            {
              "internalType": "uint256",
              "name": "id",
              "type": "uint256"
            },
            {
              "internalType": "uint256",
              "name": "rideHost",
              "type": "uint256"
            },
            {
              "internalType": "string",
              "name": "depAddress",
              "type": "string"
            },
            {
              "internalType": "string",
              "name": "desAddress",
              "type": "string"
            },
            {
              "internalType": "string",
              "name": "depCity",
              "type": "string"
            },
            {
              "internalType": "string",
              "name": "desCity",
              "type": "string"
            },
            {
              "internalType": "uint8",
              "name": "numberOfSeats",
              "type": "uint8"
            },
            {
              "internalType": "string",
              "name": "depTime",
              "type": "string"
            },
            {
              "internalType": "uint32",
              "name": "fare",
              "type": "uint32"
            },
            {
              "internalType": "string",
              "name": "rideHostName",
              "type": "string"
            },
            {
              "internalType": "uint64",
              "name": "rideHostPhone",
              "type": "uint64"
            },
            {
              "internalType": "string",
              "name": "hostVehicleName",
              "type": "string"
            },
            {
              "internalType": "string",
              "name": "hostVehicleNumber",
              "type": "string"
            },
            {
              "internalType": "string",
              "name": "date",
              "type": "string"
            },
            {
              "internalType": "uint256[]",
              "name": "passengers",
              "type": "uint256[]"
            }
          ],
          "internalType": "struct Carpool.Ride[]",
          "name": "",
          "type": "tuple[]"
        }
      ],
      "stateMutability": "view",
      "type": "function"
    },
    {
      "inputs": [
        {
          "internalType": "uint256",
          "name": "_pubKey",
          "type": "uint256"
        }
      ],
      "name": "getFirstName",
      "outputs": [
        {
          "internalType": "string",
          "name": "",
          "type": "string"
        }
      ],
      "stateMutability": "view",
      "type": "function"
    },
    {
      "inputs": [
        {
          "internalType": "uint256",
          "name": "_pubKey",
          "type": "uint256"
        }
      ],
      "name": "getHostedRides",
      "outputs": [
        {
          "components": [
            {
              "internalType": "uint256",
              "name": "id",
              "type": "uint256"
            },
            {
              "internalType": "uint256",
              "name": "rideHost",
              "type": "uint256"
            },
            {
              "internalType": "string",
              "name": "depAddress",
              "type": "string"
            },
            {
              "internalType": "string",
              "name": "desAddress",
              "type": "string"
            },
            {
              "internalType": "string",
              "name": "depCity",
              "type": "string"
            },
            {
              "internalType": "string",
              "name": "desCity",
              "type": "string"
            },
            {
              "internalType": "uint8",
              "name": "numberOfSeats",
              "type": "uint8"
            },
            {
              "internalType": "string",
              "name": "depTime",
              "type": "string"
            },
            {
              "internalType": "uint32",
              "name": "fare",
              "type": "uint32"
            },
            {
              "internalType": "string",
              "name": "rideHostName",
              "type": "string"
            },
            {
              "internalType": "uint64",
              "name": "rideHostPhone",
              "type": "uint64"
            },
            {
              "internalType": "string",
              "name": "hostVehicleName",
              "type": "string"
            },
            {
              "internalType": "string",
              "name": "hostVehicleNumber",
              "type": "string"
            },
            {
              "internalType": "string",
              "name": "date",
              "type": "string"
            },
            {
              "internalType": "uint256[]",
              "name": "passengers",
              "type": "uint256[]"
            }
          ],
          "internalType": "struct Carpool.Ride[]",
          "name": "",
          "type": "tuple[]"
        }
      ],
      "stateMutability": "view",
      "type": "function"
    },
    {
      "inputs": [
        {
          "internalType": "uint256",
          "name": "_pubKey",
          "type": "uint256"
        }
      ],
      "name": "getIsHost",
      "outputs": [
        {
          "internalType": "bool",
          "name": "",
          "type": "bool"
        }
      ],
      "stateMutability": "view",
      "type": "function"
    },
    {
      "inputs": [
        {
          "internalType": "uint256",
          "name": "_pubKey",
          "type": "uint256"
        }
      ],
      "name": "getIsPassenger",
      "outputs": [
        {
          "internalType": "bool",
          "name": "",
          "type": "bool"
        }
      ],
      "stateMutability": "view",
      "type": "function"
    },
    {
      "inputs": [
        {
          "internalType": "uint256",
          "name": "_pubKey",
          "type": "uint256"
        }
      ],
      "name": "getIsTrackingEnabled",
      "outputs": [
        {
          "internalType": "bool",
          "name": "",
          "type": "bool"
        }
      ],
      "stateMutability": "view",
      "type": "function"
    },
    {
      "inputs": [
        {
          "internalType": "uint256",
          "name": "_pubKey",
          "type": "uint256"
        }
      ],
      "name": "getIsTrackingUser",
      "outputs": [
        {
          "internalType": "bool",
          "name": "",
          "type": "bool"
        }
      ],
      "stateMutability": "view",
      "type": "function"
    },
    {
      "inputs": [
        {
          "internalType": "uint256",
          "name": "_pubKey",
          "type": "uint256"
        }
      ],
      "name": "getLastName",
      "outputs": [
        {
          "internalType": "string",
          "name": "",
          "type": "string"
        }
      ],
      "stateMutability": "view",
      "type": "function"
    },
    {
      "inputs": [
        {
          "internalType": "uint256",
          "name": "_id",
          "type": "uint256"
        }
      ],
      "name": "getPass",
      "outputs": [
        {
          "internalType": "uint256[]",
          "name": "",
          "type": "uint256[]"
        }
      ],
      "stateMutability": "view",
      "type": "function"
    },
    {
      "inputs": [
        {
          "internalType": "uint256",
          "name": "_pubKey",
          "type": "uint256"
        }
      ],
      "name": "getPhone",
      "outputs": [
        {
          "internalType": "uint64",
          "name": "",
          "type": "uint64"
        }
      ],
      "stateMutability": "view",
      "type": "function"
    },
    {
      "inputs": [
        {
          "internalType": "uint256",
          "name": "_pubKey",
          "type": "uint256"
        }
      ],
      "name": "getTracker",
      "outputs": [
        {
          "internalType": "string",
          "name": "",
          "type": "string"
        },
        {
          "internalType": "string",
          "name": "",
          "type": "string"
        },
        {
          "internalType": "uint256",
          "name": "",
          "type": "uint256"
        }
      ],
      "stateMutability": "view",
      "type": "function"
    },
    {
      "inputs": [
        {
          "internalType": "uint256",
          "name": "_pubKey",
          "type": "uint256"
        }
      ],
      "name": "getTracking",
      "outputs": [
        {
          "internalType": "string",
          "name": "",
          "type": "string"
        },
        {
          "internalType": "string",
          "name": "",
          "type": "string"
        },
        {
          "internalType": "uint256",
          "name": "",
          "type": "uint256"
        }
      ],
      "stateMutability": "view",
      "type": "function"
    },
    {
      "inputs": [
        {
          "internalType": "uint256",
          "name": "_pubKey",
          "type": "uint256"
        }
      ],
      "name": "isUserRegistered",
      "outputs": [
        {
          "internalType": "bool",
          "name": "",
          "type": "bool"
        }
      ],
      "stateMutability": "view",
      "type": "function"
    },
    {
      "inputs": [
        {
          "internalType": "uint256",
          "name": "_rideHost",
          "type": "uint256"
        },
        {
          "internalType": "string",
          "name": "_depAddress",
          "type": "string"
        },
        {
          "internalType": "string",
          "name": "_desAddress",
          "type": "string"
        },
        {
          "internalType": "string",
          "name": "_depCity",
          "type": "string"
        },
        {
          "internalType": "string",
          "name": "_desCity",
          "type": "string"
        },
        {
          "internalType": "uint8",
          "name": "_numberOfSeats",
          "type": "uint8"
        },
        {
          "internalType": "string",
          "name": "_depTime",
          "type": "string"
        },
        {
          "internalType": "uint32",
          "name": "_fare",
          "type": "uint32"
        },
        {
          "internalType": "string",
          "name": "_rideHostName",
          "type": "string"
        },
        {
          "internalType": "uint64",
          "name": "_rideHostPhone",
          "type": "uint64"
        },
        {
          "internalType": "string",
          "name": "_depDesCity",
          "type": "string"
        },
        {
          "internalType": "string",
          "name": "_hostVehicleName",
          "type": "string"
        },
        {
          "internalType": "string",
          "name": "_hostVehicleNumber",
          "type": "string"
        },
        {
          "internalType": "string",
          "name": "_date",
          "type": "string"
        }
      ],
      "name": "publishRide",
      "outputs": [],
      "stateMutability": "nonpayable",
      "type": "function"
    },
    {
      "inputs": [
        {
          "internalType": "uint256",
          "name": "_pubKey",
          "type": "uint256"
        },
        {
          "internalType": "string",
          "name": "_fName",
          "type": "string"
        },
        {
          "internalType": "string",
          "name": "_lname",
          "type": "string"
        },
        {
          "internalType": "uint64",
          "name": "_phone",
          "type": "uint64"
        },
        {
          "internalType": "bool",
          "name": "_isTrackingEnabled",
          "type": "bool"
        },
        {
          "internalType": "uint256",
          "name": "_tracker",
          "type": "uint256"
        }
      ],
      "name": "register",
      "outputs": [],
      "stateMutability": "nonpayable",
      "type": "function"
    },
    {
      "inputs": [
        {
          "internalType": "string",
          "name": "_depDesCity",
          "type": "string"
        }
      ],
      "name": "searchRide",
      "outputs": [
        {
          "components": [
            {
              "internalType": "uint256",
              "name": "id",
              "type": "uint256"
            },
            {
              "internalType": "uint256",
              "name": "rideHost",
              "type": "uint256"
            },
            {
              "internalType": "string",
              "name": "depAddress",
              "type": "string"
            },
            {
              "internalType": "string",
              "name": "desAddress",
              "type": "string"
            },
            {
              "internalType": "string",
              "name": "depCity",
              "type": "string"
            },
            {
              "internalType": "string",
              "name": "desCity",
              "type": "string"
            },
            {
              "internalType": "uint8",
              "name": "numberOfSeats",
              "type": "uint8"
            },
            {
              "internalType": "string",
              "name": "depTime",
              "type": "string"
            },
            {
              "internalType": "uint32",
              "name": "fare",
              "type": "uint32"
            },
            {
              "internalType": "string",
              "name": "rideHostName",
              "type": "string"
            },
            {
              "internalType": "uint64",
              "name": "rideHostPhone",
              "type": "uint64"
            },
            {
              "internalType": "string",
              "name": "hostVehicleName",
              "type": "string"
            },
            {
              "internalType": "string",
              "name": "hostVehicleNumber",
              "type": "string"
            },
            {
              "internalType": "string",
              "name": "date",
              "type": "string"
            },
            {
              "internalType": "uint256[]",
              "name": "passengers",
              "type": "uint256[]"
            }
          ],
          "internalType": "struct Carpool.Ride[]",
          "name": "",
          "type": "tuple[]"
        }
      ],
      "stateMutability": "view",
      "type": "function"
    }
  ],
  "bytecode": "0x6080806040523461001657612302908161001c8239f35b600080fdfe608080604052600436101561001357600080fd5b60003560e01c90816305db4bbc14611ce557508063172a56c114611cb6578063174029f614611c735780631e98fd1c14611b8f5780632d452ed614611add5780632e7d44b514611aa557806340f3855314611a7157806341daef4e14610d9657806355a6f86f14610d535780639cf242fb14610bd2578063a6a37c6c14610a4b578063ac785e3914610a09578063b382c756146108ea578063b41bec5c14610757578063c3a83344146106fd578063c4aa95f01461019d578063d014921f14610151578063e0a58ee1146101295763fa03b7e5146100f057600080fd5b34610124576020366003190112610124576004356000526000602052602060ff600860406000200154166040519015158152f35b600080fd5b346101245760203660031901126101245760206101476004356120e9565b6040519015158152f35b346101245760203660031901126101245760006004356000526000602052600160ff60046040600020015460081c16151514610195575b6020906040519015158152f35b506001610188565b346101245760c0366003190112610124576024356001600160401b038111610124576101cd903690600401611ea9565b6044356001600160401b038111610124576101ec903690600401611ea9565b90606435916001600160401b038316830361012457608435151560843503610124576040519061021b82611dc7565b600082526040519261022c84611dc7565b6000845260405194856101a08101106001600160401b036101a08801111761054f576001600160401b03906101a0870160405260043587521660208601526040850152606084015260016080840152608435151560a0840152600060c0840152600060e08401526000610100840152600061012084015261014083015260006101608301526101808201526004356000526000602052604060002081518155600181016001600160401b036020840151166001600160401b031982541617905560408201519182516001600160401b03811161054f5761030f6002840154611d71565b601f81116106c8575b506020601f821160011461065a578192939460009261064f575b50508160011b916000199060031b1c19161760028301555b60608101519182516001600160401b03811161054f5761036d6003830154611d71565b601f811161060f575b506020601f82116001146105a15781929394600092610596575b50508160011b916000199060031b1c19161760038201555b6004810160ff60808401511681549061ff0060a0860151151560081b169161ffff19161717905560c082015160058201556103f860e08301511515600683019060ff801983541691151516179055565b61010082015160078201556104236101208301511515600883019060ff801983541691151516179055565b6101408201519081516001600160401b03811161054f57600160401b9283821161054f57602060098401918254848455808510610579575b500190600052602060002060005b838110610565578686610180600b886104986101608601511515600a83019060ff801983541691151516179055565b019201518051916001600160401b03831161054f57821161054f576020908354838555808410610532575b50019160005260206000209160005b82811061051e576084356104e257005b600435600052600060205260a43580600560406000200155600052604060002060068101600160ff198254161790556007600435910155600080f35b6001906020835193019281860155016104d2565b610549908560005284846000209182019101612129565b846104c3565b634e487b7160e01b600052604160045260246000fd5b600190602084519401938184015501610469565b610590908460005285846000209182019101612129565b8761045b565b015190508480610390565b6003830160005260206000209060005b601f19841681106105f75750600193949583601f198116106105de575b505050811b0160038201556103a8565b015160001960f88460031b161c191690558480806105ce565b9091602060018192858a0151815501930191016105b1565b61063f90600384016000526020600020601f840160051c81019160208510610645575b601f0160051c0190612129565b84610376565b9091508190610632565b015190508480610332565b6002840160005260206000209060005b601f19841681106106b05750600193949583601f19811610610697575b505050811b01600283015561034a565b015160001960f88460031b161c19169055848080610687565b9091602060018192858a01518155019301910161066a565b6106f790600285016000526020600020601f840160051c8101916020851061064557601f0160051c0190612129565b84610318565b34610124576020366003190112610124576004356000526000602052600560406000200154806000526040600020610753610746600361073f60028501611e03565b9301611e03565b92604051938493846120bb565b0390f35b3461012457602080600319360112610124576004359081600052600081526009806040600020015491610789836121b2565b9360005b8481106107a257604051806107538882611f33565b6108e59082600052600084526107be818660406000200161214f565b9054600391821b1c6000526108c4600e60019283885261080d604060002091604051956107ea87611dab565b835487528301548a87015261080160028401611e03565b60408701528201611e03565b606085015261081e60048201611e03565b608085015261082f60058201611e03565b60a085015260ff60068201541660c085015261084d60078201611e03565b60e085015263ffffffff60088201541661010085015261086e898201611e03565b6101208501526001600160401b03600a82015416610140850152610894600b8201611e03565b6101608501526108a6600c8201611e03565b6101808501526108b8600d8201611e03565b6101a08501520161227d565b6101c08201526108d48289612269565b526108df8188612269565b50612140565b61078d565b346101245760208060031936011261012457600435908160005260008152600b80604060002001549161091c836121b2565b9360005b84811061093557604051806107538882611f33565b610a04908260005260008452610951818660406000200161214f565b9054600391821b1c6000526108c4600e60019283885261097d604060002091604051956107ea87611dab565b606085015261098e60048201611e03565b608085015261099f60058201611e03565b60a085015260ff60068201541660c08501526109bd60078201611e03565b60e085015263ffffffff6008820154166101008501526109df60098201611e03565b6101208501526001600160401b03600a82015416610140850152610894898201611e03565b610920565b34610124576020366003190112610124576004356000526000602052600760406000200154806000526040600020610753610746600361073f60028501611e03565b3461012457602080600319360112610124576001600160401b0360043581811161012457610a7d903690600401611ea9565b916040519083519281850193610a94818587611d29565b8301928281600295868152030190205493610aae856121b2565b9560005b868110610ac757604051806107538a82611f33565b80610aef610bcd9260405188818751610ae181838c611d29565b81018c81520301902061214f565b9054600391821b1c600052610bb2600e600192838a52610b3160406000209160405195610b1b87611dab565b835487528301548c8701526108018d8401611e03565b6060850152610b4260048201611e03565b6080850152610b5360058201611e03565b60a085015260ff60068201541660c0850152610b7160078201611e03565b60e085015263ffffffff600882015416610100850152610b9360098201611e03565b61012085015288600a82015416610140850152610894600b8201611e03565b6101c0820152610bc2828b612269565b526108df818a612269565b610ab2565b346101245760203660031901126101245760043560005260016020526040600020805460018201549160028101610c0890611e03565b90610c1560038201611e03565b610c2160048301611e03565b610c2d60058401611e03565b600684015460ff16610c4160078601611e03565b600886015463ffffffff1691610c5960098801611e03565b93600a8801546001600160401b031695600b8901610c7690611e03565b97610c83600c8b01611e03565b99600d01610c9090611e03565b9a6040519d8e809e8152602001528c6101c06040819201528d01610cb391611d4c565b8c810360608e0152610cc491611d4c565b8b810360808d0152610cd591611d4c565b8a810360a08c0152610ce691611d4c565b9060c08a015288810360e08a0152610cfd91611d4c565b90610100880152868103610120880152610d1691611d4c565b90610140860152848103610160860152610d2f91611d4c565b838103610180850152610d4191611d4c565b8281036101a084015261075391611d4c565b34610124576020366003190112610124576004356000526001602052610753610d82600e60406000200161227d565b604051918291602083526020830190611eff565b34610124576101c0366003190112610124576024356001600160401b03811161012457610dc7903690600401611ea9565b6044356001600160401b03811161012457610de6903690600401611ea9565b6064356001600160401b03811161012457610e05903690600401611ea9565b6084356001600160401b03811161012457610e24903690600401611ea9565b9060a4359160ff831683036101245760c4356001600160401b03811161012457610e52903690600401611ea9565b9260e43563ffffffff8116810361012457610104356001600160401b03811161012457610e83903690600401611ea9565b61012435916001600160401b0383168303610124576001600160401b03610144351161012457610eb93661014435600401611ea9565b96610164356001600160401b03811161012457610eda903690600401611ea9565b94610184356001600160401b03811161012457610efb903690600401611ea9565b966101a4356001600160401b03811161012457610f1c903690600401611ea9565b98600354610f2990612140565b806003556040519b610f3a8d611dc7565b60008d526040518181809351602081930191610f5592611d29565b81016002815203602001902090610f6b9161217d565b6004356000526000602052604060002060ff1960088201541660011760088201556003549060090190610f9d9161217d565b6003549b8c6040519e8f91610fb183611dab565b8252600435602083015260408201526060015260808d015260a08c015260ff1660c08b015260e08a015263ffffffff166101008901526101208801526001600160401b03166101408701526101608601526101808501526101a08401526101c08301526000526001602052604060002090805182556020810151600183015560408101519182516001600160401b03811161054f576110536002830154611d71565b601f8111611a3c575b506020601f82116001146119ce57819293946000926119c3575b50508160011b916000199060031b1c19161760028201555b60608201519182516001600160401b03811161054f576110b16003840154611d71565b601f811161198e575b506020601f82116001146119205781929394600092611915575b50508160011b916000199060031b1c19161760038301555b60808101519182516001600160401b03811161054f5761110f6004830154611d71565b601f81116118e0575b506020601f82116001146118725781929394600092611867575b50508160011b916000199060031b1c19161760048201555b60a08201519182516001600160401b03811161054f5761116d6005840154611d71565b601f8111611832575b506020601f82116001146117c457819293946000926117b9575b50508160011b916000199060031b1c19161760058301555b6006820160ff60c08301511660ff1982541617905560e08101519182516001600160401b03811161054f576111e06007830154611d71565b601f8111611784575b506020601f8211600114611716578192939460009261170b575b50508160011b916000199060031b1c19161760078201555b6008810163ffffffff6101008401511663ffffffff198254161790556101208201519182516001600160401b03811161054f5761125b6009840154611d71565b601f81116116d6575b506020601f8211600114611668578192939460009261165d575b50508160011b916000199060031b1c19161760098301555b600a82016001600160401b03610140830151166001600160401b03198254161790556101608101519182516001600160401b03811161054f576112dc600b830154611d71565b601f8111611628575b506020601f82116001146115ba57819293946000926115af575b50508160011b916000199060031b1c191617600b8201555b6101808201519182516001600160401b03811161054f5761133b600c840154611d71565b601f811161157a575b506020601f821160011461150c5781929394600092611501575b50508160011b916000199060031b1c191617600c8301555b600d8201916101a08201519283516001600160401b03811161054f5761139c8254611d71565b601f81116114cf575b506020601f8211600114611460579080600e9493926101c09697600092611455575b50508160011b916000199060031b1c19161790555b019101518051906001600160401b03821161054f57600160401b821161054f576020908354838555808410611438575b50019160005260206000209160005b82811061142457005b60019060208351930192818601550161141b565b61144f908560005284846000209182019101612129565b8461140c565b0151905087806113c7565b601f198216958360005260206000209660005b8181106114b75750966001928492600e9796956101c0999a1061149e575b505050811b0190556113dc565b015160001960f88460031b161c19169055878080611491565b83830151895560019098019760209384019301611473565b6114fb90836000526020600020601f840160051c8101916020851061064557601f0160051c0190612129565b856113a5565b01519050848061135e565b600c840160005260206000209060005b601f19841681106115625750600193949583601f19811610611549575b505050811b01600c830155611376565b015160001960f88460031b161c19169055848080611539565b9091602060018192858a01518155019301910161151c565b6115a990600c85016000526020600020601f840160051c8101916020851061064557601f0160051c0190612129565b84611344565b0151905084806112ff565b600b830160005260206000209060005b601f19841681106116105750600193949583601f198116106115f7575b505050811b01600b820155611317565b015160001960f88460031b161c191690558480806115e7565b9091602060018192858a0151815501930191016115ca565b61165790600b84016000526020600020601f840160051c8101916020851061064557601f0160051c0190612129565b846112e5565b01519050848061127e565b6009840160005260206000209060005b601f19841681106116be5750600193949583601f198116106116a5575b505050811b016009830155611296565b015160001960f88460031b161c19169055848080611695565b9091602060018192858a015181550193019101611678565b61170590600985016000526020600020601f840160051c8101916020851061064557601f0160051c0190612129565b84611264565b015190508480611203565b6007830160005260206000209060005b601f198416811061176c5750600193949583601f19811610611753575b505050811b01600782015561121b565b015160001960f88460031b161c19169055848080611743565b9091602060018192858a015181550193019101611726565b6117b390600784016000526020600020601f840160051c8101916020851061064557601f0160051c0190612129565b846111e9565b015190508480611190565b6005840160005260206000209060005b601f198416811061181a5750600193949583601f19811610611801575b505050811b0160058301556111a8565b015160001960f88460031b161c191690558480806117f1565b9091602060018192858a0151815501930191016117d4565b61186190600585016000526020600020601f840160051c8101916020851061064557601f0160051c0190612129565b84611176565b015190508480611132565b6004830160005260206000209060005b601f19841681106118c85750600193949583601f198116106118af575b505050811b01600482015561114a565b015160001960f88460031b161c1916905584808061189f565b9091602060018192858a015181550193019101611882565b61190f90600484016000526020600020601f840160051c8101916020851061064557601f0160051c0190612129565b84611118565b0151905084806110d4565b6003840160005260206000209060005b601f19841681106119765750600193949583601f1981161061195d575b505050811b0160038301556110ec565b015160001960f88460031b161c1916905584808061194d565b9091602060018192858a015181550193019101611930565b6119bd90600385016000526020600020601f840160051c8101916020851061064557601f0160051c0190612129565b846110ba565b015190508480611076565b6002830160005260206000209060005b601f1984168110611a245750600193949583601f19811610611a0b575b505050811b01600282015561108e565b015160001960f88460031b161c191690558480806119fb565b9091602060018192858a0151815501930191016119de565b611a6b90600284016000526020600020601f840160051c8101916020851061064557601f0160051c0190612129565b8461105c565b34610124576020366003190112610124576004356000526000602052602060ff600a60406000200154166040519015158152f35b3461012457602036600319011261012457600435600052600060205260206001600160401b0360016040600020015416604051908152f35b3461012457604036600319011261012457600435602435806000526001602052604060002060ff600682015416611b1057005b82600e611b1d920161217d565b80600052600160205260066040600020019182549060ff8216908115611b7957611b7794600b9360ff9384199485916000190116911617905560005260006020526040600020906001600a8301918254161790550161217d565b005b634e487b7160e01b600052601160045260246000fd5b34610124576020366003190112610124576004356000526000602052604060002080546001600160401b0360018301541691611bcd60028201611e03565b611bd960038301611e03565b91600481015492600582015460ff6006840154169060ff611c39600786015494611c2b83600a8160088b01541699015416986040519c8d9c8d5260208d015260408c61016091829101528c0190611d4c565b908a820360608c0152611d4c565b9681811660808a015260081c16151560a088015260c0870152151560e0860152610100850152151561012084015215156101408301520390f35b34610124576020366003190112610124576004356000526000602052610753611ca26003604060002001611e03565b604051918291602083526020830190611d4c565b34610124576020366003190112610124576004356000526000602052610753611ca26002604060002001611e03565b3461012457602036600319011261012457602090600060043560005260008352600160ff60066040600020015416151514611d21575b15158152f35b506001611d1b565b60005b838110611d3c5750506000910152565b8181015183820152602001611d2c565b90602091611d6581518092818552858086019101611d29565b601f01601f1916010190565b90600182811c92168015611da1575b6020831014611d8b57565b634e487b7160e01b600052602260045260246000fd5b91607f1691611d80565b6101e081019081106001600160401b0382111761054f57604052565b602081019081106001600160401b0382111761054f57604052565b90601f801991011681019081106001600160401b0382111761054f57604052565b9060405191826000825492611e1784611d71565b908184526001948581169081600014611e865750600114611e43575b5050611e4192500383611de2565b565b9093915060005260209081600020936000915b818310611e6e575050611e4193508201013880611e33565b85548884018501529485019487945091830191611e56565b915050611e4194506020925060ff191682840152151560051b8201013880611e33565b81601f82011215610124578035906001600160401b03821161054f5760405192611edd601f8401601f191660200185611de2565b8284526020838301011161012457816000926020809301838601378301015290565b90815180825260208080930193019160005b828110611f1f575050505090565b835185529381019392810192600101611f11565b602080820190808352835180925260409283810182858560051b8401019601946000925b858410611f68575050505050505090565b9091929394959685806120aa838661209661208261206e8f612021612001611fee8f611fc88f9560019f92611fdb9361204698603f19910301905251998a518c528d808c0151908d0152808b0151908c6101e091829101528c0190611d4c565b6060808b0151908c8303908d0152611d4c565b6080808a0151908b8303908c0152611d4c565b60a080890151908a8303908b0152611d4c565b60c060ff81890151169089015260e08088015190898303908a0152611d4c565b61010063ffffffff818801511690880152610120808701519088830390890152611d4c565b6101406001600160401b03818701511690870152610160808601519087830390880152611d4c565b610180808501519086830390870152611d4c565b6101a0808401519085830390860152611d4c565b916101c08092015191818403910152611eff565b990194019401929594939190611f57565b9392916120e4906120d6604093606088526060880190611d4c565b908682036020880152611d4c565b930152565b6000526000602052600160ff60046040600020015416141560001461210d57600090565b600190565b6001600160401b03811161054f5760051b60200190565b818110612134575050565b60008155600101612129565b6000198114611b795760010190565b80548210156121675760005260206000200190600090565b634e487b7160e01b600052603260045260246000fd5b8054600160401b81101561054f5761219a9160018201815561214f565b819291549060031b91821b91600019901b1916179055565b906121bc82612112565b6040906121cb82519182611de2565b83815280936121dc601f1991612112565b019160005b8381106121ee5750505050565b60209082516121fc81611dab565b60008152826000818301526060808684015280808401528060808401528060a0840152600060c08401528060e084015260006101008401528061012084015260006101408401528061016084015280610180840152806101a08401526101c08301528286010152016121e1565b80518210156121675760209160051b010190565b9060405191828154918282526020928383019160005283600020936000905b8282106122b257505050611e4192500383611de2565b85548452600195860195889550938101939091019061229c56fea26469706673582212201983dd88406fbbb8fafc8f58ad18696168f3868719915331f17bb4e696fa407664736f6c63430008120033",
  "linkReferences": {},
  "deployedLinkReferences": {}
}